:020000040800F2
:1000000000060120010200083D0F0008BD0E000897
:10001000150F0008BD0E0008E90E000803020008D5
:100020000302000803020008030200086527000815
:10003000030200080302000803020008030200088C
:10004000030200080302000803020008030200087C
:100050000302000803020008D9380008013900082B
:1000600029390008513900087939000803020008CD
:10007000030200080302000803020008030200084C
:10008000030200080302000803020008030200083C
:10009000030200080302000803020008A139000857
:1000A000030200080302000803020008030200081C
:1000B000893A00080302000803020008030200084E
:1000C00003020008030200080302000803020008FC
:1000D00003020008753A0008030200080302000842
:1000E000053A0008030200080302000803020008A2
:1000F00003020008030200080302000803020008CC
:1001000003020008030200080302000803020008BB
:1001100003020008030200080302000803020008AB
:10012000030200080302000803020008030200089B
:10013000030200080302000803020008030200088B
:10014000030200080302000803020008252F00082C
:10015000030200080302000803020008030200086B
:10016000030200080302000803020008030200085B
:10017000030200080302000803020008030200084B
:10018000030200080302000803020008030200083B
:10019000030200080302000803020008030200082B
:1001A000030200080302000803020008030200081B
:1001B000030200080302000803020008030200080B
:1001C00003020008030200080302000803020008FB
:1001D00003020008030200080302000803020008EB
:1001E00003020008030200080302000803020008DB
:1001F00003020008030200080302000803020008CB
:1002000002E000F000F8FEE772B63A4880F3088892
:10021000394880F3098839484EF60851CEF200017A
:10022000086040F20000CCF200004EF63471CEF2CD
:1002300000010860BFF34F8FBFF36F8F40F20000E3
:10024000C0F2F0004EF68851CEF200010860BFF314
:100250004F8FBFF36F8F4FF00000E1EE100A4EF6A4
:100260003C71CEF200010860062080F31488BFF3D1
:100270006F8F02F037FB02F0D9FA03F0CFF94FF09D
:1002800055301F491B4A91423CBF41F8040BFAE725
:100290001C49194A91423CBF41F8040BFAE71A493C
:1002A0001A4A1B4B9A423EBF51F8040B42F8040B0A
:1002B000F8E700201749184A91423CBF41F8040B67
:1002C000FAE702F0F1FA03F009FA144C144DAC42CB
:1002D00003DA54F8041B8847F9E700F041F8114CA1
:1002E000114DAC4203DA54F8041B8847F9E702F0D9
:1002F000D9BA0000000601200022012000000008F9
:100300000000012000060120A03E0008002201207C
:1003100068220120682201205430012000020008D8
:100320000002000800020008000200082DE9F04F5A
:100330002DED108AC1F80CD0D0F80CD0BDEC108A8D
:10034000BDE8F08F002383F311882846A0470020E2
:1003500001F024FEFEE701F0B5FD00DFFEE700003E
:1003600038B502F0C1F9054602F0F6F90446D8B9ED
:100370000F4B9D421AD001339D4218BF044641F2F3
:10038000883504BF01240025002002F0B7F90CB124
:1003900000F058F800F03AFD00F0DEFB284600F0CF
:1003A000E1F800F04FF8F9E70025EDE70546EBE747
:1003B000010007B008B500F09BFBA0F120035842F4
:1003C000584108BD07B541F21203022101A8ADF85A
:1003D000043000F0ABFB03B05DF804FB10B572B65F
:1003E000202383F3118862B61248C3680BB101F071
:1003F0005DFE114A0F4800234FF47A7101F01AFE96
:10040000002383F311880D4C236813B12368013B4B
:100410002360636813B16368013B6360084B1B781A
:1004200033B9636823B9022000F06AFC32236360A9
:1004300010BD00BF68220120DD03000884230120D5
:100440007C220120F8B5414B414A1C461968013114
:100450007BD004339342F9D16268A24275D33D4BFD
:100460009B6803F1006303F5C0339A426DD200200C
:1004700000F08CFB384B0220187000F037FC374B33
:1004800000211A6C19641A6E19661A6E5A6C596436
:100490005A6E59665A6E5A6942F080025A615A6918
:1004A00022F080025A615A691A6942F000521A61B8
:1004B0001A6922F000521A611B6972B64FF0E023EC
:1004C000C3F8084DD4E90004BFF34F8FBFF36F8F1B
:1004D000234AC2F88410BFF34F8F536923F480334B
:1004E0005361BFF34F8FD2F88030C3F3C905C3F314
:1004F0004E335B0143F6E07603EA060C29464CEAEC
:1005000081770139C2F87472F9D2203B13F1200FC0
:10051000F2D1BFF34F8FBFF36F8FBFF34F8FBFF396
:100520006F8F536923F4003353610023C2F85032B4
:10053000BFF34F8FBFF36F8F72B6202383F3118801
:1005400062B6854680F308882047F8BD0080010820
:1005500020800108002201207C2201200038024076
:1005600000ED00E02DE9F04F93B0AA4B009020225F
:10057000FF210AA89D6800F0F3FBA74A1378B3B9DE
:10058000A64801211170C36072B6202383F311883D
:1005900062B6C3680BB101F089FDA14A9F480023F0
:1005A0004FF47A7101F046FD002383F31188009B1C
:1005B0009C4A03B113609C49009C00230B7053605C
:1005C00098469B461E469A46012000F08FFB24B1B8
:1005D000944B1B68002B00F01682002000F088FA74
:1005E0000390039B002BF2DB012000F075FB039BC3
:1005F000213B162BE8D801A252F823F05906000837
:100600008106000815070008C9050008C90500088B
:10061000C9050008A90700087B090008950800081B
:10062000F70800081F09000845090008C905000867
:1006300057090008C9050008C9090008F90600089B
:10064000C90500080D0A000865060008F90600083B
:10065000C9050008F70800080220FFF7ABFE0028D4
:1006600040F0FB81009B0221B8F1000F08BF1C463F
:1006700005A841F21233ADF8143000F057FAA3E7A1
:100680004FF47A7000F034FA071EEBDB0220FFF71C
:1006900091FE0028E6D0013F052F00F2E081DFE85F
:1006A00007F0030A0D10133605230593042105A84E
:1006B00000F03CFA17E057480421F9E75B480421B1
:1006C000F6E75B480421F3E74FF01C09484600F0C9
:1006D0005FFA09F104090590042105A800F026FA43
:1006E000B9F12C0FF2D1012000FA07F747EA0B0B02
:1006F0005FFA8BFB4FF0000A00F07EFB26B10BF097
:100700000B030B2B08BF0024FFF75CFE5CE7494896
:100710000421CDE7002EA5D00BF00B030B2BA1D1AC
:100720000220FFF747FE074600289BD001203E4EDF
:1007300000F02CFA0220307000F0D8FA4FF00008D8
:100740005FFA88F9484600F031FA044690B148460D
:1007500000F03CFA08F101080028F1D1B84604463F
:1007600041F21213022105A8ADF814303E4600F004
:10077000DDF929E701230220337000F0ADFA2546A8
:10078000244B9B68AB4207D9284600F001FA0130A0
:1007900040F068810435F3E7234B00251D70214BA1
:1007A000B8465D603E46A7E7002E3FF45BAF0BF016
:1007B0000B030B2B7FF456AF1B4B0220187000F07D
:1007C00095FA322000F094F9B0F10009FFF64AAF33
:1007D00019F003077FF446AF0E4A926809EB050350
:1007E00093423FF63FAFB9F5807F3FF73BAF124BE7
:1007F0000193B94522DD4FF47A7000F079F9039046
:10080000039A002AFFF62EAF019B039A03F8012BEF
:100810000137EDE70022012080230120682201201A
:10082000DD030008842301207C2201200422012012
:10083000082201200C22012080220120C820FFF77D
:10084000B9FD074600283FF40DAF1F2D11D8C5F1A3
:1008500020024A450AAB25F0030028BF4A468349D7
:100860000192184400F056FA019A8048FF2100F0E6
:1008700077FA4FEAA9037D490193C9F38702284615
:1008800000F076FA064600283FF46AAF019B05EBBC
:10089000830531E70220FFF78DFD00283FF4E2AE2B
:1008A00000F0BEF900283FF4DDAE0027B946704BDA
:1008B0009B68BB4218D91F2F11D80A9B01330ED059
:1008C00027F0030312AA134453F8203C059348462B
:1008D000042205A900F034FB04378146E7E73846D7
:1008E00000F056F90590F2E7CDF81490042105A820
:1008F00000F01CF900E70023642104A8049300F031
:100900000BF900287FF4AEAE0220FFF753FD00285C
:100910003FF4A8AE049800F06BF90590E6E70023D9
:10092000642104A8049300F0F7F800287FF49AAE3D
:100930000220FFF73FFD00283FF494AE049800F03A
:1009400067F9EAE70220FFF735FD00283FF48AAE99
:1009500000F076F9E1E70220FFF72CFD00283FF4D4
:1009600081AE05A9142000F071F904210746049016
:1009700004A800F0DBF83946B9E7322000F0B8F8F7
:10098000071EFFF66FAEBB077FF46CAE384A926865
:1009900007EB0A0393423FF665AE0220FFF70AFD1C
:1009A00000283FF45FAE27F003075744BA453FF4F1
:1009B000A3AE504600F0ECF80421059005A800F025
:1009C000B5F80AF1040AF1E74FF47A70FFF7F2FC88
:1009D00000283FF447AE00F023F9002844D00A9BDA
:1009E00001330BD008220AA9002000F0C1F9002829
:1009F0003AD02022FF210AA800F0B2F9FFF7E2FC6A
:100A00001C4801F0D3FA13B0BDE8F08F002E3FF47C
:100A100029AE0BF00B030B2B7FF424AE00236421D3
:100A200005A8059300F078F8074600287FF41AAE71
:100A30000220FFF7BFFC814600283FF413AEFFF70A
:100A4000C1FC41F2883001F0B1FA059800F016FAC5
:100A50004E4600F0D1F93C46B6E506464CE64FF06E
:100A6000000AFFE5B8467BE6374679E6802201209A
:100A700000220120A0860100F7B5194E0C464FF464
:100A80007A7102FB01F396F900200546501C0BD148
:100A90001448019302682946176A2246B8478442DF
:100AA000019B03D1002310E0002AF1D096F9002029
:100AB000511C01D0012A0DD10B4802682946166A43
:100AC0002246B047844205D10123084A0120137011
:100AD00003B0F0BD4FF4FA7001F068FA0020F7E7B8
:100AE00010220120F8270120D4230120D023012047
:100AF00007B50023024601210DF107008DF80730EC
:100B0000FFF7BAFF20B19DF8070003B05DF804FBC2
:100B10004FF0FF30F9E700000A4608B50421FFF75F
:100B2000ABFF80F00100C0B2404208BD30B4074BBB
:100B30000A461978064B53F821402368DD69054BB6
:100B40000146AC46204630BC604700BFD0230120A0
:100B5000643B0008A086010070B501F0CBFC094E93
:100B6000094D3080002428683388834208D901F079
:100B7000BBFC2B6804440133B4F5C03F2B60F2D3B7
:100B800070BD00BFD22301208C23012001F060BD85
:100B900000F1006000F5C0300068704700F10060AF
:100BA000920000F5C03001F0EBBC0000054B1A6864
:100BB000054B1B889B1A834202D9104401F094BC58
:100BC000002070478C230120D223012038B5074D27
:100BD00004462868204401F08FFC28B92868204486
:100BE000BDE8384001F0A0BC38BD00BF8C23012017
:100BF00010F0030309D1B0F5846F04D200F1005066
:100C0000A0F571200368184670470023FBE7000039
:100C100000F10050A0F57120D0F8200470470000CA
:100C2000064991F8243033B10023086A81F8243052
:100C30000822FFF7B3BF0120704700BF90230120B7
:100C4000014B1868704700BF002004E0F0B5204B4E
:100C5000024618681F4B1F885D6893F90840C0F36F
:100C60000B06BE424FEA104022D09F89BE4221D0DF
:100C70001F8BBE4206D102240C2505FB04335D68A0
:100C800093F90840B0F5805F16D041F20103984215
:100C900008BF5A24013A0A44013D0B4693420DD243
:100CA00015F9016F581C5EB100F8016C0346F5E7B9
:100CB0000024E1E70124DFE74124EBE7184605E0E3
:100CC0002C2590421D7001D2981C5C70401AF0BD1A
:100CD000002004E014220120022802BF024B4FF042
:100CE00000529A61704700BF00080240022802BF0C
:100CF000024B4FF400529A61704700BF0008024057
:100D0000022801BF024A536983F4005353617047BC
:100D10000008024010B50023934203D0CC5CC454B9
:100D20000133F9E710BD000010B5013810F9013F9B
:100D30003BB191F900409C4203D11AB10131013A13
:100D4000F4E71AB191F90020981A10BD1046FCE79B
:100D500003460246D01A12F9011B0029FAD1704746
:100D600002440346934202D003F8011BFAE770479E
:100D70002DE9F8431F4D144695F824200746884670
:100D800052BBDFF870909CB395F824302BB9202229
:100D9000FF2148462F62FFF7E3FF95F82400C0F1DA
:100DA0000802A24228BF2246D6B24146920005EB75
:100DB0008000FFF7AFFF95F82430A41B1E44F6B265
:100DC000082E17449044E4B285F82460DBD1FFF785
:100DD00027FF0028D7D108E02B6A03EB8203834268
:100DE000CFD0FFF71DFF0028CBD10020BDE8F8834E
:100DF0000120FBE790230120024B1A78024B1A7066
:100E0000704700BFD02301201022012038B5154CB7
:100E1000154D204600F0F4FB2946204600F01CFC4E
:100E20002D681248EA6ED2F8043843F00203C2F883
:100E3000043801F0BBF80E49284600F01BFDEA6EAD
:100E40000C48D2F804380C4923F00203C2F80438E5
:100E5000A0424FF4E1330B6003D0BDE8384000F00E
:100E60002BBB38BDF8270120703C000840420F0022
:100E7000783C0008D4230120B823012038B50B4B5F
:100E80001A780B4B53F822500A4B9D4204460CD063
:100E9000094B002118461822FFF762FF0460014643
:100EA0002846BDE8384000F007BB38BDD0230120FC
:100EB000643B0008F8270120B823012000B59BB04F
:100EC000EFF3098168226846FFF724FFEFF30583FB
:100ED000044B9A6BDA6A9A6A9A6A9A6A9A6A9A6A66
:100EE0009B6AFEE700ED00E000B59BB0EFF30981DF
:100EF00068226846FFF70EFFEFF30583044B9A6BF9
:100F00009A6A9A6A9A6A9A6A9A6A9B6AFEE700BF24
:100F100000ED00E000B59BB0EFF309816822684660
:100F2000FFF7F8FEEFF30583034B5A6B9A6A9A6A50
:100F30009A6A9A6A9B6AFEE700ED00E0FEE700000D
:100F400030B5094D0A4491420DD011F8013B58408B
:100F5000082340F30004013B2C4013F0FF0384EA14
:100F60005000F6D1EFE730BD2083B8ED72B62023F4
:100F700083F3118862B670470268436811430160C9
:100F800003B1184770470000024A136843F0C003DA
:100F9000136070470010014013B50E4C204600F05E
:100FA0007FFA04F114000C49009400234FF480727E
:100FB00000F044F9094B0A4900944FF4807204F19F
:100FC000380000F0B9F9074A074BC4E9172302B00B
:100FD00010BD00BFD423012040240120890F000848
:100FE000402501200010014000F36F0630B5037C5E
:100FF000214C002918BF0C46012B0CD11F4B9842E5
:1010000009D11F4B5A6C42F010025A645A6E42F0DA
:1010100010025A665B6E2268036EC16D846603EB34
:101020005203B3FBF2F36268150442BF23F00705D5
:1010300003F0070343EA4503CB60A36843F0400392
:101040004B60E36843F001038B6042F4967343F016
:1010500001030B604FF0FF330B62510505D512F011
:10106000102205D0B2F1805F04D080F8643030BD2A
:101070007F23FAE73F23F8E76C3B0008D4230120E5
:10108000003802402DE9F047C66D3768F4693462D4
:101090002107054617D014F0080118BF8021E20788
:1010A00048BF41F02001A30748BF41F0400160075D
:1010B00048BF41F48071281DFFF758FFFFF75CFF20
:1010C000002383F31188E20509D54FF40071281D30
:1010D000FFF74CFFFFF750FF002383F311884FF019
:1010E000000914F0200835D13B0614D505F1380964
:1010F000200610D54846FFF739FF00F04FF90028C9
:1011000035DA0821281DFFF737FF27F08003336009
:10111000002383F31188790613D5620611D5FFF7F2
:1011200025FFD5E913239A4208D12B6C33B1102146
:10113000281D27F04007FFF71FFF3760002383F3C8
:101140001188E30618D5AA6E1369ABB1BDE8F04764
:1011500050691847FFF70AFF736A95F8641028462C
:10116000194000F0B5F989F31188F469B9E7B06264
:1011700088F31188F469BBE7BDE8F08772B62023D5
:1011800083F3118862B67047F8B515468268066920
:10119000AA420B46816938BF8568761AB542044673
:1011A0000BD218462A46FFF7B5FDA3692B44A3616D
:1011B000A3685B1BA3602846F8BD0CD918463246CD
:1011C000FFF7A8FDAF1BE1683A463044FFF7A2FDE8
:1011D000E3683B44EBE718462A46FFF79BFDE368CC
:1011E000E5E7000083689342F7B51546044638BF2B
:1011F0008568D0E90460361AB5420BD22A46FFF75B
:1012000089FD63692B446361A36828465B1BA36067
:1012100003B0F0BD0DD932460191FFF77BFD019976
:10122000E068AF1B3A463144FFF774FDE3683B4486
:10123000E9E72A46FFF76EFDE368E4E710B50A44E4
:101240000024C361029B8460C0E90000C0E905116D
:10125000C1600261036210BD08B5D0E90532934256
:1012600001D1826882B98268013282605A1C42616F
:101270001970D0E904329A4224BFC3684361002147
:1012800000F0B0FE002008BD4FF0FF30FBE700008B
:1012900070B504460D46FFF771FFA668A6B1A368B6
:1012A000A269013BA360531CA36115782269934294
:1012B00024BFE368A361E3690BB12046984700238C
:1012C00083F31188284607E02946204600F07AFE7D
:1012D0000028E2DA86F3118870BD00002DE9F84F8E
:1012E000D0F81CA09946FFF749FF04460E469046E9
:1012F00015464FF0000B65B12A4631462046FFF7F0
:1013000043FF074660B94946204600F05BFE0028CF
:10131000F1D0002383F31188A8EB0500BDE8F88F16
:10132000BAF1000F01D02046D0478BF31188ED1B96
:101330003E44FFF723FFDEE7C0E90511C160C3614A
:101340001144009B8260C0E90000016103627047A4
:10135000F8B504460D461646FFF710FFA768A7B17B
:10136000A368013BA36063695A1C62611D70D4E9E4
:1013700004329A4224BFE3686361E3690BB12046FB
:101380009847002080F3118807E03146204600F09E
:1013900019FE0028E2DA87F31188F8BDD0E90523A9
:1013A0009A4210B501D182687AB9826801328260AE
:1013B0005A1C82611C7803699A4224BFC368836106
:1013C000002100F00FFE204610BD4FF0FF30FBE77C
:1013D0002DE9F84FD0F81CA09946FFF7CFFE044640
:1013E0000E46904615464FF0000B65B12A46314631
:1013F0002046FFF7F7FE074660B94946204600F051
:10140000E1FD0028F1D0002383F31188A8EB05004B
:10141000BDE8F88FBAF1000F01D02046D0478BF31A
:101420001188ED1B3E44FFF7A9FEDEE772B62023CC
:1014300083F3118862B67047026843681143016004
:1014400003B11847704700001430FFF747BF000092
:101450004FF0FF331430FFF741BF00003830FFF783
:10146000B7BF00004FF0FF333830FFF7B1BF0000C7
:101470001430FFF70DBF00004FF0FF311430FFF7BD
:1014800007BF00003830FFF763BF00004FF0FF32A6
:101490003830FFF75DBF000000207047FFF77CBDCC
:1014A000044B03600023C0E902334360012303744B
:1014B000704700BF843B000810B50446FFF7B6FF35
:1014C000FFF794FD02232374002383F3118810BDDA
:1014D00038B5C36904460D461BB904210844FFF71B
:1014E000ABFF294604F11400FFF7B6FE002806DA28
:1014F000201D4FF48061BDE83840FFF79DBF38BD27
:1015000072B6202383F3118862B67047026843687D
:101510001143016003B118477047000013B5446BD5
:10152000D4F894341A681178042915D1217C022941
:1015300012D11979128901238B4013420CD101A9D0
:1015400004F14C0001F072FFD4F89444019B21791E
:101550000246206800F0DAF902B010BD143001F044
:10156000F7BE00004FF0FF33143001F0F1BE000071
:101570004C3001F0C7BF00004FF0FF334C3001F09A
:10158000C1BF0000143001F0C7BE00004FF0FF31B2
:10159000143001F0C1BE00004C3001F093BF0000D8
:1015A0004FF0FF324C3001F08DBF0000002070473B
:1015B00010B5D0F894341A6811780429044617D16C
:1015C000017C022914D15979528901238B4013429D
:1015D0000ED1143001F05AFE024648B1D4F89444BA
:1015E0004FF4807361792068BDE8104000F07CB949
:1015F00010BD0000406BFFF7DBBF0000704700002C
:101600007FB5124B036000234360C0E9023301251C
:1016100002260F4B057404460290019300F18402E8
:10162000294600964FF48073143001F00BFE094BED
:101630000294CDE9006304F523724FF480732946C8
:1016400004F14C0001F0CEFE04B070BDAC3B0008CC
:10165000F51500081D15000808B50A68FFF750FFCA
:101660000B7902EB830318624B790D3342F82300A8
:101670008B7913B102EB8302106202230374C0F86A
:101680009414002383F3118808BD000038B5037F4C
:10169000044613B190F85430ABB9201D0125022146
:1016A000FFF734FF04F1140025776FF0010100F01B
:1016B000A5FC84F8545004F14C006FF00101BDE822
:1016C000384000F09BBC38BD10B501210446043001
:1016D000FFF71CFF0023237784F8543010BD00006F
:1016E00038B504460025143001F0C4FD04F14C0067
:1016F000257701F08FFE201D84F854500121FFF75B
:1017000005FF2046BDE83840FFF752BF90F85C3037
:1017100003F06003202B07D190F85D20212A4FF0C1
:10172000000303D81F2A06D800207047222AFBD1C5
:10173000C0E9143303E0034A02650722426583656A
:10174000012070473822012037B5D0F894341A6848
:101750001178042904461AD1017C022917D119797C
:10176000128901238B40134211D100F14C05284608
:1017700001F00EFF58B101A9284601F057FED4F838
:101780009444019B21790246206800F0BFF803B021
:1017900030BD0000F0B500EB810385B01E6A044641
:1017A0000D46F6B104EB8507301D0821FFF7A8FEB2
:1017B000FFF7ACFEFB685B691B6806F14C001BB1D0
:1017C000019001F041FE019803A901F02FFE0246AD
:1017D00048B1039B2946204600F098F8002383F384
:1017E000118805B0F0BDFB685A691268002AF5D06F
:1017F0001B8A013B1340F1D104F15C02EAE70000CF
:101800000D3138B550F82140D4B1FFF779FED4F846
:1018100094241368527903EB8203DB689B695D684B
:1018200045B104216018FFF771FE294604F1140048
:1018300001F036FD2046FFF7BBFE002383F311883D
:1018400038BD00007047000072B6202383F3118872
:1018500062B6704701F0BCB810B5012304462822D7
:1018600000F8243B0021FFF77BFA0023C4E9013391
:1018700010BD000038B50025FFF7E6FF0446C0E9BB
:101880000355C0E90555C0E90755416001F0B0F8BE
:101890000223237085F3118838BD000070B500EB7A
:1018A000810305465069DA600E46144618B11022CD
:1018B0000021FFF755FAA06918B110220021FFF7A7
:1018C0004FFA31462846BDE8704001F05BB9000090
:1018D000826802F0011282600022C0E90422C0E99D
:1018E0000622026201F0DAB9F0B400EB8104478904
:1018F000E4680125A4698D403D43458123600023B0
:10190000A2606360F0BC01F0F5B90000F0B400EB38
:1019100081040789E468012564698D403D430581A0
:1019200023600023A2606360F0BC01F071BA000084
:1019300070B50223002504460370C0E90255C0E9D2
:101940000455C0E906554566056280F84C5001F023
:10195000B5F863681B6823B129462046BDE870408E
:10196000184770BD037880F868300523037043681A
:101970001B6810B504460BB1042198470023A360EF
:1019800010BD000090F86820436802701B680BB11E
:10199000052118477047000070B590F84C30044698
:1019A00013B1002380F84C3004F15C02204601F0B2
:1019B00097F963689B68B3B994F85C3013F06005DD
:1019C00033D00021204601F003FC0021204601F025
:1019D000F5FB63681B6813B1062120469847062370
:1019E00084F84C3070BD204698470028E4D0B4F805
:1019F0006230626D9A4288BF636594F95C30656DB0
:101A0000002B80F20281002D00F0F180092384F880
:101A10004C30FFF719FF0021D4E914232046FFF7CB
:101A200075FF002383F31188DCE794F85D2003F051
:101A30007F0343EA022340F20232934200F0C48063
:101A400021D8B3F5807F48D00DD8012B3FD0022B91
:101A500000F09280002BB4D104F1640222650222CE
:101A60006265A365C3E7B3F5817F00F09A80B3F5A3
:101A7000407FA6D194F85E30012BA2D1B4F8643037
:101A800043F0020332E0B3F5006F4DD017D8B3F541
:101A9000A06F31D0A3F5C063012B92D8636894F88E
:101AA0005E205E6894F85F10B4F860302046B0475E
:101AB000002886D043682365036863651AE0B3F5A0
:101AC000106F36D040F6024293427FF47AAF5B4B00
:101AD0002365022363650023C3E794F85E30012B7E
:101AE0007FF46FAFB4F8643023F00203C4E91455F7
:101AF000A4F86430A5657AE7B4F85C30B3F5A06F5C
:101B00000ED194F85E3084F86630204601F02EF84D
:101B100063681B6813B10121204698470323237093
:101B20000023C4E914339CE704F167032365012310
:101B3000C3E72378042B0FD12046FFF785FEFFF77C
:101B4000C7FE85F311880321636884F8675021700C
:101B50001B680BB12046984794F85E30002BDFD00D
:101B600084F867300423237063681B68002BD7D088
:101B7000022120469847D3E794F860301D0603F011
:101B80000F0120460AD501F09DF8012804D0022853
:101B90007FF417AF2A4B9BE72A4B99E701F084F8B3
:101BA000F3E794F85E30002B7FF40BAF94F86030CD
:101BB00013F00F01B4D01A06204602D501F01CFB29
:101BC000AEE701F00FFBABE794F85E30002B7FF43B
:101BD000F8AE94F8603013F00F01A1D01B06204638
:101BE00002D501F0F5FA9BE701F0E8FA98E7142333
:101BF00084F84C30FFF728FE2A462B46294620461B
:101C0000FFF772FE85F31188ECE65DB1152384F8C9
:101C10004C30FFF719FE0021D4E914232046FFF7CA
:101C200063FEFEE60B2384F84C30FFF70DFE2A46D8
:101C30002B4629462046FFF769FEE3E7DC3B000818
:101C4000D43B0008D83B000838B590F84C30044627
:101C5000002B3CD0063BDAB20F2A32D80F2B30D8FB
:101C6000DFE803F0352F2F0821302F2F2F2F2F2FB4
:101C70002F2F3535456DB0F862309D4213D2C368C1
:101C80001B8AB5FBF3F203FB125565B9FFF7DCFDC8
:101C90002A462B462946FFF739FE85F311880A2389
:101CA00084F84C300DE0142384F84C30FFF7CCFD61
:101CB00000231A4619462046FFF716FE002383F339
:101CC000118838BD836D03B198470023E8E70021F0
:101CD000204601F07DFA0021204601F06FFA63688A
:101CE0001B6813B10621204698470623D8E7000059
:101CF00010B590F84C30142B044628D017D8062B7A
:101D000005D001D81BB110BD093B022BFBD8002127
:101D1000204601F05DFA0021204601F04FFA636889
:101D20001B6813B1062120469847062318E0152B9F
:101D3000E9D10B2380F84C30FFF786FD00231A46CB
:101D40001946FFF7E3FD002383F31188DBE7C3683F
:101D50009B695B68002BD6D1836D03B19847002344
:101D600084F84C30CFE70000024B0022C3E9003377
:101D70009A60704740260120002303748268054B57
:101D80001B6899689142FBD25A68036042601060F8
:101D9000586070474026012008B572B6202383F3AF
:101DA000118862B6037C032B05D0042B0DD02BB910
:101DB00083F3118808BD436900221A604FF0FF3396
:101DC0004361FFF7D9FF0023F2E7D0E90032136047
:101DD0005A60F3E7002303748268054B1B68996817
:101DE0009142FBD85A6803604260106058607047A7
:101DF00040260120054B19690874186802681A60AA
:101E00005360186101230374FEF790BA4026012045
:101E100030B54B1C0B4D87B0044610D02B690A4AD5
:101E200001A800F007F92046FFF7E4FF049B13B177
:101E300001A800F03BF92B69586907B030BDFFF7E6
:101E4000D9FFF8E740260120991D000838B50C4D50
:101E500041612B6981689A689142044603D8BDE8C4
:101E60003840FFF789BF1846FFF7B4FF01232C6104
:101E7000014623742046BDE83840FEF757BA00BF3C
:101E800040260120044B1A681B6990689B689842A1
:101E900094BF0020012070474026012010B5084C57
:101EA000236820691A6822605460012223611A7431
:101EB000FFF790FF01462069BDE81040FEF736BAF3
:101EC00040260120FFF7EABFFEE7000010B50C4CEA
:101ED000FFF74AFF00F0A0F80A498022204600F0F0
:101EE00027F8012344F8180C037400F04BFC00237E
:101EF00083F3118862B60448BDE8104000F038B89A
:101F000068260120E03B0008F03B000800F008B91B
:101F1000034A516853685B1A9842FBD8704700BF68
:101F2000001000E072B6202383F3118862B6704778
:101F300082600222028270478368A3F17C0243F828
:101F40000C2C026943F83C2C426943F8382C074AB0
:101F500043F81C2CC26843F8102C022203F8082C0A
:101F6000002203F8072CA3F118007047450300086E
:101F700010B5FFF7D7FFFFF7DFFF00210446FFF79B
:101F800065FF002383F31188204610BD024B1B69B7
:101F900058610F20FFF72EBF4026012008B5FFF73C
:101FA000C1FFBDE80840FFF7F1BF000008B50146DA
:101FB0000820FFF7B7FFFFF72BFF002383F31188FB
:101FC00008BD000049B1064B42681B6918605A60A1
:101FD000136043600420FFF71BBF4FF0FF307047D2
:101FE000402601200368984206D01A6802605060BB
:101FF00059611846FFF7C0BE7047000038B5044667
:102000000D462068844200D138BD036823605C60BF
:102010004561FFF7B1FEF4E7054B03F11402C3E994
:1020200005224FF0FF310022C3E90712704700BFBD
:102030004026012070B51C4EC0E9032305460C461E
:1020400001F0D8FA334653F8142F9A420DD130627A
:10205000C5E901242A600A2C2CBF00190A30C6E900
:102060000555BDE8704001F0B3BA316A431AE31870
:1020700038BF1C469368A34202D9081901F0B6FA8A
:1020800073699A6894420CD85A68AC602B606A6095
:1020900015609A685D60121B9A604FF0FF33F36120
:1020A00070BD1B68A41AECE74026012038B51B4C14
:1020B000636998420DD0D0E9003213605A60002263
:1020C0008168C2609A680A449A604FF0FF33E36106
:1020D00038BD2246036842F8143F002193425A60FB
:1020E000C16003D1BDE8384001F07ABA9A688168CE
:1020F000256A0A449A6001F07DFA63699A68411B77
:102100008A42E5D9AB181D1A092D206A98BF01F142
:102110000A02BDE83840104401F068BA40260120A8
:102120002DE9F041194C002704F11406656901F00E
:1021300061FA236AAA68C11A8A4217D81344236233
:10214000D5E9003213605A606369D5F80C80EF60FE
:10215000B34201D101F044FA87F311882869C047DE
:1021600072B6202383F3118862B6DFE76169B1425A
:1021700009D013441B1ABDE8F0410A2B2CBFC0182C
:102180000A3001F033BABDE8F08100BF40260120DB
:1021900000207047FEE70000704700004FF0FF305E
:1021A0007047000072B6202383F3118862B670472F
:1021B00002290CD0032904D00129074818BF0020A8
:1021C0007047032A05D8054800EBC2007047044851
:1021D00070470020704700BFD43C0008482201200F
:1021E000883C000870B59AB00546084601A9144617
:1021F00000F0BEF801A8FEF7ABFD431C5B00C5E98B
:1022000000340022237003236370C6B201AB023492
:102210001046D1B28E4204F1020401D81AB070BD4A
:1022200013F8011B04F8021C04F8010C0132F0E75A
:1022300008B50448FFF7B6FFFFF786FA002383F3DB
:10224000118808BDF827012090F85C3003F01F02C8
:10225000012A07D190F85D200B2A03D10023C0E9A1
:10226000143315E003F06003202B08D1B0F8603080
:102270002BB990F85D20212A03D81F2A04D8FFF734
:1022800045BA222AEBD0FAE7034A026507224265E3
:1022900083650120704700BF3F22012007B5052953
:1022A00016D8DFE801F018150318181E104A01218E
:1022B000FFF778FF0190FFF7F1FA01980D4A02212C
:1022C000FFF7ECFA0C48FFF70BFA002383F31188B1
:1022D00003B05DF804FB0848FFF764FFFFF7D6F989
:1022E000F3E70548FFF75EFFFFF7EEF9EDE700BF04
:1022F000283C00084C3C0008F827012038B50C4D5C
:102300000C4C0D492A4604F10800FFF76BFF05F15C
:10231000CA0204F110000949FFF764FF05F5CA720B
:1023200004F118000649BDE83840FFF75BBF00BF65
:10233000C02C012048220120083C0008123C000863
:102340001D3C000870B5044608460D46FEF700FD2A
:10235000C6B22046013403780BB9184670BD324628
:102360002946FEF7E1FC0028F3D10120F6E7000042
:102370002DE9F84F05460C46FEF7EAFC2B49C6B29C
:102380002846FFF7DFFF08B10236F6B22849284693
:10239000FFF7D8FF08B11036F6B2632E0DD8DFF87C
:1023A0008C80DFF88C90234FDFF890A0DFF890B09E
:1023B0002E7846B92670BDE8F88F29462046BDE83C
:1023C000F84F01F0B1BB252E2BD1072241462846FC
:1023D000FEF7AAFC58B9DBF800302360DBF80430C4
:1023E00063609BF80830237207350934E0E7082260
:1023F00049462846FEF798FC98B90F4BA21C19785D
:1024000009090232C95D02F8041C13F8011B01F02E
:102410000F015345C95D02F8031CF0D1183408358B
:10242000C6E704F8016B0135C2E700BFF43C0008C1
:102430001D3C0008063D000820F4F01F2CF4F01F9E
:10244000FC3C0008BFF34F8F024AD368DB03FCD487
:10245000704700BF003C024008B5074B1B7853B9DA
:10246000FFF7F0FF054B1A69002ABFBF044A5A6004
:1024700002F188325A6008BD1E2F0120003C024044
:102480002301674508B5054B1B7833B9FFF7DAFF21
:10249000034A136943F00043136108BD1E2F012056
:1024A000003C02400728F0B516D80C4C0C492378A4
:1024B0007BB90C4D0E4608234FF0006255F8047BA3
:1024C00046F8042B013B13F0FF033A44F6D10123F5
:1024D000237051F82000F0BD0020FCE7402F0120C0
:1024E000202F0120183D0008014B53F820007047B1
:1024F000183D000808207047072810B5044601D988
:10250000002010BDFFF7CEFF064B53F824301844CF
:10251000C21A0BB90120F4E712680132F0D1043B72
:10252000F6E700BF183D0008072810B5044621D87B
:10253000FFF788FFFFF790FF0F4AF323D360C30034
:10254000DBB243F4007343F002031361136943F4F5
:1025500080331361FFF776FFFFF7A4FF074B53F8B3
:10256000241000F0D9F8FFF78DFF2046BDE8104099
:10257000FFF7C2BF002010BD003C0240183D00081C
:10258000F8B512F00103144642D18218B2F1016F7E
:1025900057D82D4B1B6813F0010352D02B4DFFF77A
:1025A0005BFFF323EB60FFF74DFF40F20127032CA5
:1025B00015D824F001046618244C401A40F2011783
:1025C000B142236900EB010524D123F0010323610B
:1025D000FFF758FF0120F8BD043C0430E7E783070C
:1025E000E7D12B6923F440732B612B693B432B61AB
:1025F00051F8046B0660BFF34F8FFFF723FF0368AA
:102600009E42E9D02B6923F001032B61FFF73AFFCB
:102610000020E0E723F44073236123693B432361F7
:102620000B882B80BFF34F8FFFF70CFF2D8831F8FD
:10263000023BADB2AB42C3D0236923F00103236157
:10264000E4E71846C7E700BF00380240003C0240FC
:10265000084908B50B7828B11BB9FFF7FDFE012327
:102660000B7008BD002BFCD0BDE808400870FFF7D8
:1026700009BF00BF1E2F012010B50244064BD2B285
:10268000904200D110BD441C00B253F8200041F824
:10269000040BE0B2F4E700BF502800400F4B30B508
:1026A0001C6F240407D41C6F44F400741C671C6F57
:1026B00044F400441C670A4C236843F4807323608D
:1026C0000244084BD2B2904200D130BD441C00B24B
:1026D00051F8045B43F82050E0B2F4E700380240C0
:1026E000007000405028004007B5012201A90020D9
:1026F000FFF7C2FF019803B05DF804FB13B5044671
:10270000FFF7F2FFA04205D0012201A900200194A9
:10271000FFF7C4FF02B010BD0144BFF34F8F064B5B
:10272000884204D3BFF34F8FBFF36F8F7047C3F856
:102730005C022030F4E700BF00ED00E0044BD3F86A
:1027400074389B0042BF034B01221A70704700BFD0
:1027500000300240412F0120014B1878704700BF24
:10276000412F0120EFF3098305494A6B22F0010252
:102770004A63683383F30988002383F31188704721
:1027800000EF00E0202080F3118862B60D4B0E4A66
:10279000D96821F4E0610904090C0A43DA60D3F82E
:1027A000FC200A4942F08072C3F8FC20084AC2F8B3
:1027B000B01F116841F0010111601022DA7783F82F
:1027C0002200704700ED00E00003FA0555CEACC5CD
:1027D000001000E010B572B6202383F3118862B6B2
:1027E0000E4B5B6813F4006314D0F1EE103AEFF374
:1027F0000984683C4FF08073E361094BDB6B23660F
:1028000084F30988FFF73EFB10B1064BA36110BDAE
:10281000054BFBE783F31188F9E700BF00ED00E00B
:1028200000EF00E0570300085A03000870B5BFF33B
:102830004F8FBFF36F8F1A4A0021C2F85012BFF3B7
:102840004F8FBFF36F8F536943F400335361BFF36E
:102850004F8FBFF36F8FC2F88410BFF34F8FD2F842
:102860008030C3F3C900C3F34E335B0143F6E07419
:1028700003EA0406014646EA81750139C2F860524E
:10288000F9D2203B13F1200FF2D1BFF34F8F5369E0
:1028900043F480335361BFF34F8FBFF36F8F70BD2D
:1028A00000ED00E0FEE700000A4B0B480B4A9042A7
:1028B0000BD30B4BDA1C121AC11E22F003028B42FF
:1028C00038BF00220021FEF74BBA53F8041B40F832
:1028D000041BECE7083F000854300120543001206D
:1028E000543001207047000070B5D0E91B439E684A
:1028F00000224FF0FF3504EB42135101D3F80009D9
:102900000028BEBFD3F8000940F08040C3F800099A
:10291000D3F8000B0028BEBFD3F8000B40F0804076
:10292000C3F8000B013263189642C3F80859C3F884
:10293000085BE0D24FF00113C4F81C3870BD0000F2
:102940001D4B03EB80022DE9F043D2F80CC0DD6E85
:10295000DCF81420461CD2F800E005EB063605EB47
:102960004018516871450AD3D5F83438012202FA6B
:1029700000F023EA0000C5F83408BDE8F083BCF895
:102980001040AEEB0103A34228BF2346D8F81849F4
:10299000A4B2B3EB840FF0D89468A4F1040959F8F9
:1029A000047F3760A4EB09071F44042FF7D81C44A9
:1029B0000B4494605360D4E7442F0120890141F017
:1029C0002001016103699B06FCD41220FFF7A0BA25
:1029D00010B5054C2046FEF73FFF4FF0A043E366DD
:1029E000024B236710BD00BF442F01205C3D00084F
:1029F00070B50378012B054650D12A4BC46E98421E
:102A00001BD1294B5A6B42F080025A635A6D42F037
:102A100080025A655A6D5A6942F080025A615A69B9
:102A200022F080025A610E2143205B6900F0EEFB28
:102A30001E4BE3601E4BC4F800380023C4F8003E70
:102A4000C0232360EE6E4FF40413A3633369002B9D
:102A5000FCDA012333610C20FFF75AFA3369DB07F4
:102A6000FCD41220FFF754FA3369002BFCDA00265D
:102A7000A6602846FFF738FF6B68C4F81068DB686B
:102A8000C4F81468C4F81C684BB90A4BA3614FF032
:102A9000FF336361A36843F00103A36070BD064B7D
:102AA000F4E700BF442F01200038024040140040EA
:102AB00003002002003C30C0083C30C0F8B5C46EB2
:102AC000054600212046FFF779FF296F00234FF0CC
:102AD00001128F68C4F834384FF00066C4F81C281F
:102AE0004FF0FF3004EB431201339F42C2F80069FC
:102AF000C2F8006BC2F80809C2F8080BF2D20B68E2
:102B0000EA6E6B67636210231361166916F0100694
:102B1000FBD11220FFF7FCF9D4F8003823F4FE6350
:102B2000C4F80038A36943F4402343F01003A361C1
:102B30000923C4F81038C4F814380A4BEB604FF07E
:102B4000C043C4F8103B084BC4F8003BC4F81069FC
:102B5000C4F800396B6F03F1100243F480136A6705
:102B6000A362F8BD383D000840800010C26E90F8A6
:102B70006610D2F8003823F4FE6343EA0113C2F86A
:102B8000003870472DE9F84300EB8103C56EDA6821
:102B9000166806F00306731E022B05EB41130C4664
:102BA00080460FFA81F94FEA41104FF00001C3F857
:102BB000101B4FF0010104F1100398BFB60401FA95
:102BC00003F391698EBF334E06F1805606F5004639
:102BD00000293AD0578A04F15801490137436F5010
:102BE000D5F81C180B43C5F81C382B180021C3F866
:102BF000101953690127611EA7409BB3138A928B5A
:102C00009B08012A88BF5343D8F87420981842EAD9
:102C1000034301F1400205EB8202C8F8740021462B
:102C200053602846FFF7CAFE08EB8900C3681B8A79
:102C300043EA8453483464011E432E51D5F81C38AE
:102C40001F43C5F81C78BDE8F88305EB4917D7F892
:102C5000001B21F40041C7F8001BD5F81C1821EA1D
:102C60000303C0E704F13F0305EB83030A4A5A60FC
:102C700028462146FFF7A2FE05EB4910D0F800399F
:102C800023F40043C0F80039D5F81C3823EA0707BD
:102C9000D7E700BF0080001000040002026F126836
:102CA0004267FFF721BE00005831C36E49015B58EF
:102CB00013F4004004D013F4001F0CBF02200120C5
:102CC000704700004831C36E49015B5813F400405F
:102CD00004D013F4001F0CBF022001207047000035
:102CE00000EB8101CB68196A0B6813604B68536075
:102CF0007047000000EB810330B5DD68AA691368F6
:102D0000D36019B9402B84BF402313606B8A1468C9
:102D1000C26E1C44013CB4FBF3F46343033323F061
:102D2000030302EB411043EAC44343F0C043C0F83D
:102D3000103B2B6803F00303012B09B20ED1D2F82C
:102D4000083802EB411013F4807FD0F8003B14BF29
:102D500043F0805343F00053C0F8003B02EB4112B4
:102D6000D2F8003B43F00443C2F8003B30BD000002
:102D70002DE9F041254DEE6E06EB40130446D3F8E5
:102D8000087BC3F8087B38070AD5D6F8143819072A
:102D900006D505EB84032146DB6828465B68984727
:102DA000FA0721D5D6F81438DB071DD505EB8403C7
:102DB000D968DCB98B69488A5A68B2FBF0F600FB27
:102DC00016229AB91868DA6890420FD2121AC3E92B
:102DD000002472B6202383F3118862B60B48214683
:102DE000FFF788FF84F31188BDE8F081012303FA1F
:102DF00004F26B8923EA02036B81CB68002BF3D0CA
:102E000021460248BDE8F041184700BF442F012089
:102E100000EB810370B5DD68C36E6C692668E660FF
:102E20004A0156BB1A444FF40020C2F810092A6820
:102E300002F00302012A0AB20ED1D3F8080803EB0C
:102E4000421410F4807FD4F8000914BF40F0805081
:102E500040F00050C4F8000903EB4212D2F8000918
:102E600040F00440C2F80009D3F83408012202FA05
:102E700001F10143C3F8341870BD19B9402E84BF65
:102E80004020206020682E8A8419013CB4FBF6F4AF
:102E900040EAC44040F000501A44C6E7F8B5044682
:102EA0001F48C56E05EB4413D3F80869C3F80869D9
:102EB000F10719D5D5F81038DA0715D500EB8403DA
:102EC000D9684B691F68DA6897421AD2D21B00276B
:102ED0001A605F6072B6202383F3118862B62146C0
:102EE000FFF796FF87F31188330617D5D5F83428F6
:102EF0000123A340134211D02046BDE8F840FFF75C
:102F00001FBD012303FA04F2038923EA02030381AC
:102F10008B68002BE8D021469847E5E7F8BD00BF55
:102F2000442F01202DE9F74FA34CE66E7569B36974
:102F30001D4015F48058756107D02046FEF7F8FC57
:102F400003B0BDE8F04FFFF745BC002D12DAD6F80C
:102F5000003E99489F071EBFD6F8003E23F00303AA
:102F6000C6F8003ED6F8043823F00103C6F804384A
:102F7000FEF708FD280505D58F48FFF7B5FC8E48FC
:102F8000FEF7F0FCA9040CD5D6F8083813F0060FAC
:102F9000F36823F470530CBF43F4105343F4A0536D
:102FA000F3602A0704D56368DB680BB18248984751
:102FB000EB0200F18A80AF0227D5D4F86C90DFF8DD
:102FC000F8B100274FF0010A09EB4712D2F8003B95
:102FD00003F44023B3F5802F11D1D2F8003B002B2E
:102FE0000DDA62890AFA07F322EA0303638104EB2C
:102FF0008703DB68DB6813B1394658469847236F6F
:1030000001379B68FFB29F42DED9E80618D5E76E0C
:103010003A6AC2F30A1002F00F0302F4F012B2F59A
:10302000802F00F09D80B2F5402F09D104EB83037F
:103030000022DB681B6A07F58057904240F08280CF
:103040002B03D6F818481DD5E70302D50020FFF75B
:103050008FFEA60302D50120FFF78AFE600302D58A
:103060000220FFF785FE210302D50320FFF780FE33
:10307000E20202D50420FFF77BFEA30202D5052061
:10308000FFF776FE6F037FF55BAFE60702D5002002
:10309000FFF704FFA50702D50120FFF7FFFE600739
:1030A00002D50220FFF7FAFE210702D50320FFF721
:1030B000F5FEE20602D50420FFF7F0FEA3067FF539
:1030C0003FAF0520FFF7EAFE3AE7E36EDFF8E8B02E
:1030D000019300274FF0010A236F9B685FFA87F97D
:1030E00099453FF668AF019B03EB4913D3F80029DC
:1030F00002F44022B2F5802F22D1D3F80029002A11
:103100001EDAD3F8002942F09042C3F80029D3F820
:103110000029002AFBDBE06E4946FFF74FFC2289BD
:103120000AFA09F322EA0303238104EB8903DB682B
:103130009B6813B14946584698474846FFF700FC3C
:103140000137C9E7910708BFD7F80080072A98BF61
:1031500003F8018B02F1010298BF4FEA18286CE7CF
:10316000023304EB830207F580575268D2F818C087
:10317000DCF80820DCE9001CA1EB0C0C00218842E3
:103180000AD104EB830463689B699A6802449A60DD
:103190005A6802445A6053E711F0030F08BFD7F88A
:1031A00000808C4588BF02F8018B01F1010188BFC6
:1031B0004FEA1828E3E700BF442F0120C36E03EB5A
:1031C0004111D1F8003B43F40013C1F8003B7047B4
:1031D000C36E03EB4111D1F8003943F40013C1F879
:1031E00000397047C36E03EB4111D1F8003B23F463
:1031F0000013C1F8003B7047C36E03EB4111D1F8D7
:10320000003923F40013C1F80039704700F160431E
:1032100003F561430901C9B283F80013012200F0EC
:103220001F039A4043099B0003F1604303F5614388
:10323000C3F880211A60704772B6202383F3118887
:1032400062B6704730B5039C0172043304FB03255A
:10325000C0E90653049B03630021059BC160C0E9DC
:103260000000C0E90422C0E90842C0E90A11436332
:1032700030BD0000416A0022C0E90411C0E90A2201
:10328000C2606FF00101FEF7B9BE0000D0E9043260
:10329000934201D1C2680AB9181D704700207047D7
:1032A00003691960C2680132C260C269134482694D
:1032B0000361934224BF436A03610021FEF792BE7B
:1032C00038B504460D46E3683BB16269131D1268C8
:1032D000A3621344E362002007E0237A33B929464E
:1032E0002046FEF76FFE0028EDDA38BD6FF00100D2
:1032F000FBE70000C368C269013BC3604369134434
:1033000082694361934224BF436A4361002383621D
:10331000036B03B11847704770B5FFF78DFF866ADE
:1033200004463EB9FFF7CCFF054618B186F3118875
:10333000284670BDA36AE26A13F8015BA362934258
:1033400002D32046FFF7D6FF002383F31188EFE76F
:103350002DE9F0479846FFF76FFF002504460E461B
:103360001746A946D4F828A0BAF1000F09D1414662
:103370002046FFF7A5FF20B18AF311882846BDE853
:10338000F087D4E90A12A7EB050A521A924528BF22
:103390009246BAF1400F1BD9334601F1400251F871
:1033A000040B43F8040B9142F9D1A36A4033403631
:1033B000A3624035D4E90A239A4202D32046FFF79C
:1033C00099FF89F31188BD42D8D2FFF735FFC9E7CD
:1033D00030465246FDF79EFCA36A53445644A3620E
:1033E0005544E7E710B5029C0172043304FB032146
:1033F000C0E906130023C0E90A33039B0363049B5F
:10340000C460C0E90000C0E90422C0E90842436387
:1034100010BD0000026AC260426AC0E904220022B4
:10342000C0E90A226FF00101FEF7E8BDD0E90423EC
:103430009A4201D1C26822B9184650F8043B0B6089
:103440007047002070470000C368C2690133C36041
:103450004369134482694361934224BF436A4361D1
:103460000021FEF7BFBD000038B504460D46E368F5
:103470003BB123691A1DA262E2691344E362002092
:1034800007E0237A33B929462046FEF79BFD002842
:10349000EDDA38BD6FF00100FBE700000369196049
:1034A000C268013AC260C2691344826903619342EF
:1034B00024BF436A036100238362036B03B118478F
:1034C0007047000070B5FFF7B7FE866A0D460446E8
:1034D00011462EB9FFF7C8FF10B186F3118870BDF1
:1034E000A36A1D70A36AE26A01339342A36204D304
:1034F000E16920460439FFF7D1FF002080F31188ED
:10350000EDE700002DE9F0479946FFF795FE00260C
:1035100004460D469046B246A76A4FB94946204632
:10352000FFF7A2FF20B187F311883046BDE8F0878E
:10353000D4E90A073A1AA8EB0607974228BF1746AC
:10354000402F1BD905F1400355F8042B40F8042BFC
:103550009D42F9D1A36A4033A3624036D4E90A23DD
:103560009A4204D3E16920460439FFF797FF8AF3B2
:1035700011884645D9D2FFF75FFECDE729463A4686
:10358000FDF7C8FBA36A3B443D44A3623E44E5E724
:10359000D0E904239A4217D1C3689BB1836A8BB1E7
:1035A000043B9B1A0ED01360C368013BC360C36920
:1035B0001A44836902619A4224BF436A036100236B
:1035C00083620123184670470023FBE700F094B89C
:1035D0004FF08043002258631A610222DA6070477C
:1035E0004FF080430022DA60704700004FF08043C4
:1035F000586370474FF08043586A70474B68436088
:103600008B688360CB68C3600B6943614B6903625D
:103610008B6943620B6803607047000008B52C4B50
:103620002C481A6940F2FF710A431A611A6922F4A0
:10363000FF6222F007021A611A691A6B0A431A63C1
:103640001A6D0A431A65244A1B6D1146FFF7D6FF0F
:1036500002F11C0100F58060FFF7D0FF02F1380194
:1036600000F58060FFF7CAFF02F1540100F58060A9
:10367000FFF7C4FF02F1700100F58060FFF7BEFFA5
:1036800002F18C0100F58060FFF7B8FF02F1A8019C
:1036900000F58060FFF7B2FF02F1C40100F5806021
:1036A000FFF7ACFF02F1E00100F58060FFF7A6FF35
:1036B00002F1FC0100F58060FFF7A0FF02F58C71BC
:1036C00000F58060FFF79AFFBDE8084000F08AB877
:1036D0000038024000000240683D000808B500F0D4
:1036E00003FAFEF7F3FBFFF729F8BDE80840FEF701
:1036F00005BE0000704700000F4B1A6C42F001023B
:103700001A641A6E42F001021A660C4A1B6E936824
:1037100043F0010393604FF080436B229A624FF0B5
:10372000FF32DA6200229A615A63DA605A6001223B
:103730005A611A60704700BF00380240002004E060
:103740004FF0804208B51169D3680B40D9B2C94324
:103750009B07116109D572B6202383F3118862B6E5
:10376000FEF7D4FB002383F3118808BD1B4B1A69B5
:103770006FEA42526FEA52521A611A69C2F30A02A0
:103780001A614FF0FF301A695A69586100215A696D
:1037900059615A691A6A62F080521A621A6A02F012
:1037A00080521A621A6A5A6A58625A6A59625A6A86
:1037B0000B4A106840F480701060186F00F440707D
:1037C000B0F5007F1EBF4FF480301867196753684B
:1037D00023F40073536000F05FB900BF003802406B
:1037E00000700040374B4FF080521A64364A4FF455
:1037F000404111601A6842F001021A601A6892078B
:10380000FCD59A6822F003029A602E4B9A6812F057
:103810000C02FBD1196801F0F90119609A601A686D
:1038200042F480321A601A689003FCD55A6F42F055
:1038300001025A67234B5A6F9107FCD5234A5A60FD
:103840001A6842F080721A601F4B5A685204FCD505
:103850001A6842F480321A605A68D003FCD51A689C
:1038600042F400321A60184A53689903FCD5154B8C
:103870001A689201FCD5164A9A6040F20112C3F808
:103880008C200022C3F89020124A40F207331360C4
:10389000136803F00F03072BFAD10A4B9A6842F022
:1038A00002029A609A6802F00C02082AFAD15A6C55
:1038B00042F480425A645A6E42F480425A665B6E09
:1038C000704700BF0038024000700040086C40099B
:1038D00000948838003C0240074A08B5536903F059
:1038E0000103536123B1054A13680BB1506898472F
:1038F000BDE80840FEF76EBF003C0140D42F012018
:10390000074A08B5536903F00203536123B1054A1E
:1039100093680BB1D0689847BDE80840FEF75ABFDE
:10392000003C0140D42F0120074A08B5536903F039
:103930000403536123B1054A13690BB150699847D9
:10394000BDE80840FEF746BF003C0140D42F0120EF
:10395000074A08B5536903F00803536123B1054AC8
:1039600093690BB1D0699847BDE80840FEF732BFB4
:10397000003C0140D42F0120074A08B5536903F0E9
:103980001003536123B1054A136A0BB1506A98477B
:10399000BDE80840FEF71EBF003C0140D42F0120C7
:1039A000164B10B55C6904F478725A61A30604D50D
:1039B000134A936A0BB1D06A9847600604D5104A3F
:1039C000136B0BB1506B9847210604D50C4A936BCF
:1039D0000BB1D06B9847E20504D5094A136C0BB1C3
:1039E000506C9847A30504D5054A936C0BB1D06C75
:1039F0009847BDE81040FEF7EDBE00BF003C014017
:103A0000D42F0120194B10B55C6904F47C425A6133
:103A1000620504D5164A136D0BB1506D9847230506
:103A200004D5134A936D0BB1D06D9847E00404D5CB
:103A30000F4A136E0BB1506E9847A10404D50C4A7F
:103A4000936E0BB1D06E9847620404D5084A136F89
:103A50000BB1506F9847230404D5054A936F0BB1FF
:103A6000D06F9847BDE81040FEF7B4BE003C01405F
:103A7000D42F012008B50348FDF704FBBDE808403A
:103A8000FEF7A8BED423012008B5FFF759FEBDE814
:103A90000840FEF79FBE0000062108B50846FFF764
:103AA000B5FB06210720FFF7B1FB06210820FFF731
:103AB000ADFB06210920FFF7A9FB06210A20FFF72D
:103AC000A5FB06211720FFF7A1FB06212820FFF701
:103AD0009DFB07211C20FFF799FBBDE808400C2146
:103AE0002520FFF793BB000008B5FFF73FFE00F06D
:103AF0000DF8FDF7D3FCFDF7ADFEFDF77FFDFFF7F9
:103B0000F9FDBDE80840FFF761BD00000023054A4C
:103B100019460133102BC2E9001102F10802F8D155
:103B2000704700BFD42F0120034611F8012B03F882
:103B3000012B002AF9D1704753544D3332463F3F91
:103B40003F3F3F3F0053544D333246375B347C3563
:103B50005D780053544D333246375B367C375D78A1
:103B600000000000F8270120D42301200096000067
:103B70000000000000000000000000000000000045
:103B80000000000000000000651400085114000847
:103B90008D140008791400088514000871140008B9
:103BA0005D14000849140008991400080000000082
:103BB0007915000865150008A11500088D15000885
:103BC0009915000885150008711500085D15000895
:103BD000AD1500080000000001000000000000001A
:103BE0006D61696E0000000069646C650000000092
:103BF000E83B000880260120F82701200100000092
:103C0000C91E0008000000004172647550696C6FA5
:103C1000740025424F415244252D424C0025534506
:103C20005249414C25000000020000000000000045
:103C3000951700080118000840004000902C012052
:103C4000A02C012002000000000000000300000082
:103C500000000000451800080000000010000000EF
:103C6000B02C012000000000010000000000000056
:103C7000442F0120010102009D220008B12100080B
:103C8000492200083122000843000000903C00084F
:103C900009024300020100C03209040000010202CF
:103CA0000100052400100105240100010424020282
:103CB0000524060001070582030800FF090401002E
:103CC000020A00000007050102400000070581020A
:103CD0004000000012000000DC3C0008120110014E
:103CE00002000040091241570002010203010000D6
:103CF0000403090425424F41524425004265617383
:103D0000744637763200303132333435363738390D
:103D1000414243444546000000800000008000000E
:103D2000008000000080000000000200000004008D
:103D300000000400000004000000000099190008C1
:103D4000491C0008F11C000840004000BC2F012065
:103D5000BC2F012001000000CC2F012080000000BA
:103D600040010000050000000001A86A00000000FA
:103D7000AAAAAAAA00011464FFFF00000000000024
:103D800070A70A000000000000000000AAAAAAAA6A
:103D900000000000FFFF0000000000000000000025
:103DA0000000000400000000AAAAAAAA0000000067
:103DB000FFDF000000000000000000000000000025
:103DC00000000000AAAAAAAA00000000FFFF00004D
:103DD00000000000000000000001000000000000E2
:103DE000AAAAAAAA00010000FFFF0000000000002C
:103DF000000000000000000000000000AAAAAAAA1B
:103E000000000000FFFF00000000000000000000B4
:103E10000000000000000000AAAAAAAA00000000FA
:103E2000FFFF000000000000000000000000000094
:103E3000000000000A000000000000000300000075
:103E40000000000000000000000000000000000072
:103E50000000000000000000000000000000000062
:103E60000000000000000000000000000000000052
:103E70000000000000000000000000000000000042
:103E80000000000000000000000000000000000032
:103E90000000000000000000000000000000000022
:103EA000210400000000000000800E00000000005F
:103EB000FF00000000000000383B00083F00000049
:103EC00049040000453B00083F0000005104000089
:103ED000533B00083F00000000960000000008006F
:103EE000960000000008000004000000F03C0008FC
:103EF00000000000000000000000000000000000C2
:083F00000000000000000000B9
:00000001FF
