:020000040800F2
:1000000000060120010200080D0F0008110F000872
:10001000690F0008110F00083D0F000803020008D7
:100020000302000803020008030200080128000878
:10003000030200080302000803020008030200088C
:10004000030200080302000803020008030200087C
:100050000302000803020008A9390008D13900088A
:10006000F9390008213A0008493A0008030200085B
:10007000030200080302000803020008030200084C
:10008000030200080302000803020008030200083C
:10009000030200080302000803020008713A000886
:1000A000030200080302000803020008030200081C
:1000B000593B00080302000803020008030200087D
:1000C00003020008030200080302000803020008FC
:1000D00003020008453B0008030200080302000871
:1000E000D53A0008030200080302000803020008D2
:1000F00003020008030200080302000803020008CC
:1001000003020008030200080302000803020008BB
:1001100003020008030200080302000803020008AB
:10012000030200080302000803020008030200089B
:10013000030200080302000803020008030200088B
:10014000030200080302000803020008E12F000870
:10015000030200080302000803020008030200086B
:10016000030200080302000803020008030200085B
:10017000030200080302000803020008030200084B
:10018000030200080302000803020008030200083B
:10019000030200080302000803020008030200082B
:1001A000030200080302000803020008030200081B
:1001B000030200080302000803020008030200080B
:1001C00003020008030200080302000803020008FB
:1001D00003020008030200080302000803020008EB
:1001E00003020008030200080302000803020008DB
:1001F00003020008030200080302000803020008CB
:1002000002E000F000F8FEE772B63A4880F3088892
:10021000394880F3098839484EF60851CEF200017A
:10022000086040F20000CCF200004EF63471CEF2CD
:1002300000010860BFF34F8FBFF36F8F40F20000E3
:10024000C0F2F0004EF68851CEF200010860BFF314
:100250004F8FBFF36F8F4FF00000E1EE100A4EF6A4
:100260003C71CEF200010860062080F31488BFF3D1
:100270006F8F02F089FB02F029FB03F02BFA4FF09D
:1002800055301F491B4A91423CBF41F8040BFAE725
:100290001C49194A91423CBF41F8040BFAE71A493C
:1002A0001A4A1B4B9A423EBF51F8040B42F8040B0A
:1002B000F8E700201749184A91423CBF41F8040B67
:1002C000FAE702F047FB03F06FFA144C144DAC420E
:1002D00003DA54F8041B8847F9E700F041F8114CA1
:1002E000114DAC4203DA54F8041B8847F9E702F0D9
:1002F0002FBB0000000601200022012000000008A2
:100300000000012000060120783F000800220120A3
:1003100064220120682201205430012000020008DC
:100320000002000800020008000200082DE9F04F5A
:100330002DED108AC1F80CD0D0F80CD0BDEC108A8D
:10034000BDE8F08F002383F311882846A0470020E2
:1003500001F072FEFEE701F0EFFD00DFFEE70000B6
:1003600038B502F00FFA044602F044FA0546D8B94F
:100370000F4B9C421AD001339C4218BF054641F2F4
:10038000883404BF01250024002002F005FA0DB1D5
:1003900000F05AF800F062FD00F0FCFB204600F08F
:1003A000F5F800F051F8F9E70024EDE70446EBE733
:1003B000010007B008B500F0B9FBA0F120035842D6
:1003C000584108BD07B5054B02211B88ADF8043024
:1003D00001A800F0C9FB03B05DF804FB043C000871
:1003E00010B572B6202383F3118862B61248C36831
:1003F0000BB101F0ABFE0023104A0F484FF47A71A5
:1004000001F066FE002383F311880D4C236813B1BD
:100410002368013B2360636813B16368013B636039
:10042000084B1B7833B9636823B9022000F084FCC1
:100430003223636010BD00BF68220120E103000881
:10044000842301207C2201202DE9F041454B4649BF
:1004500053F8042F013201D1BDE8F0818B42F7D16E
:10046000424C434B22689A427AD9424B9B6803F133
:10047000006303F5C0339A4272D2002000F0A6FB5D
:100480003D4B0220187000F04DFC3C4B1A6C0022D2
:100490001A64196E1A66196E596C5A64596E5A6646
:1004A000596E596941F080015961596921F0800103
:1004B00059615969196941F000511961196921F0AF
:1004C000005119611B6972B62D492E4B0B601D68D6
:1004D0002468BFF34F8FBFF36F8F2B4BC3F884207B
:1004E000BFF34F8F5A6922F480325A61BFF34F8FA6
:1004F000D3F88020C2F3C906C2F34E325201B707C7
:1005000043F6E07E02EA0E0838463146013948EAF1
:10051000000CB1F1FF3FC3F874C200F14040F5D1C7
:10052000203A12F1200FEDD1BFF34F8FBFF36F8F41
:10053000BFF34F8FBFF36F8F5A6922F400325A61B5
:100540000022C3F85022BFF34F8FBFF36F8F72B6F4
:10055000202383F3118862B6AD4685F308882047CF
:10056000BDE8F081FC7F01081C80010804800108BF
:10057000FF7F0108002201207C2201200038024078
:1005800008ED00E00080010800ED00E02DE9F04FEB
:1005900099B0BA4D00902022FF2110A8AC6800F05D
:1005A000FFFBB74A01951378B3B9B6480121117022
:1005B000C36072B6202383F3118862B6C3680BB19F
:1005C00001F0C4FD0023B04AAE484FF47A7101F047
:1005D0007FFD002383F31188009BAC4A03B11360B5
:1005E000AB4B009D029300261E705660B246374604
:1005F000B146012000F096FB002D00F02582A34BB0
:100600001B68002B40F0208219B0BDE8F08F02205B
:10061000FFF7D0FE002840F01082009B002E08BF9C
:100620001D469C4B02211B88ADF82C300BA800F016
:100630009BFADEE74FF47A7000F078FAB0F1000828
:10064000EBDB0220FFF7B6FE0028E6D008F1FF380A
:10065000B8F1040F00F2F381DFE808F0031E212453
:10066000270018A8052340F8343D042100F07CFA47
:10067000012303FA08F848EA0A0A5FFA8AFA4FF0F7
:10068000000900F0E1FB27B10AF00B030B2B08BFB8
:100690000025FFF797FEACE704217848E6E7042140
:1006A0007D48E3E704217D48E0E74FF01C09484618
:1006B00000F08EFA09F104090B9004210BA800F058
:1006C00053FAB9F12C0FF2D1D2E7002FA5D00AF0DE
:1006D0000B030B2BA1D10220FFF76CFE80460028F4
:1006E0009BD001206A4E00F071FA0220307000F0B9
:1006F00019FB00275FFA87FB584600F077FA05469A
:1007000088B1584600F082FA01370028F2D14646F7
:100710000025634B02211B88ADF82C300BA800F09C
:1007200023FA474665E701230220337000F0F0FA10
:100730002C46019B9B689C4206D2204600F048FA5A
:100740000130E4D10434F4E7029B00241C704F4BC9
:1007500046465C604746254693E7002F3FF45DAF71
:100760000AF00B030B2B7FF458AF029B022018708A
:1007700000F0D8FA322000F0D9F9B0F1000BFFF602
:100780004CAF1BF003087FF448AF019B996804EB62
:100790000B028A423FF641AFBBF5807F3FF63DAF8B
:1007A000404A0392D8450FDA4FF47A7000F0BEF950
:1007B000049004990029FFF630AF039A049908F8D1
:1007C000021008F10108ECE7C820FFF7F3FD8046AE
:1007D00000283FF422AF1F2C11D8C4F120075F4539
:1007E00028BF5F4610AB24F003003A462D49184459
:1007F00000F0ACFA3A46FF212A4800F0D1FA4FEA5D
:10080000AB03DAB227490393204600F0D1FA07463A
:1008100000283FF47EAF039B04EB830431E7022002
:10082000FFF7C8FD00283FF4F8AE00F015FA0028E5
:100830003FF4F3AE4FF000084346019A92689045AA
:1008400032D2B8F11F0F12D8109A01320FD028F00F
:10085000030218A90A4452F8202C0B9218460422CD
:100860000BA900F095FB08F104080346E5E74046B4
:10087000039300F0ADF9039B0B90EFE700220120FA
:100880008023012068220120E10300088423012045
:100890007C220120063C00080422012008220120BD
:1008A000083C00088022012018A8042140F84C3D93
:1008B00000F05AF9E5E618A8002340F8343D642119
:1008C00000F048F900287FF4A8AE0220FFF772FD7F
:1008D00000283FF4A2AE0B9800F0AAF918AB43F839
:1008E000480D04211846E3E718A8002340F8343DDA
:1008F000642100F02FF900287FF48FAE0220FFF76B
:1009000059FD00283FF489AE0B9800F09FF918AB11
:1009100043F8440DE5E70220FFF74CFD00283FF4C3
:100920007CAE00F0A9F918AB43F8400DD9E70220DE
:10093000FFF740FD00283FF470AE0BA9142000F033
:10094000A1F9804618A8042140F83C8D00F00CF96C
:1009500041460BA8ACE7322000F0E8F8B0F10008FF
:10096000FFF65BAE18F0030F7FF457AE019A926862
:1009700008EB090393423FF650AE0220FFF71AFD41
:1009800000283FF44AAE28F00308C844C1453FF4AC
:1009900078AE484600F01CF904210A900AA800F03D
:1009A000E3F809F10409F1E74FF47A70FFF702FD6B
:1009B00000283FF432AE00F04FF9002842D0109BDF
:1009C00001330BD0082210A9002000F0F1F9002813
:1009D00038D02022FF2110A800F0E2F9FFF7F2FC46
:1009E000364801F031FB0FE6002F3FF416AE0AF057
:1009F0000B030B2B7FF411AE18A8002340F8343DF5
:100A0000642100F0A7F8804600287FF406AE02209B
:100A1000FFF7D0FC00283FF400AE0390FFF7D2FCB4
:100A200041F2883001F010FB0B9800F04FFA00F013
:100A30000BFA039B45461F46DBE5074621E64FF0D0
:100A40000009EAE5B84664E6002000F06FF804907B
:100A5000049B002BFFF6D0AD012000F059F9049B58
:100A6000213B122B3FF6C5AD01A252F823F000BF87
:100A70000F06000835060008CB060008F30500083D
:100A8000F3050008F30500085B0700085709000894
:100A90001F080008B7080008E9080008170900083F
:100AA000F30500082F090008F3050008A90900084C
:100AB00083060008F3050008E9090008A086010084
:100AC0002DE9F84F4FF47A75DFF85880DFF8589029
:100AD00007460E465543002498F900305A1C5FFA29
:100AE00084FA01D0A34210D159F824000368324699
:100AF000D3F820B039462B46D847864205D1084B5B
:100B000083F800A00120BDE8F88F0134022CE3D166
:100B10004FF4FA7001F098FA0020BDE8F88F00BF9A
:100B2000D02301200C2201200C3C000807B502ABA9
:100B3000002203F8012D012102461846FFF7C0FFED
:100B400020B19DF8070003B05DF804FB4FF0FF30C3
:100B5000F9E700000A4608B50421FFF7B1FF80F06D
:100B60000100C0B2404208BD30B4074B1A78074BB1
:100B700053F822402368DD69054B0A46AC4601461E
:100B8000204630BC604700BFD02301200C3C000849
:100B9000A0860100F8B501F0F9FC094C094E0A4F96
:100BA0002080002530682388834207D901F0E8FCC3
:100BB000336805440133BD423360F3D9F8BD00BF4B
:100BC000D22301208C230120FF7F010001F08CBD86
:100BD00000F1006000F5C0300068704700F100606F
:100BE000920000F5C03001F017BD0000054B1A68F7
:100BF000054B1B889B1A834202D9104401F0C0BCEC
:100C0000002070478C230120D223012038B5074DE6
:100C100004462868204401F0BBFC28B92868204419
:100C2000BDE8384001F0CCBC38BD00BF8C230120AA
:100C300010F0030308D1B0F5846F05D200F1005025
:100C4000A0F571200068704700207047014BC05824
:100C5000704700BF20F4F01F064991F8243033B1EB
:100C600000230822086A81F82430FFF7B7BF01206B
:100C7000704700BF90230120014B1868704700BFE8
:100C8000002004E0F0B5204B1E68204B1F885D68F3
:100C900093F90840C6F30B02BA424FEA164622D037
:100CA0009F89BA4221D01F8BBA4206D102220C245E
:100CB00004FB02335D6893F90840B6F5805F16D0F7
:100CC00041F201039E4208BF5A24421E0A44013DDC
:100CD0000B46934215D215F9016F581C4EB10346CD
:100CE00000F8016CF5E70022E1E70122DFE741248B
:100CF000EBE72C2582421D7001D9981C5C70401ACC
:100D0000F0BD1846FBE700BF002004E010220120E0
:100D1000022802BF024B4FF000529A61704700BF99
:100D200000080240022802BF024B4FF400529A61B1
:100D3000704700BF00080240022801BF024A536901
:100D400083F40053536170470008024010B500233C
:100D5000934203D0CC5CC4540133F9E710BD0000CA
:100D600030B5441E14F9010F0B4660B193F90050E1
:100D7000854201F1010106D11AB993F90020801AC8
:100D800030BD013AEEE7002AF7D1104630BD000031
:100D900002460346981A13F9011B0029FAD170473D
:100DA00002440346934202D003F8011BFAE770475E
:100DB0002DE9F047234C94F8243005468846174621
:100DC00083BB2E46DFF87C90C7B394F824302BB950
:100DD0002022FF2148462662FFF7E2FF94F8240014
:100DE000C0F10805BD4228BF3D465FFA85FAAD0057
:100DF00041462A4604EB8000FFF7A8FF94F8243010
:100E0000A7EB0A079A445FFA8AFABAF1080F2E4450
:100E1000A844FFB284F824A0D6D1FFF71DFF002814
:100E2000D2D108E0266A06EB8306B042CAD0FFF7AB
:100E300013FF0028C5D10020BDE8F0870120BDE8E0
:100E4000F08700BF90230120024B1A78024B1A70E2
:100E5000704700BFD02301200C22012038B5154C6B
:100E6000154D204600F0F8FB2946204600F020FCF6
:100E70002D681248EA6ED2F8043843F00203C2F833
:100E8000043801F0E1F80E49284600F025FDEA6E2D
:100E90000C48D2F804380C4923F00203C2F8043895
:100EA000A0424FF4E1330B6003D0BDE8384000F0BE
:100EB0002DBB38BDF8270120243D000840420F001B
:100EC0004C3D0008D4230120B823012038B50B4B3A
:100ED0001A780B4B53F822400A4B9C4205460CD023
:100EE000094B002118461822FFF75AFF05600146FA
:100EF0002046BDE8384000F009BB38BDD0230120B2
:100F00000C3C0008F8270120B8230120FEE7000070
:100F100000B59BB0EFF3098168226846FFF716FF22
:100F2000EFF30583044B9A6BDA6A9A6A9A6A9A6AB3
:100F30009A6A9A6A9B6AFEE700ED00E000B59BB0F2
:100F4000EFF3098168226846FFF700FFEFF305839E
:100F5000044B9A6B9A6A9A6A9A6A9A6A9A6A9B6A24
:100F6000FEE700BF00ED00E000B59BB0EFF30981A4
:100F700068226846FFF7EAFEEFF30583034B5A6BDE
:100F80009A6A9A6A9A6A9A6A9B6AFEE700ED00E09A
:100F900030B5084D0A4491420BD011F8013B0924A9
:100FA0005840013CF7D040F300032B4083EA500047
:100FB000F7E730BD2083B8ED72B6202383F31188A4
:100FC00062B67047026843681143016003B1184775
:100FD00070470000024A136843F0C0031360704773
:100FE0000010014013B50E4C204600F083FA04F1C6
:100FF0001400009400234FF480720A4900F048F96D
:101000000094094B09494FF4807204F1380000F054
:10101000BDF9074BE365074B236602B010BD00BF67
:10102000D423012040240120D50F000840250120B1
:101030000010014000F36F06224B002908BF19463B
:10104000037C012B30B50CD11F4B984209D11F4BAB
:101050005A6C42F010025A645A6E42F010025A66FC
:101060005B6E0A68036EC46D816603EB5203B3FBCB
:10107000F2F34A68150442BF23F0070503F00703A3
:1010800043EA4503E3608B6843F040036360CB6849
:1010900043F00103A36042F4967343F0010323601D
:1010A00051054FF0FF33236205D512F0102205D011
:1010B000B2F1805F04D080F8643030BD7F23FAE75E
:1010C0003F23F8E7403C0008D423012000380240C9
:1010D0002DE9F047C66D3768F4693462054620078C
:1010E00018D014F0080F0CBF00218021E20748BF80
:1010F00041F02001A30748BF41F04001600748BF0D
:1011000041F48071FFF758FF281DFFF75BFF0023B4
:1011100083F31188E20509D5FFF74EFF4FF4007104
:10112000281DFFF74FFF002383F311884FF00009BC
:1011300014F020082ED13B0614D505F138092006FD
:1011400010D5FFF739FF484600F052F900282EDA93
:101150000821281DFFF736FF27F0800333600023A6
:1011600083F3118879060CD562060AD5FFF724FFB0
:10117000EA6C2B6D9A4201D12B6CEBB9002383F3FF
:101180001188E30620D5AA6E1369EBB15069BDE85A
:10119000F0471847FFF710FF736A95F86410284668
:1011A000194000F0BFF989F31188F469C0E7B06213
:1011B00088F31188F469C2E71021281D27F0400741
:1011C000FFF700FF3760D9E7BDE8F08772B620234C
:1011D00083F3118862B67047F8B5154682680669D0
:1011E000AA420B46816938BF8568761AB542044623
:1011F00007D218462A46FFF7A9FDA3692B44A3612D
:101200000DE011D932461846FFF7A0FDAF1B3A4654
:10121000E1683044FFF79AFDE2683A44A261A368AE
:101220005B1BA3602846F8BD18462A46FFF78EFDD3
:10123000E368E4E783682DE9F041044693421546EC
:10124000266938BF85684069361AB5420F4606D20E
:101250002A46FFF77BFD63692B4463610DE012D9D9
:101260003246A5EB0608FFF771FD4246B919E06862
:10127000FFF76CFDE26842446261A3685B1BA360F8
:101280002846BDE8F0812A46FFF760FDE368E4E701
:1012900010B50A440024C361029B00604060846072
:1012A000C160816141610261036210BD08B582695C
:1012B0004369934201D1826882B9826801328260B7
:1012C0005A1C42611970426903699A4201D3C3688A
:1012D0004361002100F0D4FE002008BD4FF0FF3034
:1012E00008BD000070B504460E46FFF76FFFA56805
:1012F000A5B1A368A269013BA360531CA361157843
:101300002269934224BFE368A361E3690BB12046DD
:101310009847002383F31188284670BD3146204644
:1013200000F09EFE0028E2DA85F3118870BD00000F
:101330002DE9F84F05460E4690469A46D0F81C9087
:10134000FFF744FF4FF0000B144664B122463146CC
:101350002846FFF741FF074660B95146284600F08E
:101360007FFE0028F1D0002383F31188A8EB04004E
:10137000BDE8F88FB9F1000F01D02846C8478BF3BC
:101380001188E41B3E44FFF721FFDEE7C160816165
:101390004161C3611144009B006040608260016153
:1013A00003627047F8B504460E461746FFF70EFF76
:1013B000A568A5B1A368013BA36063695A1C62617B
:1013C0001E70236962699A4224BFE3686361E3691E
:1013D0000BB120469847002080F31188F8BD3946AC
:1013E000204600F03DFE0028E2DA85F31188F8BDC2
:1013F000836942699A4210B501D182687AB98268DC
:10140000013282605A1C82611C7803699A4201D3BE
:10141000C3688361002100F033FE204610BD4FF009
:10142000FF3010BD2DE9F84F05460E4690469A460E
:10143000D0F81C90FFF7CAFE4FF0000B144664B1C1
:10144000224631462846FFF7F5FE074660B9514669
:10145000284600F005FE0028F1D0002383F3118810
:10146000A8EB0400BDE8F88FB9F1000F01D02846C1
:10147000C8478BF31188E41B3E44FFF7A7FEDEE765
:1014800072B6202383F3118862B6704702684368FE
:101490001143016003B11847704700001430FFF793
:1014A00047BF00004FF0FF331430FFF741BF00008B
:1014B0003830FFF7B7BF00004FF0FF333830FFF789
:1014C000B1BF00001430FFF70DBF00004FF0FF3137
:1014D0001430FFF707BF00003830FFF763BF00008C
:1014E0004FF0FF323830FFF75DBF0000002070473B
:1014F000FFF778BD044B0360002343608360C36043
:1015000001230374704700BF583C000810B504461F
:10151000FFF7B6FFFFF790FD02232374002383F348
:10152000118810BD38B5C36904460D461BB90421A6
:101530000844FFF7ABFF294604F11400FFF7B6FE9D
:10154000002806DA201D4FF48061BDE83840FFF71F
:101550009DBF38BD72B6202383F3118862B67047F1
:10156000026843681143016003B1184770470000E7
:1015700013B5446BD4F894341A681178042915D142
:10158000217C022912D11979128901238B4013423F
:101590000CD101A904F14C0001F0A2FFD4F894444D
:1015A000019B21790246206800F0E6F902B010BDE7
:1015B000143001F027BF00004FF0FF33143001F06A
:1015C00021BF00004C3001F0F7BF00004FF0FF33A7
:1015D0004C3001F0F1BF0000143001F0F7BE000004
:1015E0004FF0FF31143001F0F1BE00004C3001F03B
:1015F000C3BF00004FF0FF324C3001F0BDBF000010
:10160000D0F8942438B5136819780429054601D018
:10161000012038BD017C0229FAD152795C89012070
:1016200090400440F4D105F1140001F089FE024617
:101630000028EDD0D5F894544FF480732868697968
:1016400000F088F9204638BD406BFFF7D9BF000095
:1016500000207047704700007FB5124B03600023E5
:1016600043608360C360012502260F4B0574044666
:101670000290019300F18402294600964FF4807392
:10168000143001F039FE094B0193029400964FF497
:10169000807304F52372294604F14C0001F0FCFE2E
:1016A00004B070BD803C00084916000871150008A0
:1016B00008B50A68FFF74EFF0B7902EB8303186247
:1016C0004B790D3342F823008B7913B102EB83027F
:1016D000106202230374C0F89414002383F311886A
:1016E00008BD000038B5037F044613B190F85430AC
:1016F000ABB9201D01250221FFF732FF04F11400D0
:1017000025776FF0010100F0C7FC84F8545004F114
:101710004C006FF00101BDE8384000F0BDBC38BDA1
:1017200010B5012104460430FFF71AFF0023237788
:1017300084F8543010BD000038B50446002514303C
:1017400001F0F2FD04F14C00257701F0BDFE201DF3
:1017500084F854500121FFF703FF2046BDE83840CC
:10176000FFF74EBF90F85C3003F06003202B19D1D7
:1017700090F85D20212A0AD0222A4FF000030ED0D3
:10178000202A0FD1084A02650722426504E0064B71
:1017900003650723436500238365012070470365C4
:1017A0004365F9E70020704734220120D0F89434D3
:1017B00037B51A681178042904461AD1017C022928
:1017C00017D11979128901238B40134211D100F1ED
:1017D0004C05284601F036FF58B101A9284601F012
:1017E0007FFED4F89444019B21790246206800F0E2
:1017F000C3F803B030BD000000EB8103F7B51C6AED
:1018000005460E46ECB105EB8607FFF7A3FE201D4B
:101810000821FFF7A5FEFB685B691B684C3413B118
:10182000204601F06BFE01A9204601F059FE024658
:1018300048B1019B3146284600F09EF8002383F30F
:10184000118803B0F0BDFB685A691268002AF5D010
:101850001B8A013B1340F1D105F15C02EAE700006D
:101860000D3138B550F82140D4B1FFF773FED4F8EC
:1018700094241368527903EB8203DB689B695D68EB
:1018800045B104216018FFF76BFE294604F11400EE
:1018900001F060FD2046FFF7B3FE002383F31188BB
:1018A00038BD00007047000072B6202383F3118812
:1018B00062B6704701F0E2B8012303700023436071
:1018C00000F1240200F1380142F8043B8A4213611E
:1018D000FAD103814381704738B50446FFF7E4FF2E
:1018E00000254160C560056145618561C56105628E
:1018F00001F0D4F80223237085F3118838BD00006D
:1019000070B500EB810305465069DA600E46144657
:1019100018B110220021FFF743FAA06918B1102274
:101920000021FFF73DFA31462846BDE8704001F03E
:101930007FB90000028902F001020281428902F0AF
:10194000010242810022026142618261C26102623F
:1019500001F002BAF0B400EB81044789E468012584
:10196000A4698D403D43458123600023A2606360EC
:10197000F0BC01F01DBA0000F0B400EB810407894F
:10198000E468012564698D403D430581236000239F
:10199000A2606360F0BC01F099BA000070B5022348
:1019A000002504460370A0F8645080F8665080F863
:1019B000675005814581C560056145618561C561E7
:1019C000056280F84C5001F0CFF863681B6823B1C2
:1019D00029462046BDE87040184770BD037880F85E
:1019E00068300523037043681B6810B504460BB1CB
:1019F0000421984700232381638110BD436890F838
:101A000068201B6802700BB1052118477047000061
:101A100090F84C3070B5044613B1002380F84C3078
:101A200004F15C02204601F0B9F963689B6863BB6E
:101A300094F85C5015F0600615D194F85D3005F00F
:101A40007F0545EA032540F202339D4200F00B81F9
:101A500059D8022D00F0D9803DD8002D00F08580A6
:101A6000012D00F0CC800021204601F00BFC00216C
:101A7000204601F0FDFB63681B6813B10621204678
:101A80009847062384F84C3070BD204698470028BC
:101A9000CED094F8632094F8623043EA0223626D5A
:101AA000934238BF636594F95C30656D002B80F21A
:101AB000FC80002D00F0EB80092384F84C30FFF708
:101AC000F3FE636D226D00212046FFF755FF0023D2
:101AD00083F3118870BDB5F5817F00F0B080B5F556
:101AE000407F49D0B5F5807FBDD194F85E30012BA1
:101AF000B9D1B4F8643023F00203A4F86430266549
:101B00006665A665C5E740F201639D421ED8B5F53E
:101B1000C06F3BD2B5F5A06FA5D1B4F85C30B3F57A
:101B2000A06F0ED194F85E3084F86630204601F044
:101B300073F863681B6813B101212046984703239B
:101B40002370002323656365A365A2E7B5F5106FD5
:101B500032D040F602439D4251D0B5F5006F82D19C
:101B600004F167032365012324E004F16403236582
:101B700002236365A5658CE794F85E30012B7FF442
:101B800072AFB4F8643043F00203B6E794F8612012
:101B9000616894F860304D6894F85F1043EA02235E
:101BA000204694F85E20A84700283FF45CAF4368C5
:101BB000236503686365A4E72378042B0FD1FFF73F
:101BC00073FE2046FFF7B6FE86F31188636884F83B
:101BD00067601B68032121700BB12046984794F879
:101BE0005E30002BADD084F8673004232370636827
:101BF0001B68002BA5D0022120469847A1E7374B50
:101C000023650223636500239EE794F8601011F0BA
:101C1000800F204601F00F010ED001F0B1F801282D
:101C200006D002287FF41FAF2D4B2365606568E75F
:101C30002C4B2365656564E701F094F8EFE794F8B1
:101C40005E30002B7FF40FAF94F8603013F00F017B
:101C50003FF477AF1A06204602D501F027FB70E764
:101C600001F01AFB6DE794F85E30002B7FF4FBAEB9
:101C700094F8603013F00F013FF463AF1B06204669
:101C800002D501F0FFFA5CE701F0F2FA59E71423FC
:101C900084F84C30FFF708FE2B462A46294620469A
:101CA000FFF758FE85F3118870BD5DB1152384F8E8
:101CB0004C30FFF7F9FD636D226D00212046FFF7E0
:101CC00049FE04E70B2384F84C30FFF7EDFD2B466B
:101CD0002A4629462046FFF74FFEE3E7B03C0008BE
:101CE000A83C0008AC3C000838B590F84C300446DD
:101CF000152B28D8DFE803F03C27272727273C2788
:101D0000270B283727272727272727273C3C90F80A
:101D1000631090F86220436D42EA01229A4213D97F
:101D2000C268128AB3FBF2F502FB153565B9FFF7FD
:101D3000BBFD2B462A462946FFF71EFE85F3118878
:101D40000A2384F84C3038BD142384F84C30FFF754
:101D5000ABFD00231A4619462046FFF7FBFD002382
:101D600083F3118838BD836D03B198470023E8E7FA
:101D7000002101F087FA0021204601F079FA63681A
:101D80001B6813B10621204698470623D9E70000B7
:101D900090F84C20152A38B5044621D801239340E9
:101DA00040F6416213421CD113F480150ED19B0200
:101DB00016D50B2380F84C30FFF776FD2B462A46CC
:101DC0002946FFF7D9FD85F3118838BDC3689B69A3
:101DD0005B682BB9836D03B19847002384F84C30BE
:101DE00038BD002101F04EFA0021204601F040FAF2
:101DF00063681B6813B10621204698470623EDE768
:101E0000024B00221B605B609A60704740260120F5
:101E1000002303748268054B1B6899689142FBD2CA
:101E20005A68036042601060586070474026012085
:101E300008B572B6202383F3118862B6037C032BA6
:101E400005D0042B0DD02BB983F3118808BD43694D
:101E500000221A604FF0FF334361FFF7D9FF0023E0
:101E6000F2E790E80C001A6002685360F2E70000A5
:101E7000002303748268054B1B6899689142FBD864
:101E80005A68036042601060586070474026012025
:101E9000054B19690874186802681A605360186164
:101EA00001230374FEF742BA4026012030B54B1CD3
:101EB00087B005460A4C10D023690A4A01A800F0F1
:101EC00007F92846FFF7E4FF049B13B101A800F0CF
:101ED0003DF92369586907B030BDFFF7D9FFF8E72E
:101EE00040260120311E000838B50C4D41612B6998
:101EF00081689A689142044603D8BDE83840FFF7EC
:101F000087BF1846FFF7B4FF01232C6101462374F5
:101F10002046BDE83840FEF709BA00BF4026012040
:101F2000044B1A681B6990689B68984294BF002014
:101F3000012070474026012010B5084C2368206915
:101F40001A6822605460012223611A74FFF790FF1F
:101F500001462069BDE81040FEF7E8B9402601209F
:101F6000FEE7000010B50C4CFFF74AFF00F0A2F8A6
:101F700080220A49204600F027F8012344F8180C73
:101F8000037400F04DFC002383F3118862B604480B
:101F9000BDE8104000F03AB868260120B43C0008C3
:101FA000BC3C000800F00EB9034B59685A68521A3D
:101FB0009042FBD8704700BF001000E072B62023AB
:101FC00083F3118862B67047826002220274002295
:101FD000427470478368A3F17C0243F80C2C0269B9
:101FE00043F83C2C426943F8382C074A43F81C2C30
:101FF000C26843F8102C022203F8082C002203F8D0
:10200000072CA3F1180070474503000810B5FFF72F
:10201000D5FFFFF7DFFF00210446FFF765FF002330
:1020200083F31188204610BD024B1B6958610F20B5
:10203000FFF72EBF4026012008B5FFF7BFFFBDE820
:102040000840FFF7F1BF000008B50146FFF7B6FFF3
:102050000820FFF72BFF002383F3118808BD000041
:1020600049B1064B42681B6918605A6013604360AF
:102070000420FFF71BBF4FF0FF30704740260120C0
:102080000368984206D01A68026050605961184689
:10209000FFF7BEBE7047000038B504460D46206805
:1020A000844200D138BD036823605C604561FFF75E
:1020B000AFFEF4E7054B03F114025A619A614FF049
:1020C000FF32DA6100221A62704700BF4026012009
:1020D000F8B50361C2600E46054601F0E7FA1A4BF7
:1020E00019461F4651F8142F8A420DD11862AE606E
:1020F0006A602A60022E2CBF801902309D615D61EA
:10210000BDE8F84001F0C0BA1B6A9268C41A3419DD
:1021100028BF3446A24202D9181901F0C3FA7B69DC
:102120009A6894420CD8AC6098685A682B60041B7B
:102130006A6015605D609C604FF0FF33FB61F8BD25
:10214000A41A1B68ECE700BF4026012038B51C4BE1
:1021500001685A6990421D460DD0446821600268AA
:1021600000215460C16091688068014491604FF023
:10217000FF32DA6138BD1A4642F8141F4A605B69C3
:1021800000219342C16003D1BDE8384001F084BA18
:102190009A6881680A449A602C6A01F087FA6A6931
:1021A0009268001B824209D9111A012998BF821C2A
:1021B000286ABDE83840104401F074BA38BD00BF49
:1021C000402601202DE9F041194D002705F11406A4
:1021D0006C6901F06BFA2A6AA368811A8B4218D8DD
:1021E00013442B6294E80C001A602268D4F80C8027
:1021F00053606B69E760B34201D101F04DFA87F398
:1022000011882069C04772B6202383F3118862B613
:10221000DEE76A69B24208D05B1A022B2CBFC018F5
:102220000230BDE8F04101F03DBABDE8F08100BFE9
:102230004026012000207047FEE7000070470000A4
:102240004FF0FF307047000072B6202383F31188EF
:1022500062B67047022906D0032906D00129064834
:1022600018BF0020704705487047032A9ABF0448EA
:1022700000EBC20000207047A83D00085C3D00084C
:102280004422012070B59AB001AD064608462946A1
:10229000144600F0B9F82846FEF77AFDC0B2431C98
:1022A0005B0086E818002370032363700023023468
:1022B0001946DAB2904204F1020401D81AB070BD96
:1022C000EA5C04F8022C04F8011C0133F1E7000079
:1022D00008B5FFF7B9FF0348FFF768FA002383F357
:1022E000118808BDF827012090F85C3003F01F0228
:1022F000012A07D190F85D200B2A03D10023036542
:10230000436512E003F06003202B11D1B0F8603078
:1023100073B990F85D20212A03D0222AEFD0202A19
:1023200006D1044A02650722426583650120704791
:10233000FFF718BA3B22012010B50446052915D82D
:10234000DFE801F015140315151BFFF77DFF0E4A9A
:102350000121FFF7D5FA20460C4A0221FFF7D0FAF7
:102360000B48FFF7E9F9002383F3118810BDFFF74D
:102370006BFF0748FFF7B6F9F5E7FFF765FF04487D
:10238000FFF7CEF9EFE700BFDC3C0008003D000896
:10239000F827012038B50C4D0C4C0D492A4604F1A4
:1023A0000800FFF76FFF05F1CA0204F110000949A8
:1023B000FFF768FF05F5CA7204F118000649BDE889
:1023C0003840FFF75FBF00BFC02C0120442201202E
:1023D0002C3D0008363D0008413D000870B504461C
:1023E00008460D46FEF7D4FCC6B2204601340378F9
:1023F0000BB9184670BD32462946FEF7B1FC0028DD
:10240000F3D1012070BD00002DE9F04704460D46D0
:10241000FEF7BEFC2C49C6B22046FFF7DFFF08B12D
:102420000736F6B229492046FFF7D8FF08B1103623
:10243000F6B2632E0BD8DFF89080DFF89090244F2F
:10244000DFF898A0267846B92E70BDE8F0872146BF
:102450002846BDE8F04701F0CDBB252E2FD107223D
:1024600041462046FEF77CFC70B91A4B2A4603F120
:102470000C0153F8040B42F8040B8B42F9D11B8872
:10248000138007340E35DDE7082249462046FEF763
:1024900067FCA0B9104BAA1C13F8011F090953458A
:1024A000C95D02F8021C197801F00F0102F1020265
:1024B000C95D02F8031CEFD118350834C2E72E704D
:1024C00001340135BEE700BFC83D0008413D0008AA
:1024D000DF3D0008D03D00081FF4F01F2BF4F01F73
:1024E000BFF34F8F024AD368DB03FCD4704700BFB1
:1024F000003C024008B5074B1B7853B9FFF7F0FFCB
:10250000054B1A69002ABFBF044A5A6002F188329B
:102510005A6008BD1E2F0120003C02402301674580
:1025200008B5054B1B7833B9FFF7DAFF034A136987
:1025300043F00043136108BD1E2F0120003C024000
:10254000072870B513D80B4A0B4C137863B90B4EA0
:102550004FF0006144F8231056F823500133082B44
:102560002944F7D10123137054F8200070BD0020D6
:1025700070BD00BF402F0120202F0120F03D00083A
:10258000014B53F820007047F03D000808207047C9
:10259000072810B5044601D9002010BDFFF7D0FF71
:1025A000064B53F824301844C21A0BB9012010BD51
:1025B00012680132F0D1043BF6E700BFF03D00089D
:1025C000072810B5044621D8FFF78AFFFFF792FFCE
:1025D0000F4AF323D360C300DBB243F4007343F02C
:1025E00002031361136943F480331361FFF778FF2B
:1025F000FFF7A6FF074B53F8241000F0DDF8FFF7B4
:102600008FFF2046BDE81040FFF7C2BF002010BD7D
:10261000003C0240F03D00082DE9F84312F00103B0
:10262000154640D18218B2F1016F3CD22C4B1B6889
:1026300013F0010337D02B4CFFF75CFFF323E3606B
:10264000FFF74EFF40F20127032D01D9830713D076
:10265000244C0F46401A40F20118EB1B0B44012B8F
:1026600000EB0706236924D823F001032361FFF759
:1026700057FF0120BDE8F883236923F440732361E9
:1026800023693B43236151F8046B0660BFF34F8F0E
:10269000FFF726FF03689E4208D0236923F0010359
:1026A0002361FFF73DFF0020BDE8F883043D0430BF
:1026B000CAE723F440732361236943EA08032361D3
:1026C000B94637F8023B3380BFF34F8FFFF708FF5F
:1026D0003688B9F80030B6B2B342BED0DDE700BFED
:1026E00000380240003C0240084908B50B7828B188
:1026F00053B9FFF7FFFE01230B7008BD23B1BDE8FE
:1027000008400870FFF70CBF08BD00BF1E2F012056
:1027100010B50244064B0439D2B2904200D110BD2C
:10272000441C00B253F8200041F8040FE0B2F4E773
:1027300050280040104B30B51C6F240407D41C6F88
:1027400044F400741C671C6F44F400441C670B4C79
:10275000236843F4807323600244094B0439D2B2E6
:10276000904200D130BD441C00B251F8045F43F8E0
:102770002050E0B2F4E700BF003802400070004093
:102780005028004007B5012201A90020FFF7C0FF33
:10279000019803B05DF804FB13B50446FFF7F2FFA0
:1027A000A04206D002A9012241F8044D0020FFF703
:1027B000C1FF02B010BD00000144BFF34F8F064BB4
:1027C000884204D3BFF34F8FBFF36F8F7047C3F8B6
:1027D0005C022030F4E700BF00ED00E0034B1B6813
:1027E0009B0042BF024B01221A70704774380240AE
:1027F000412F0120014B1878704700BF412F012065
:10280000EFF3098305494A6822F001024A60683300
:1028100083F30988002383F31188704730EF00E0C9
:10282000202080F3118862B60D4B0E4AD96821F43E
:10283000E0610904090C0A430B49DA60CA6842F0F6
:102840008072CA60094A0A49C2F8B01F116841F093
:10285000010111601022DA7783F82200704700BF6F
:1028600000ED00E00003FA05F0ED00E0001000E0EC
:1028700055CEACC510B572B6202383F3118862B66D
:102880000E4B5B6813F4006314D0F1EE103AEFF3D3
:102890000984683C4FF08073E361094BDB68236671
:1028A00084F30988FFF73CFB10B1064BA36110BD10
:1028B000054BFBE783F3118810BD00BF00ED00E07E
:1028C00030EF00E0570300085A030008F0B5BFF3EB
:1028D0004F8FBFF36F8F1D4B0021C3F85012BFF312
:1028E0004F8FBFF36F8F5A6942F400325A61BFF3C2
:1028F0004F8FBFF36F8FC3F88410BFF34F8FD3F8A0
:102900008020C2F3C904C2F34E325201A50743F638
:10291000E07602EA060E284621464EEA0007013913
:10292000C3F860724F1C00F14040F6D1203A12F11A
:10293000200FEED1BFF34F8F5A6942F480325A61B3
:10294000BFF34F8FBFF36F8FF0BD00BF00ED00E00E
:10295000FEE70000084A094B09498B4204D3094AA3
:102960000021934205D3704752F8040F43F8040B3B
:10297000F3E743F8041BF4E7D83F00085430012084
:10298000543001205430012070470000036F70B5AF
:10299000C46E9E6800214FF0FF354A01A318013133
:1029A000D3F800090028BEBFD3F8000940F08040EA
:1029B000C3F80009D3F8000B0028BEBFD3F8000B02
:1029C00040F08040C3F8000BA3188E42C3F80859AA
:1029D000C3F8085BE1D24FF00113C4F81C3870BD96
:1029E000890141F02001016103699B06FCD412209A
:1029F000FFF7DABA204B03EB80022DE9F047D2F85B
:102A00000CE0DD6EDEF81420461CD2F800C005EBA9
:102A1000063605EB4018516861450BD3D5F83428CC
:102A2000012303FA00F022EA0000C5F83408184632
:102A3000BDE8F087BEF81040ACEB0103A34228BF0D
:102A40002346D8F81849A4B2B3EB840F10D8946881
:102A50001F46A4F1040959F804AFC6F800A0042FDA
:102A600001D9043FF7E71C440B4494605360D2E75C
:102A70000020BDE8F08700BF442F012010B5054CB1
:102A80002046FEF719FF4FF0A043E366024B236791
:102A900010BD00BF442F0120343E00080378012BF5
:102AA00070B5054650D12A4BC46E98421BD1294BB4
:102AB0005A6B42F080025A635A6D42F080025A65A6
:102AC0005A6D5A6942F080025A615A6922F08002B6
:102AD0005A610E2143205B6900F0F2FB1E4BE3605C
:102AE0001E4BC4F800380023C4F8003EC023236006
:102AF000EE6E4FF40413A3633369002BFCDA012359
:102B000033610C20FFF750FA3369DB07FCD4122045
:102B1000FFF74AFA3369002BFCDA0026A660284644
:102B2000FFF734FF6B68C4F81068DB68C4F81468FA
:102B3000C4F81C684BB90A4BA3614FF0FF336361C3
:102B4000A36843F00103A36070BD064BF4E700BF28
:102B5000442F0120003802404014004003002002AE
:102B6000003C30C0083C30C0F8B5C46E05460021BA
:102B70002046FFF735FF296F00234FF001128F68C1
:102B8000C4F834384FF00066C4F81C284FF0FF300A
:102B900004EB431201339F42C2F80069C2F8006B94
:102BA000C2F80809C2F8080BF2D20B68EA6E6B672C
:102BB000636210231361166916F01006FBD1122010
:102BC000FFF7F2F9D4F8003823F4FE63C4F80038B4
:102BD000A36943F4402343F01003A3610923C4F81D
:102BE0001038C4F814380A4BEB604FF0C043C4F8F7
:102BF000103B084BC4F8003BC4F81069C4F8003916
:102C00006B6F03F1100243F480136A67A362F8BD8F
:102C1000103E000840800010C26E90F86610D2F896
:102C2000003823F4FE6343EA0113C2F8003870470A
:102C30002DE9F0410EB200EB86080D46D8F80C10D5
:102C40000F6807F00303022B50D0032B50D03D4AEE
:102C50003D4F012B18BF1746C46E4FEA451E04EBCB
:102C60000E030022C3F8102B8A6905F1100C002A0C
:102C700040D04A8A05F158035B013A43E2500123F0
:102C8000D4F81C2803FA0CF31343A6444A69C4F889
:102C90001C380023CEF8103905F13F03002A39D043
:102CA0000A8A898B9208012988BF4A43416F04EB45
:102CB0008303561841EA0242466729465A60204675
:102CC000FFF78EFED8F80C301B8A43EA85531F436A
:102CD00005F148035B01E7500123D4F81C2803FAEF
:102CE00005F51543C4F81C58BDE8F081174FB3E74C
:102CF000174FB1E704EB4613D3F8002B22F4004240
:102D0000C3F8002BD4F81C28012303FA0CF322EAA1
:102D10000303BAE704EB83030E4A5A6004EB46163A
:102D200029462046FFF75CFED6F8003923F400431D
:102D3000C6F80039D4F81C38012202FA05F523EA56
:102D40000505CFE700800010008004100080081007
:102D500000800C1000040002026F12684267FFF747
:102D600015BE00005831C36E49015B5813F4004092
:102D700004D013F4001F14BF01200220704700008C
:102D80004831C36E49015B5813F4004004D013F47A
:102D9000001F14BF012002207047000000EB8101DA
:102DA000CB68196A0B6813604B685360704700006A
:102DB00000EB810330B5DD68AA691368D36019B9E7
:102DC000402B84BF402313606B8A1468C26E1C447E
:102DD000013CB4FBF3F46343033323F0030302EB3E
:102DE000411043EAC44343F0C043C0F8103B2B6892
:102DF00003F00303012B09B20ED1D2F8083802EB1D
:102E0000411013F4807FD0F8003B14BF43F080538F
:102E100043F00053C0F8003B02EB4112D2F8003BF4
:102E200043F00443C2F8003B30BD00002DE9F041FF
:102E3000254DEE6E06EB40130446D3F8087BC3F82D
:102E4000087B38070AD5D6F81438190706D505EBDC
:102E500084032146DB6828465B689847FA0731D52A
:102E6000D6F81438DB072DD505EB8403D968DCB917
:102E70008B69488A5E68B6FBF0F200FB12629AB971
:102E80001868DA6890420FD2121A83E8140072B6FA
:102E9000202383F3118862B60B482146FFF788FF91
:102EA00084F31188BDE8F081012303FA04F26B89F1
:102EB00023EA02036B81CB6823B121460248BDE8B7
:102EC000F0411847BDE8F081442F012000EB810359
:102ED00070B5DD68C36E6C692668E6604A0156BB52
:102EE0001A444FF40020C2F810092A6802F00302C5
:102EF000012A0AB20ED1D3F8080803EB421410F4E9
:102F0000807FD4F8000914BF40F0805040F000509A
:102F1000C4F8000903EB4212D2F8000940F0044063
:102F2000C2F80009D3F83408012202FA01F1014382
:102F3000C3F8341870BD19B9402E84BF40202060FA
:102F400020682E8A841940F00050013C1A44B4FBDA
:102F5000F6F440EAC440C6E7F8B504461F48C56E1B
:102F600005EB4413D3F80869C3F80869F10719D5CC
:102F7000D5F81038DA0715D500EB8403D9684B690A
:102F80001F68DA6897421AD2D21B00271A605F6066
:102F900072B6202383F3118862B62146FFF796FFAD
:102FA00087F31188330617D5D5F834280123A340B9
:102FB000134211D02046BDE8F840FFF71BBD0123A6
:102FC00003FA04F2038923EA020303818B68002BCE
:102FD000E8D021469847E5E7F8BD00BF442F01201F
:102FE000A2482DE9F84FC56E6E69AB691E4016F414
:102FF000805F6E61044605D0FEF7D0FCBDE8F84F57
:10300000FFF738BC002E12DAD5F8003E97489B0730
:103010001EBFD5F8003E23F00303C5F8003ED5F8E7
:10302000043823F00103C5F80438FEF7E7FC370540
:1030300005D58E48FFF7AAFC8C48FEF7CFFCB004FC
:103040000CD5D5F8083813F0060FEB6823F470534D
:103050000CBF43F4105343F4A053EB60310704D585
:103060006368DB680BB181489847F2026FD4B30202
:103070000CD5D4F86C80DFF8F4A100274FF00109DB
:10308000236F9B68F9B28B4280F09C80F70619D5BC
:10309000E16E0A6AC2F30A1702F00F0302F4F0129B
:1030A000B2F5802F00F0B680B2F5402F0AD104EBC4
:1030B000830301F58051DB68186A00231A469F429A
:1030C00040F09C803303D5F818481DD5E70302D59E
:1030D0000020FFF7ABFEA50302D50120FFF7A6FEF7
:1030E000600302D50220FFF7A1FE210302D50320D1
:1030F000FFF79CFEE20202D50420FFF797FEA30231
:1031000002D50520FFF792FE77037FF577AFE6073C
:1031100002D50020FFF720FFA50702D50120FFF709
:103120001BFF600702D50220FFF716FF210702D51B
:103130000320FFF711FFE20602D50420FFF70CFF82
:10314000A3067FF55BAF0520FFF706FF56E7D4F82F
:103150006C80DFF818A100274FF00109236F9B68EE
:103160005FFA87FB5B4582D308EB4B13D3F800294A
:1031700002F44022B2F5802F22D1D3F80029002A90
:103180001EDAD3F8002942F09042C3F80029D3F8A0
:103190000029002AFBDB5946E06EFFF721FC22895B
:1031A00009FA0BF322EA0303238104EB8B03DB68A8
:1031B0009B6813B15946504698475846FFF71AFC8A
:1031C0000137CBE708EB4112D2F8003B03F4402370
:1031D000B3F5802F10D1D2F8003B002B0CDA6289B6
:1031E00009FA01F322EA0303638104EB8103DB683C
:1031F000DB680BB150469847013741E79C0708BF91
:103200000A68072B98BF027003F101039CBF120AE2
:10321000013054E7023304EB830201F58051526818
:1032200090690268D0F808C04068A2EB000E002246
:10323000104697420AD104EB830463689B699A683D
:103240003A449A605A6817445F603BE712F0030FF4
:1032500008BF0868964588BF8CF8000002F101029B
:1032600084BF000A0CF1010CE3E700BF442F0120EA
:10327000C36E03EB4111D1F8003B43F40013C1F8D6
:10328000003B7047C36E03EB4111D1F8003943F4A2
:103290000013C1F800397047C36E03EB4111D1F838
:1032A000003B23F40013C1F8003B7047C36E03EBEF
:1032B0004111D1F8003923F40013C1F800397047E7
:1032C00000F1604300F01F02400903F5614309016A
:1032D0008000C9B200F1604083F8001300F561403E
:1032E00001239340C0F880310360704772B62023F9
:1032F00083F3118862B6704730B5039C01720433C2
:1033000004FB0325C361049B03630021059B00604C
:103310004060C16042610261856104624262816213
:10332000C162436330BD00000022416A4161016116
:10333000C2608262C2626FF00101FEF7ADBE0000A2
:1033400003694269934203D1C2680AB10020704701
:10335000181D704703691960C2680132C260C269F2
:10336000134482690361934224BF436A03610021CD
:10337000FEF786BE38B504460D46E3683BB1626988
:10338000131D1268A3621344E362002038BD237A40
:1033900033B929462046FEF763FE0028EDDA38BD32
:1033A0006FF00100FBE70000C368C269013BC36026
:1033B0004369134482694361934224BF436A436172
:1033C00000238362036B03B11847704770B504464E
:1033D000FFF78CFF866A3EB9FFF7CCFF054618B1B0
:1033E00086F31188284670BDA36AE26A13F8015B70
:1033F000A362934202D32046FFF7D6FF002383F354
:103400001188EFE72DE9F04704460E461746984627
:10341000FFF76CFF0025A946D4F828A0BAF1000FE9
:1034200009D141462046FFF7A5FF20B18AF3118854
:103430002846BDE8F087A16AE36AA7EB050A5B1A94
:103440009A4528BF9A46BAF1400F1BD9334601F17D
:10345000400251F8040B43F8040B9142F9D1A36ADE
:1034600040334036A3624035A26AE36A9A4202D3EF
:103470002046FFF799FF89F31188BD42D8D2FFF7A4
:1034800035FFC9E730465246FDF760FCA36A534456
:103490005644A3625544E7E710B5029C0172043319
:1034A00003FB0421C36100238362C362039B0363A4
:1034B000049B00604060C4604261026181610462FB
:1034C0004262436310BD0000026AC260426A426108
:1034D000026100228262C2626FF00101FEF7DCBD70
:1034E000436902699A4203D1C2680AB10020704759
:1034F000184650F8043B0B6070470000C368C2696F
:103500000133C3604369134482694361934224BF1A
:10351000436A43610021FEF7B3BD000038B504469D
:103520000D46E3683BB123691A1DA262E2691344A8
:10353000E362002038BD237A33B929462046FEF7DE
:103540008FFD0028EDDA38BD6FF00100FBE70000C9
:1035500003691960C268013AC260C2691344826992
:103560000361934224BF436A036100238362036BB8
:1035700003B118477047000070B504460E46FFF7C8
:10358000B5FE856A35B91146FFF7C8FF10B185F35E
:10359000118870BDA36A1E70A36AE26A0133934268
:1035A000A36204D3E16920460439FFF7D1FF00206C
:1035B00080F3118870BD00002DE9F04704460D46E8
:1035C00090469946FFF792FE0026B246A76A4FB989
:1035D00049462046FFF7A2FF20B187F31188304605
:1035E000BDE8F087A06AE76AA8EB06033F1A9F428E
:1035F00028BF1F46402F1BD905F1400355F8042B67
:1036000040F8042B9D42F9D1A36A4033A3624036AF
:10361000A26AE36A9A4204D3E16920460439FFF7BB
:1036200097FF8AF311884645D9D2FFF75FFECDE7B1
:1036300029463A46FDF78AFBA36A3B443D44A36210
:103640003E44E5E7026943699A4203D1C3681BB966
:10365000184670470023FBE7836A002BF8D0043B31
:103660009B1AF5D01360C368013BC360C3691A4459
:10367000836902619A4224BF436A03610023836223
:103680000123E5E700F09EB84FF080430022586325
:103690001A610222DA6070474FF080430022DA603C
:1036A000704700004FF08043586370474FF08043ED
:1036B000586A70474B6843608B688360CB68C3600F
:1036C0000B6943614B6903628B6943620B6803605A
:1036D0007047000008B5274B27481A6940F2FF7170
:1036E0000A431A611A6922F4FF6222F007021A6182
:1036F0001A691A6B0A431A631A6D0A431A651F4A3C
:103700001B6D1146FFF7D6FF1D4802F11C01FFF7A4
:10371000D1FF1C4802F13801FFF7CCFF1A4802F133
:103720005401FFF7C7FF194802F17001FFF7C2FF0C
:10373000174802F18C01FFF7BDFF164802F1A801FE
:10374000FFF7B8FF144802F1C401FFF7B3FF1348B5
:1037500002F1E001FFF7AEFF114802F1FC01FFF7B3
:10376000A9FF104802F58C71FFF7A4FFBDE80840DF
:1037700000F09EB80038024000000240403E0008C1
:103780000004024000080240000C02400010024009
:103790000014024000180240001C024000200240B9
:1037A000002402400028024008B500F005FAFEF7A8
:1037B000D9FBFFF713F8BDE80840FEF7EBBD0000AA
:1037C000704700000F4B1A6C42F001021A641A6E27
:1037D00042F001021A660C4A1B6E936843F0010323
:1037E00093604FF080436B229A624FF0FF32DA62AF
:1037F00000229A615A63DA605A6001225A611A60A3
:10380000704700BF00380240002004E04FF08042C3
:1038100008B51369D1680B40D9B2C9439B07116140
:1038200009D572B6202383F3118862B6FEF7BAFB7E
:10383000002383F3118808BD1B4B1A696FEA4252BB
:103840006FEA52521A611A69C2F30A021A614FF002
:10385000FF301A695A69586100215A6959615A69D9
:103860001A6A62F080521A621A6A02F080521A6270
:103870001A6A5A6A58625A6A59625A6A0B4A106836
:1038800040F480701060186F00F44070B0F5007F55
:103890001EBF4FF4803018671967536823F4007314
:1038A000536000F061B900BF003802400070004072
:1038B000384B4FF080521A64374A4FF44041116040
:1038C0001A6842F001021A601A689207FCD59A68D9
:1038D00022F003029A602F4B19469A6812F00C02EC
:1038E000FBD1186800F0F90018609A601A6842F479
:1038F00080321A600B689B03FCD54B6F43F00103C9
:103900004B67244B5A6F9007FCD5244A5A601A68BB
:1039100042F080721A60204B1A4659684904FCD55F
:10392000196841F4803119605368D803FCD51368D5
:1039300043F400331360184A53689903FCD5154BC0
:103940001A689201FCD5164A9A6040F20112C3F837
:103950008C200022C3F89020124B40F207321A60EC
:103960001A6802F00F02072AFAD10A4B9A6842F04D
:1039700002029A609A6802F00C02082AFAD15A6C84
:1039800042F480425A645A6E42F480425A665B6E38
:10399000704700BF0038024000700040086C4009CA
:1039A00000948838003C0240074A08B5536903F088
:1039B0000103536123B1054A13680BB1506898475E
:1039C000BDE80840FEF756BF003C0140D42F01205F
:1039D000074A08B5536903F00203536123B1054A4E
:1039E00093680BB1D0689847BDE80840FEF742BF26
:1039F000003C0140D42F0120074A08B5536903F069
:103A00000403536123B1054A13690BB15069984708
:103A1000BDE80840FEF72EBF003C0140D42F012036
:103A2000074A08B5536903F00803536123B1054AF7
:103A300093690BB1D0699847BDE80840FEF71ABFFB
:103A4000003C0140D42F0120074A08B5536903F018
:103A50001003536123B1054A136A0BB1506A9847AA
:103A6000BDE80840FEF706BF003C0140D42F01200E
:103A7000164B10B55C6904F478725A61A30604D53C
:103A8000134A936A0BB1D06A9847600604D5104A6E
:103A9000136B0BB1506B9847210604D50C4A936BFE
:103AA0000BB1D06B9847E20504D5094A136C0BB1F2
:103AB000506C9847A30504D5054A936C0BB1D06CA4
:103AC0009847BDE81040FEF7D5BE00BF003C01405E
:103AD000D42F0120194B10B55C6904F47C425A6163
:103AE000620504D5164A136D0BB1506D9847230536
:103AF00004D5134A936D0BB1D06D9847E00404D5FB
:103B00000F4A136E0BB1506E9847A10404D50C4AAE
:103B1000936E0BB1D06E9847620404D5084A136FB8
:103B20000BB1506F9847230404D5054A936F0BB12E
:103B3000D06F9847BDE81040FEF79CBE003C0140A6
:103B4000D42F012008B50348FDF7C2FABDE80840AC
:103B5000FEF790BED423012008B5FFF757FEBDE85D
:103B60000840FEF787BE0000062108B50846FFF7AB
:103B7000A7FB06210720FFF7A3FB06210820FFF77C
:103B80009FFB06210920FFF79BFB06210A20FFF778
:103B900097FB06211720FFF793FB06212820FFF74C
:103BA0008FFB07211C20FFF78BFB0C212520BDE894
:103BB0000840FFF785BB000008B5FFF73DFE00F0A9
:103BC0000DF8FDF795FCFDF775FEFDF743FDFFF7DA
:103BD000F7FDBDE80840FFF755BD0000002304498C
:103BE0001A465A50C8180833802B4260F9D17047E2
:103BF000D42F0120034611F8012B03F8012B002AD2
:103C0000F9D170471210121312110000F827012089
:103C1000D423012053544D3332463F3F3F3F3F3F73
:103C20000053544D333246375B347C355D78005356
:103C3000544D333246375B367C375D7800000000E8
:103C400000960000000000000000000000000000DE
:103C5000000000000000000000000000B91400088F
:103C6000A5140008E1140008CD140008D9140008B8
:103C7000C5140008B11400089D140008ED140008D4
:103C800000000000CD150008B9150008F515000862
:103C9000E1150008ED150008D9150008C515000844
:103CA000B1150008511600080000000001000000D6
:103CB000000000006D61696E00000000D43C000847
:103CC00080260120F827012001000000611F000864
:103CD0000000000069646C65000000000200000044
:103CE00000000000F91700086118000840004000BB
:103CF000902C0120A02C01200200000000000000F8
:103D00000300000000000000A518000800000000EB
:103D100010000000B02C0120000000000100000095
:103D200000000000442F012001010200417264756F
:103D300050696C6F740025424F415244252D424C0E
:103D4000002553455249414C250000003923000805
:103D500055220008E9220008D12200084300000093
:103D6000643D000809024300020100C0320904005A
:103D700000010202010005240010010524010001D8
:103D8000042402020524060001070582030800FF3F
:103D900009040100020A00000007050102400000BA
:103DA000070581024000000012000000B03D00083D
:103DB00012011001020000400912415700020102E5
:103DC000030100000403090425424F415244250029
:103DD000466C79776F6F463734354E616E6F0030C1
:103DE0003132333435363738394142434445460061
:103DF00000800000008000000080000000800000C3
:103E000000000200000004000000040000000400A4
:103E100000000000111A0008E91C0008911D0008AC
:103E200040004000BC2F0120BC2F012001000000F9
:103E3000CC2F0120800000004001000005000000A0
:103E40000001A82A00000000AAAAAAAA00011400E2
:103E5000FFFF00000000000070A70A000000000142
:103E600000000000AAAAAAAA00000001FFFF0000AB
:103E7000000000000000000000000004000000003E
:103E8000AAAAAAAA00000000FFDF000000000000AC
:103E9000000000000000000000000000AAAAAAAA7A
:103EA00000000000FFFF0000000000000000000014
:103EB0000001000000000000AAAAAAAA0001000058
:103EC000FFFF0000000000000000000000000000F4
:103ED00000000000AAAAAAAA00000000FFFF00003C
:103EE00000000000000000000000000000000000D2
:103EF000AAAAAAAA00000000FFFF0000000000001C
:103F00000000000000000000000000000A000000A7
:103F1000000000000300000000000000000000009E
:103F20000000000000000000000000000000000091
:103F30000000000000000000000000000000000081
:103F40000000000000000000000000000000000071
:103F50000000000000000000000000000000000061
:103F60000000000000000000000000000000000051
:103F7000000000000000000012040000000000002B
:103F800000800E00FF00000000000000143C00084C
:103F90003F00000049040000213C00083F000000F1
:103FA000510400002F3C00083F0000000096000074
:103FB0000000080096000000000800000400000057
:103FC000C43D0008000000000000000000000000E8
:0C3FD000000000000000000000000000E5
:00000001FF
