:020000040800F2
:100000000006022001020008510F0008D10E00086E
:10001000290F0008D10E0008FD0E00080302000899
:10002000030200080302000803020008CD270008AD
:10003000030200080302000803020008030200088C
:10004000030200080302000803020008030200087C
:10005000030200080302000831390008593900087A
:1000600081390008A9390008D139000803020008C5
:10007000030200080302000803020008030200084C
:10008000030200080302000803020008030200083C
:10009000030200080302000803020008F9390008FF
:1000A000030200080302000803020008030200081C
:1000B000E13A0008030200080302000803020008F6
:1000C00003020008030200080302000803020008FC
:1000D00003020008030200080302000803020008EC
:1000E0005D3A00080302000803020008030200084A
:1000F00003020008030200080302000803020008CC
:1001000003020008030200080302000803020008BB
:1001100003020008030200080302000803020008AB
:10012000030200080302000803020008030200089B
:10013000030200080302000803020008030200088B
:10014000030200080302000803020008812F0008D0
:10015000030200080302000803020008030200086B
:10016000030200080302000803020008030200085B
:10017000030200080302000803020008030200084B
:100180000302000803020008CD3A00080302000839
:10019000030200080302000803020008030200082B
:1001A000030200080302000803020008030200081B
:1001B000030200080302000803020008030200080B
:1001C00003020008030200080302000803020008FB
:1001D00003020008030200080302000803020008EB
:1001E00003020008030200080302000803020008DB
:1001F00003020008030200080302000803020008CB
:1002000002E000F000F8FEE772B63A4880F3088892
:10021000394880F3098839484EF60851CEF200017A
:10022000086040F20000CCF200004EF63471CEF2CD
:1002300000010860BFF34F8FBFF36F8F40F20000E3
:10024000C0F2F0004EF68851CEF200010860BFF314
:100250004F8FBFF36F8F4FF00000E1EE100A4EF6A4
:100260003C71CEF200010860062080F31488BFF3D1
:100270006F8F02F069FB02F00BFB03F0FBF94FF00C
:1002800055301F491B4A91423CBF41F8040BFAE725
:100290001C49194A91423CBF41F8040BFAE71A493C
:1002A0001A4A1B4B9A423EBF51F8040B42F8040B0A
:1002B000F8E700201749184A91423CBF41F8040B67
:1002C000FAE702F023FB03F035FA144C144DAC426C
:1002D00003DA54F8041B8847F9E700F041F8114CA1
:1002E000114DAC4203DA54F8041B8847F9E702F0D9
:1002F0000BBB0000000602200022022000000008C4
:100300000000022000060220103F00080022022008
:1003100068220220682202207834022000020008AD
:100320000002000800020008000200082DE9F04F5A
:100330002DED108AC1F80CD0D0F80CD0BDEC108A8D
:10034000BDE8F08F002383F311882846A0470020E2
:1003500001F048FEFEE701F0C3FD00DFFEE700000C
:1003600038B500F0C1FC40B1174B6FF07F0100229F
:1003700059720E211A729972DA7202F0E7F9054683
:1003800002F01AFA0446D0B9104B9D4219D001333D
:100390009D4241F2883512BF044600250124002009
:1003A00002F0DEF90CB100F059F800F039FD00F070
:1003B000DBFB284600F0E0F800F050F8F9E70025F4
:1003C000EDE70546EBE700BF00220220010007B081
:1003D00008B500F095FBA0F120035842584108BD34
:1003E00007B541F21203022101A8ADF8043000F074
:1003F000A5FB03B05DF804FB202310B583F311883F
:100400001248C3680BB101F073FE0023104A4FF489
:100410007A710E4801F030FE002383F311880D4CF1
:10042000236813B12368013B2360636813B16368D9
:10043000013B6360084B1B7833B9636823B9022022
:1004400000F068FC3223636010BD00BF6822022008
:10045000F9030008842302207C220220F8B5404BD7
:10046000404A1C461968013179D004339342F9D1CE
:100470006268A24273D33C4B9B6803F1006303F5AF
:10048000C0339A426BD2002000F088FB0220374B29
:10049000187000F035FC364B00211A6C19641A6E86
:1004A00019661A6E5A6C59645A6E59665A6E5A69B0
:1004B00042F080025A615A6922F080025A615A69F8
:1004C0001A6942F000521A611A6922F000521A6148
:1004D0001B6972B64FF0E023C3F8084DD4E900045D
:1004E000BFF34F8FBFF36F8F224AC2F88410BFF360
:1004F0004F8F536923F480335361BFF34F8FD2F88A
:10050000803043F6E076C3F3C905C3F34E335B0195
:1005100003EA060C29464CEA81770139C2F8747265
:10052000F9D2203B13F1200FF2D1BFF34F8FBFF36D
:100530006F8FBFF34F8FBFF36F8F536923F4003377
:1005400053610023C2F85032BFF34F8FBFF36F8F58
:10055000202383F31188854680F308882047F8BD5F
:100560000080010820800108002202207C22022055
:100570000038024000ED00E02DE9F04F93B0A94BA8
:100580002022FF2100900AA89D6800F0F3FBA64AF4
:100590001378A3B90121A5481170C360202383F308
:1005A0001188C3680BB101F0A3FD0023A04A4FF4EA
:1005B0007A719E4801F060FD002383F31188009B4F
:1005C0009C4A03B1136000239B49009C98469B46BC
:1005D0001E469A460B705360012000F091FB24B137
:1005E000944B1B68002B00F01682002000F088FA64
:1005F0000390039B002BF2DB012000F077FB039BB1
:10060000213B162BE8D801A252F823F06906000816
:100610009106000825070008D9050008D90500083B
:10062000D9050008B90700088B090008A5080008CB
:10063000070900082F09000855090008D905000816
:1006400067090008D9050008D9090008090700084A
:10065000D90500081D0A00087506000809070008EA
:10066000D9050008070900080220FFF7B1FE00289D
:1006700040F0FB81009B022105A8B8F1000F08BFE4
:100680001C4641F21233ADF8143000F057FAA3E7DC
:100690004FF47A7000F034FA071EEBDB0220FFF70C
:1006A00097FE0028E6D0013F052F00F2E081DFE849
:1006B00007F0030A0D1013360523042105A805933E
:1006C00000F03CFA17E004215648F9E704215B48A2
:1006D000F6E704215A48F3E74FF01C09484609F1B0
:1006E000040900F05DFA0421059005A800F026FA3F
:1006F000B9F12C0FF2D101204FF0000A00FA07F7F0
:1007000047EA0B0B5FFA8BFB00F080FB26B10BF086
:100710000B030B2B08BF0024FFF762FE5CE70421EC
:100720004848CDE7002EA5D00BF00B030B2BA1D131
:100730000220FFF74DFE074600289BD001203E4EC9
:1007400000F02CFA4FF000080220307000F0D8FAC8
:100750005FFA88F9484600F031FA044690B14846FD
:1007600008F1010800F03AFA0028F1D1B846044631
:1007700041F21213022105A83E46ADF8143000F0F4
:10078000DDF929E7012325460220337000F0AEFA97
:10079000244B9B68AB4207D9284600F001FA013090
:1007A00040F068810435F3E70025234BB8463E4608
:1007B0001D70204B5D60A7E7002E3FF45BAF0BF090
:1007C0000B030B2B7FF456AF02201B4B187000F06D
:1007D00097FA322000F094F9B0F10009FFF64AAF21
:1007E00019F003077FF446AF0E4A09EB0503926840
:1007F00093423FF63FAFB9F5807F3FF73BAF124BD7
:10080000B945019322DD4FF47A7000F079F9039035
:10081000039A002AFFF62EAF039A0137019B03F8D3
:10082000012BEDE700220220802302206822022013
:10083000F9030008842302207C22022004220220E3
:10084000082202200C22022080220220C820FFF76A
:10085000BFFD074600283FF40DAF1F2D11D8C5F18D
:1008600020020AAB25F0030084494A45184428BFFA
:100870004A46019200F058FA019AFF217F4800F0A1
:1008800079FA4FEAA903C9F387027C492846019304
:1008900000F078FA064600283FF46AAF019B05EBAA
:1008A000830531E70220FFF793FD00283FF4E2AE15
:1008B00000F0BEF900283FF4DDAE0027B946704BCA
:1008C0009B68BB4218D91F2F11D80A9B01330ED049
:1008D00027F0030312AA134453F8203C059348461B
:1008E000042205A9043700F035FB8146E7E73846C6
:1008F00000F056F90590F2E7CDF81490042105A810
:1009000000F01CF900E70023642104A8049300F020
:100910000BF900287FF4AEAE0220FFF759FD002846
:100920003FF4A8AE049800F06BF90590E6E70023C9
:10093000642104A8049300F0F7F800287FF49AAE2D
:100940000220FFF745FD00283FF494AE049800F024
:1009500067F9EAE70220FFF73BFD00283FF48AAE83
:1009600000F076F9E1E70220FFF732FD00283FF4BE
:1009700081AE05A9142000F071F907460421049006
:1009800004A800F0DBF83946B9E7322000F0B8F8E7
:10099000071EFFF66FAEBB077FF46CAE384A07EB5D
:1009A0000A03926893423FF665AE0220FFF710FDFE
:1009B00000283FF45FAE27F003075744BA453FF4E1
:1009C000A3AE50460AF1040A00F0EAF804210590AB
:1009D00005A800F0B3F8F1E74FF47A70FFF7F8FCE0
:1009E00000283FF447AE00F023F9002844D00A9BCA
:1009F00001330BD008220AA9002000F0C3F9002817
:100A00003AD02022FF210AA800F0B4F9FFF7E8FC51
:100A10001C4801F0EDFA13B0BDE8F08F002E3FF452
:100A200029AE0BF00B030B2B7FF424AE00236421C3
:100A300005A8059300F078F8074600287FF41AAE61
:100A40000220FFF7C5FC814600283FF413AEFFF7F4
:100A5000C7FC41F2883001F0CBFA059800F018FA93
:100A60004E463C4600F0D2F9B6E506464CE64FF05D
:100A7000000AFFE5B8467BE6374679E68022022089
:100A800000220220A0860100F7B50C46184E4FF454
:100A90007A71054602FB01F396F90020501C0BD138
:100AA0001448294601930268176A2246B8478442CF
:100AB000019B03D1002310E0002AF1D096F9002019
:100AC000511C01D0012A0DD10B4829460268166A33
:100AD0002246B047844205D10123084A0120137001
:100AE00003B0F0BD4FF4FA7001F082FA0020F7E78E
:100AF00010220220F8270220D4230220D023022033
:100B0000002307B5024601210DF107008DF80730DB
:100B1000FFF7BAFF20B19DF8070003B05DF804FBB2
:100B20004FF0FF30F9E700000A46042108B5FFF74F
:100B3000ABFF80F00100C0B2404208BD074B0A463F
:100B400030B41978064B53F82140014623682046FB
:100B5000DD69044BAC4630BC604700BFD0230220A7
:100B6000BC3B0008A086010070B50A4E00240A4D67
:100B700001F0DEFC308028683388834208D901F018
:100B8000D1FC2B6804440133B4F5C03F2B60F2D391
:100B900070BD00BFD22302208C23022001F08ABD49
:100BA00000F1006000F5C0300068704700F100609F
:100BB000920000F5C03001F009BD0000054B1A6835
:100BC000054B1B889B1A834202D9104401F0AABC32
:100BD000002070478C230220D223022038B5074D15
:100BE00004462868204401F0A5FC28B92868204460
:100BF000BDE8384001F0B6BC38BD00BF8C230220F0
:100C000010F0030309D1B0F5846F04D200F1005055
:100C1000A0F571200368184670470023FBE7000029
:100C200000F10050A0F57120D0F8200470470000BA
:100C3000064991F8243033B100230822086A81F86C
:100C40002430FFF7B3BF0120704700BF902302207C
:100C5000014B1868704700BF002004E0204B02469B
:100C6000F0B518681F4BC0F30B06000C1F885D68B9
:100C7000BE4293F9084022D09F89BE4221D01F8BEB
:100C8000BE4206D102240C2505FB04335D6893F9AE
:100C90000840B0F5805F16D041F20103984208BFCA
:100CA0005A24013A013D0B460A4493420DD215F9EC
:100CB000016F581C5EB1034600F8016CF5E7002493
:100CC000E1E70124DFE74124EBE7184605E02C25A6
:100CD00090421D7001D2981C5C70401AF0BD00BF9C
:100CE000002004E01422022000207047022803D1D3
:100CF000024B4FF080629A61704700BF000C0240C7
:100D0000022803D1024B4FF480629A61704700BF02
:100D1000000C0240022804D1024A536983F4806324
:100D200053617047000C0240002310B5934203D07A
:100D3000CC5CC4540133F9E710BD0000013810B594
:100D400010F9013F3BB191F900409C4203D11AB127
:100D50000131013AF4E71AB191F90020981A10BD57
:100D60001046FCE703460246D01A12F9011B00297F
:100D7000FAD1704702440346934202D003F8011BA4
:100D8000FAE770472DE9F8431F4D14460746884699
:100D900095F8242052BBDFF870909CB395F824306E
:100DA0002BB92022FF2148462F62FFF7E3FF95F879
:100DB00024004146C0F1080205EB8000A24228BF92
:100DC0002246D6B29200FFF7AFFF95F82430A41B5D
:100DD00017441E449044E4B2F6B2082E85F824600D
:100DE000DBD1FFF725FF0028D7D108E02B6A03EB02
:100DF00082038342CFD0FFF71BFF0028CBD1002016
:100E0000BDE8F8830120FBE790230220024B1A780B
:100E1000024B1A70704700BFD0230220102202201C
:100E200038B5154C154D204600F0F0FB29462046FC
:100E300000F018FC2D681248EA6ED2F8043843F02E
:100E40000203C2F8043801F0D3F80E49284600F036
:100E500011FDEA6E0C48D2F804380C49A04223F088
:100E60000203C2F804384FF4E1330B6003D0BDE84D
:100E7000384000F02BBB38BDF8270220C83C0008E2
:100E800040420F00D03C0008D4230220B8230220A7
:100E900038B50B4B04461A780A4B53F822500A4BCC
:100EA0009D420CD0094B002118221846FFF762FF23
:100EB000046001462846BDE8384000F007BB38BD55
:100EC000D0230220BC3B0008F8270220B8230220D0
:100ED00000B59BB0EFF3098168226846FFF724FF55
:100EE000EFF30583044B9A6BDA6A9A6A9A6A9A6AF4
:100EF0009A6A9A6A9B6AFEE700ED00E000B59BB033
:100F0000EFF3098168226846FFF70EFFEFF30583D0
:100F1000044B9A6B9A6A9A6A9A6A9A6A9A6A9B6A64
:100F2000FEE700BF00ED00E000B59BB0EFF30981E4
:100F300068226846FFF7F8FEEFF30583034B5A6B10
:100F40009A6A9A6A9A6A9A6A9B6AFEE700ED00E0DA
:100F5000FEE7000030B50A44084D91420DD011F86B
:100F6000013B5840082340F30004013B2C4013F0A0
:100F7000FF0384EA5000F6D1EFE730BD2083B8EDDF
:100F8000026843681143016003B1184770470000CD
:100F9000024A136843F0C0031360704700780040B2
:100FA00013B50E4C204600F085FA04F1140000231E
:100FB0004FF480720A49009400F046F9094B4FF44F
:100FC0008072094904F13800009400F0BFF9074A23
:100FD000074BC4E9172302B010BD00BFD423022081
:100FE00040240220910F0008402502200078004094
:100FF00080F93703037C30B5214C002918BF0C461B
:10100000012B0CD11F4B984209D11F4B1A6C42F097
:1010100080421A641A6E42F080421A661B6E226881
:10102000036EC16D03EB52038466B3FBF2F3626897
:10103000150442BF23F0070503F0070343EA450305
:10104000CB60A36843F040034B60E36843F00103C7
:101050008B6042F4967343F001030B604FF0FF3353
:101060000B62510505D512F0102205D0B2F1805F58
:1010700004D080F8643030BD7F23FAE73F23F8E7DF
:10108000C43B0008D4230220003802402DE9F04779
:10109000C66D05463768F4692107346219D014F02B
:1010A000080118BF8021E20748BF41F02001A307D3
:1010B0004FF0200348BF41F04001600748BF41F4B2
:1010C000807183F31188281DFFF75AFF002383F3F3
:1010D0001188E2050AD5202383F311884FF40071AB
:1010E000281DFFF74DFF002383F311884FF02009DF
:1010F0004FF0000A14F0200838D13B0616D54FF007
:10110000200905F1380A200610D589F311885046C8
:1011100000F050F9002836DA0821281DFFF730FFCB
:1011200027F080033360002383F31188790614D5F8
:10113000620612D5202383F31188D5E913239A423E
:1011400008D12B6C33B127F040071021281DFFF781
:1011500017FF3760002383F31188E30618D5AA6EC2
:101160001369ABB15069BDE8F047184789F311889E
:10117000736A284695F86410194000F0B5F98AF3AF
:101180001188F469B6E7B06288F31188F469BAE7A8
:10119000BDE8F087F8B51546826804460B46AA42BA
:1011A00000D28568A1692669761AB5420BD2184625
:1011B0002A46FFF7B9FDA3692B44A3612846A3681B
:1011C0005B1BA360F8BD0CD9AF1B18463246FFF776
:1011D000ABFD3A46E1683044FFF7A6FDE3683B44C7
:1011E000EBE718462A46FFF79FFDE368E5E70000B6
:1011F00083689342F7B50446154600D28568D4E962
:101200000460361AB5420BD22A46FFF78DFD63699A
:101210002B4463612846A3685B1BA36003B0F0BD49
:101220000DD93246AF1B0191FFF77EFD01993A4679
:10123000E0683144FFF778FDE3683B44E9E72A467C
:10124000FFF772FDE368E4E710B50A440024C361C8
:10125000029B8460C16002610362C0E90000C0E9D2
:10126000051110BD08B5D0E90532934201D182685D
:1012700082B98268013282605A1C42611970002171
:10128000D0E904329A4224BFC368436100F0CCFE27
:10129000002008BD4FF0FF30FBE7000070B52023B1
:1012A00004460E4683F31188A568A5B1A368A26918
:1012B000013BA360531CA36115782269934224BFAC
:1012C000E368A361E3690BB120469847002383F3E9
:1012D0001188284607E03146204600F095FE002898
:1012E000E2DA85F3118870BD2DE9F74F04460E460A
:1012F00017469846D0F81C904FF0200A8AF31188C0
:101300004FF0000B154665B12A4631462046FFF7DF
:1013100041FF034660B94146204600F075FE0028B3
:10132000F1D0002383F31188781B03B0BDE8F08F60
:10133000B9F1000F03D001902046C847019B8BF301
:101340001188ED1A1E448AF31188DCE7C160C3617D
:10135000009B82600362C0E905111144C0E90000EE
:1013600001617047F8B504460D461646202383F305
:101370001188A768A7B1A368013BA36063695A1CE1
:1013800062611D70D4E904329A4224BFE36863614C
:10139000E3690BB120469847002080F3118807E0ED
:1013A0003146204600F030FE0028E2DA87F311884B
:1013B000F8BD0000D0E9052310B59A4201D182683A
:1013C0007AB982680021013282605A1C82611C78DD
:1013D00003699A4224BFC368836100F025FE20465A
:1013E00010BD4FF0FF30FBE72DE9F74F04460E46E6
:1013F00017469846D0F81C904FF0200A8AF31188BF
:101400004FF0000B154665B12A4631462046FFF7DE
:10141000EFFE034660B94146204600F0F5FD002886
:10142000F1D0002383F31188781B03B0BDE8F08F5F
:10143000B9F1000F03D001902046C847019B8BF300
:101440001188ED1A1E448AF31188DCE702684368AC
:101450001143016003B11847704700001430FFF7D3
:1014600043BF00004FF0FF331430FFF73DBF0000D3
:101470003830FFF7B9BF00004FF0FF333830FFF7C7
:10148000B3BF00001430FFF709BF00004FF0FF3179
:101490001430FFF703BF00003830FFF763BF0000D0
:1014A0004FF0FF323830FFF75DBF0000002070477B
:1014B000FFF776BD044B036000234360C0E90233AD
:1014C00001230374704700BFDC3B000810B52023E4
:1014D000044683F31188FFF78DFD02232374002354
:1014E00083F3118810BD000038B5C36904460D466A
:1014F0001BB904210844FFF7A9FF294604F1140091
:10150000FFF7B0FE002806DA201D4FF48061BDE829
:101510003840FFF79BBF38BD026843681143016044
:1015200003B118477047000013B5446BD4F8A438D2
:101530001A681178042915D1217C022912D1197950
:10154000012312898B4013420CD101A904F14C00F4
:1015500001F096FFD4F8A4480246019B2179206847
:1015600000F0D4F902B010BD143001F019BF000032
:101570004FF0FF33143001F013BF00004C3001F086
:10158000EBBF00004FF0FF334C3001F0E5BF00002F
:10159000143001F0E7BE00004FF0FF31143001F0CD
:1015A000E1BE00004C3001F0B7BF00004FF0FF3249
:1015B0004C3001F0B1BF000000207047D0F8A438D3
:1015C0001A6810B511780446042917D1017C022944
:1015D00014D15979012352898B4013420ED1143012
:1015E00001F07AFE024648B1D4F8A4484FF4807363
:1015F00061792068BDE8104000F076B910BD0000A8
:10160000406BFFF7DBBF0000704700007FB5124B57
:1016100001250426044603600023057400F18402BA
:1016200043602946C0E902330C4B02901430019309
:101630004FF48073009601F02BFE094B04F29442A4
:10164000294604F14C000294CDE900634FF4807305
:1016500001F0F2FE04B070BD043C00080116000861
:10166000291500080B68202282F311880A7903EB00
:10167000820210624A790D3243F822008A7912B14F
:1016800003EB820318620223C0F8A418037400233A
:1016900083F311887047000038B5037F044613B107
:1016A00090F85430ABB90125201D0221FFF734FF1B
:1016B00004F114006FF00101257700F0C1FC04F182
:1016C0004C0084F854506FF00101BDE8384000F040
:1016D000B7BC38BD10B5012104460430FFF71CFF2C
:1016E0000023237784F8543010BD000038B5044639
:1016F0000025143001F0E4FD04F14C00257701F0E1
:10170000B3FE201D84F854500121FFF705FF204649
:10171000BDE83840FFF752BF90F85C3003F060033B
:10172000202B06D190F85D200023212A03D81F2A00
:1017300006D800207047222AFBD1C0E9143303E009
:10174000034A02650722426583650120704700BF96
:1017500038220220D0F8A43837B51A680446117828
:1017600004291AD1017C022917D119790123128980
:101770008B40134211D100F14C05284601F034FF93
:1017800058B101A9284601F07BFED4F8A4480246CE
:10179000019B2179206800F0B9F803B030BD00004A
:1017A00000EB8103F0B51E6A85B004460D46FEB11C
:1017B000202383F3118804EB8507301D0821FFF7F0
:1017C000ABFEFB6806F14C005B691B681BB1019026
:1017D00001F064FE019803A901F052FE024648B1EF
:1017E000039B2946204600F091F8002383F31188DB
:1017F00005B0F0BDFB685A691268002AF5D01B8A53
:10180000013B1340F1D104F15C02EAE70D3138B538
:1018100050F82140DCB1202383F31188D4F8A428A8
:101820001368527903EB8203DB689B695D6845B1FD
:1018300004216018FFF770FE294604F1140001F03E
:1018400055FD2046FFF7BAFE002383F3118838BD0B
:101850007047000001F0EEB801232822002110B5E6
:10186000044600F8243BFFF785FA0023C4E901335E
:1018700010BD000038B50446202383F311880025ED
:101880004160C0E90355C0E90555C0E9075501F0BD
:10189000E1F80223237085F3118838BD70B500EBA1
:1018A0008103054650690E461446DA6018B11022CD
:1018B0000021FFF75FFAA06918B110220021FFF79D
:1018C00059FA31462846BDE8704001F08DB9000054
:1018D000826802F0011282600022C0E90422C0E99D
:1018E0000622026201F00CBAF0B4012500EB81047B
:1018F00047898D40E4683D43A46945812360002306
:10190000A2606360F0BC01F027BA0000F0B40125CA
:1019100000EB810407898D40E4683D4364690581DB
:1019200023600023A2606360F0BC01F0A1BA000054
:1019300070B502230025044603704566056280F8F1
:101940004C50C0E90255C0E90455C0E9065501F004
:10195000E7F863681B6823B129462046BDE870405C
:10196000184770BD037880F868300523037043681A
:101970001B6810B504460BB1042198470023A360EF
:1019800010BD000090F86820436802701B680BB11E
:10199000052118477047000070B590F84C30044698
:1019A00013B1002380F84C3004F15C02204601F0B2
:1019B000C9F963689B68B3B994F85C3013F06005AB
:1019C00035D00021204601F02FFC0021204601F0F7
:1019D00021FC63681B6813B1062120469847062343
:1019E00084F84C3070BD204698470028E4D0B4F805
:1019F0006230626D9A4288BF636594F95C30656DB0
:101A0000002B4FF0200380F20381002D00F0F280C4
:101A1000092284F84C2083F3118800212046D4E960
:101A20001423FFF773FF002383F31188DAE794F898
:101A30005D2003F07F0343EA022340F20232934227
:101A400000F0C58021D8B3F5807F48D00DD8012B98
:101A50003FD0022B00F09380002BB2D104F164023E
:101A6000226502226265A365C1E7B3F5817F00F0BC
:101A70009B80B3F5407FA4D194F85E30012BA0D1B8
:101A8000B4F8643043F0020332E0B3F5006F4DD098
:101A900017D8B3F5A06F31D0A3F5C063012B90D850
:101AA0006368204694F85E205E6894F85F10B4F88E
:101AB0006030B047002884D04368236503686365BD
:101AC0001AE0B3F5106F36D040F6024293427FF42D
:101AD00078AF5C4B2365022363650023C3E794F86A
:101AE0005E30012B7FF46DAFB4F8643023F0020355
:101AF000A4F86430C4E91455A56578E7B4F85C30FF
:101B0000B3F5A06F0ED194F85E30204684F86630AD
:101B100001F05EF863681B6813B101212046984705
:101B2000032323700023C4E914339CE704F1670303
:101B300023650123C3E72378042B10D1202383F3EB
:101B400011882046FFF7C4FE85F3118803216368DE
:101B500084F8675021701B680BB12046984794F8B1
:101B60005E30002BDED084F8673004232370636876
:101B70001B68002BD6D0022120469847D2E794F864
:101B8000603020461D0603F00F010AD501F0CCF8A5
:101B9000012804D002287FF414AF2B4B9AE72B4B7B
:101BA00098E701F0B3F8F3E794F85E30002B7FF488
:101BB00008AF94F8603013F00F01B3D01A06204636
:101BC00002D501F045FBADE701F038FBAAE794F838
:101BD0005E30002B7FF4F5AE94F8603013F00F0107
:101BE000A0D01B06204602D501F01EFB9AE701F0AB
:101BF00011FB97E7142284F84C2083F311882B46BD
:101C00002A4629462046FFF76FFE85F31188E9E64C
:101C10005DB1152284F84C2083F311880021204601
:101C2000D4E91423FFF760FEFDE60B2284F84C2074
:101C300083F311882B462A4629462046FFF766FE85
:101C4000E3E700BF343C00082C3C0008303C0008AF
:101C500038B590F84C300446002B3ED0063BDAB243
:101C60000F2A34D80F2B32D8DFE803F03731310890
:101C7000223231313131313131313737456DB0F8C0
:101C800062309D4214D2C3681B8AB5FBF3F203FB9A
:101C900012556DB9202383F311882B462A46294615
:101CA000FFF734FE85F311880A2384F84C300EE0E8
:101CB000142384F84C30202383F31188002320461A
:101CC0001A461946FFF710FE002383F3118838BD2A
:101CD000836D03B198470023E7E70021204601F018
:101CE000A3FA0021204601F095FA63681B6813B13E
:101CF0000621204698470623D7E7000010B590F844
:101D00004C300446142B29D017D8062B05D001D807
:101D10001BB110BD093B022BFBD80021204601F06E
:101D200083FA0021204601F075FA63681B6813B13D
:101D3000062120469847062319E0152BE9D10B23ED
:101D400080F84C30202383F3118800231A4619466B
:101D5000FFF7DCFD002383F31188DAE7C3689B6992
:101D60005B68002BD5D1836D03B19847002384F8BD
:101D70004C30CEE7024B0022C3E900339A60704733
:101D800040260220002382680374054B1B68996873
:101D90009142FBD25A6803604260106058607047FD
:101DA0004026022008B5202383F31188037C032BEF
:101DB00005D0042B0DD02BB983F3118808BD4369DE
:101DC00000221A604FF0FF334361FFF7DBFF00236F
:101DD000F2E7D0E9003213605A60F3E7002382682B
:101DE0000374054B1B6899689142FBD85A680360DD
:101DF000426010605860704740260220054B196908
:101E000008741868026853601A601861012303742B
:101E1000FEF78CBA402602204B1C30B5044687B032
:101E20000A4D10D02B6901A8094A00F025F9204677
:101E3000FFF7E4FF049B13B101A800F059F92B69E7
:101E4000586907B030BDFFF7D9FFF8E740260220F8
:101E5000A51D000838B50C4D044641612B69816809
:101E60009A68914203D8BDE83840FFF78BBF184607
:101E7000FFF7B4FF01232C61014623742046BDE81F
:101E80003840FEF753BA00BF40260220044B1A68C0
:101E90001B6990689B68984294BF0020012070479E
:101EA0004026022010B5084C236820691A68546047
:101EB0002260012223611A74FFF790FF0146206916
:101EC000BDE81040FEF732BA4026022008B5FFF701
:101ED000DDFF18B1BDE80840FFF7E4BF08BD000012
:101EE000FFF7E0BFFEE7000010B50C4CFFF742FF24
:101EF00000F0B4F880220A49204600F03BF80123A4
:101F000044F8180C037400F071FC002383F311886B
:101F100062B60448BDE8104000F04CB868260220C4
:101F2000383C0008483C000800F01CB9EFF3118071
:101F300020B9EFF30583202282F311887047000057
:101F400010B530B9EFF30584C4F3080414B180F37D
:101F5000118810BDFFF7BAFF84F31188F9E700007C
:101F6000034A516853685B1A9842FBD8704700BF18
:101F7000001000E082600222028270478368A3F1B1
:101F80007C0243F80C2C026943F83C2C426943F86C
:101F9000382C074A43F81C2CC268A3F1180043F8F8
:101FA000102C022203F8082C002203F8072C70479B
:101FB0004503000810B5202383F31188FFF7DEFFE7
:101FC00000210446FFF746FF002383F311882046D3
:101FD00010BD0000024B1B6958610F20FFF70EBFB8
:101FE00040260220202383F31188FFF7F3BF00006F
:101FF00008B50146202383F311880820FFF70CFF62
:10200000002383F3118808BD49B1064B42681B6960
:1020100018605A60136043600420FFF7FDBE4FF064
:10202000FF307047402602200368984206D01A68A5
:102030000260506018465961FFF7A4BE7047000067
:1020400038B504460D462068844200D138BD036887
:1020500023605C604561FFF795FEF4E7054B4FF0A8
:10206000FF3103F11402C3E905220022C3E907127C
:10207000704700BF4026022070B51C4E05460C4636
:10208000C0E9032301F0E2FA334653F8142F9A42D1
:102090000DD130620A2C2CBF00190A302A60C5E924
:1020A0000124C6E90555BDE8704001F0BDBA316AAA
:1020B000431AE31838BF1C469368A34202D9081993
:1020C00001F0C0FA73699A6894420CD85A68AC60FF
:1020D0002B606A6015609A685D60121B9A604FF011
:1020E000FF33F36170BDA41A1B68ECE740260220A1
:1020F00038B51B4C636998420DD08168D0E9003235
:1021000013605A600022C2609A680A449A604FF0D5
:10211000FF33E36138BD03682246002142F8143FD3
:1021200093425A60C16003D1BDE8384001F084BADF
:102130009A688168256A0A449A6001F087FA63699F
:10214000411B9A688A42E5D9AB181D1A206A092DED
:1021500098BF01F10A02BDE83840104401F072BA9C
:10216000402602202DE9F041184C002704F1140606
:10217000656901F06BFA236AAA68C11A8A4215D808
:102180001344D5F80C802362D5E9003213605A60FD
:102190006369EF60B34201D101F04EFA87F3118811
:1021A0002869C047202383F31188E1E76169B142C0
:1021B00009D013441B1ABDE8F0410A2B2CBFC018EC
:1021C0000A3001F03FBABDE8F08100BF402602208E
:1021D00000207047FEE70000704700004FF0FF301E
:1021E0007047000002290CD0032904D001290748B8
:1021F00018BF00207047032A05D8054800EBC2002D
:102200007047044870470020704700BF2C3D00080D
:1022100048220220E03C000870B59AB00546084606
:10222000144601A900F0C2F801A8FEF79BFD431C6B
:102230000022C6B25B001046C5E9003423700323B8
:10224000023404F8013C01ABD1B202348E4201D811
:102250001AB070BD13F8011B013204F8010C04F828
:10226000021CF1E708B5202383F311880348FFF728
:1022700071FA002383F3118808BD00BFF8270220FC
:1022800090F85C3003F01F02012A07D190F85D201E
:102290000B2A03D10023C0E9143315E003F06003D7
:1022A000202B08D1B0F860302BB990F85D20212A9E
:1022B00003D81F2A04D8FFF72FBA222AEBD0FAE757
:1022C000034A02650722426583650120704700BF0B
:1022D0003F22022007B5052917D8DFE801F01916BB
:1022E00003191920202383F31188104A012101903A
:1022F000FFF7D4FA019802210D4AFFF7CFFA0D48F3
:10230000FFF7F4F9002383F3118803B05DF804FBB1
:10231000202383F311880748FFF7BEF9F2E7202353
:1023200083F311880348FFF7D5F9EBE7803C0008F9
:10233000A43C0008F827022038B50C4D0C4C2A4666
:102340000C4904F10800FFF767FF05F1CA0204F128
:1023500010000949FFF760FF05F5CA7204F1180083
:102360000649BDE83840FFF757BF00BFD030022014
:1023700048220220603C00086A3C0008753C0008C6
:1023800070B5044608460D46FEF7ECFCC6B2204682
:10239000013403780BB9184670BD32462946FEF762
:1023A000CDFC0028F3D10120F6E700002DE9F0472D
:1023B00005460C46FEF7D6FC2B49C6B22846FFF769
:1023C000DFFF08B10E36F6B228492846FFF7D8FFDE
:1023D00008B11036F6B2632E0BD8DFF88C80DFF828
:1023E0008C90234FDFF894A02E7846B92670BDE874
:1023F000F08729462046BDE8F04701F0C1BB252EF5
:102400002ED1072241462846FEF798FC70B9194B99
:10241000224603F1140153F8040B8B4242F8040BDB
:10242000F9D11B78073515341370DDE708224946CA
:102430002846FEF783FC98B9A21C0F4B197802328C
:102440000909C95D02F8041C13F8011B01F00F0112
:102450005345C95D02F8031CF0D118340835C3E7B1
:10246000013504F8016BBFE74C3D0008753C0008DE
:102470006A3D0008543D000820F4F01F2CF4F01FC2
:10248000BFF34F8F024AD368DB03FCD4704700BF11
:10249000003C024008B5074B1B7853B9FFF7F0FF2B
:1024A000054B1A69002A04DA044A5A6002F188329C
:1024B0005A6008BD2E330220003C024023016745CC
:1024C00008B5054B1B7833B9FFF7DAFF034A1369E8
:1024D00043F00043136108BD2E330220003C02404C
:1024E0000B28F0B516D80C4C0C4923787BB90E4656
:1024F0000B4D0C234FF00062013B55F8047B46F86E
:10250000042B13F0FF033A44F6D10123237051F852
:102510002000F0BD0020FCE76033022030330220B1
:102520007C3D0008014B53F8200070477C3D0008BB
:102530000C2070470B2810B5044601D9002010BDAF
:10254000FFF7CEFF064B53F824301844C21A0BB9DC
:102550000120F4E712680132F0D1043BF6E700BF36
:102560007C3D00080B2838B5044628D8FFF7DEFC70
:102570000546FFF785FF2046FFF78CFF114AF3233E
:10258000D360E300DBB243F4007343F00203136152
:10259000136943F480331361FFF772FFFFF7A0FF65
:1025A000094B53F8241000F0E9F82846FFF788FF9C
:1025B000FFF7C6FC2046BDE83840FFF7BBBF002050
:1025C00038BD00BF003C02407C3D000812F0010312
:1025D0002DE9F04105460E4614464BD18218B2F162
:1025E000026F61D8314B1B6813F001035CD0FFF719
:1025F0009DFC2F4FFFF74EFFF323314640F2012899
:10260000FB60FFF73DFF032C18D824F001046D1A7E
:10261000274E40F201180C44A14205EB0107336933
:102620002AD123F001033361FFF74AFFFFF788FC4B
:102630000120BDE8F081043C0435E4E7AB07E4D1B8
:102640003B6923F440733B613B6943EA08033B6108
:1026500051F8046B2E60BFF34F8FFFF711FF2B680B
:102660009E42E8D03B6923F001033B61FFF728FF5E
:10267000FFF766FC0020DCE723F440733361336925
:1026800043EA080333610B883B80BFF34F8FFFF7AA
:10269000F7FE3F88BFB231F8023BBB42BCD0336982
:1026A00023F001033361E1E71846C2E70038024036
:1026B000003C0240084908B50B7828B11BB9FFF768
:1026C000E9FE01230B7008BD002BFCD00870BDE8AB
:1026D0000840FFF7F5BE00BF2E3302200244074B2F
:1026E000D2B210B5904200D110BD441C00B253F8D4
:1026F000200041F8040BE0B2F4E700BF502800408E
:102700000F4B30B51C6F240407D41C6F44F40074C5
:102710001C671C6F44F400441C670A4C0244236885
:10272000D2B243F480732360074B904200D130BD96
:10273000441C51F8045B00B243F82050E0B2F4E7C7
:1027400000380240007000405028004007B50122C8
:1027500001A90020FFF7C2FF019803B05DF804FB58
:1027600013B50446FFF7F2FFA04205D0012201A9EC
:1027700000200194FFF7C4FF02B010BD0144BFF375
:102780004F8F064B884204D3BFF34F8FBFF36F8F39
:102790007047C3F85C022030F4E700BF00ED00E0B2
:1027A000034B1A681AB9034AD2F874281A607047A2
:1027B000643302200030024008B5FFF7F1FF024BFE
:1027C0001868C0F3407008BD64330220EFF309833A
:1027D000054968334A6B22F001024A6383F3098892
:1027E000002383F31188704700EF00E0202080F37E
:1027F000118862B60D4B0E4AD96821F4E0610904D4
:10280000090C0A430B49DA60D3F8FC2042F08072CD
:10281000C3F8FC20084AC2F8B01F116841F001015A
:1028200011601022DA7783F82200704700ED00E093
:102830000003FA0555CEACC5001000E0202310B50A
:1028400083F311880E4B5B6813F4006314D0F1EE30
:10285000103AEFF309844FF08073683CE361094B51
:10286000DB6B236684F30988FFF710FB10B1064B7E
:10287000A36110BD054BFBE783F31188F9E700BFA7
:1028800000ED00E000EF00E0570300085A030008E5
:1028900070B5BFF34F8FBFF36F8F1A4A0021C2F894
:1028A0005012BFF34F8FBFF36F8F536943F4003360
:1028B0005361BFF34F8FBFF36F8FC2F88410BFF324
:1028C0004F8FD2F8803043F6E074C3F3C900C3F3EE
:1028D0004E335B0103EA0406014646EA817501397D
:1028E000C2F86052F9D2203B13F1200FF2D1BFF3AE
:1028F0004F8F536943F480335361BFF34F8FBFF35E
:102900006F8F70BD00ED00E0FEE700000A4B0B4842
:102910000B4A90420BD30B4BC11EDA1C121A22F049
:1029200003028B4238BF00220021FEF723BA53F87E
:10293000041B40F8041BECE7783F000878340220C1
:1029400078340220783402207047000070B5D0E956
:102950001B4300224FF0FF359E6804EB42135101E8
:10296000D3F80009002805DAD3F8000940F08040C8
:10297000C3F80009D3F8000B002805DAD3F8000BE0
:1029800040F08040C3F8000B013263189642C3F850
:102990000859C3F8085BE0D24FF00113C4F81C38A3
:1029A00070BD00001D4B03EB8002D2F80CC02DE976
:1029B000F043DCF81420461CDD6ED2F800E005EB95
:1029C000063605EB4018516871450AD30122D5F847
:1029D000343802FA00F023EA0000C5F83408BDE8F4
:1029E000F083AEEB0103BCF81040A34228BF23469E
:1029F000D8F81849A4B2B3EB840FF0D89468A4F1C6
:102A0000040959F8047F3760A4EB09071F44042F19
:102A1000F7D81C440B4494605360D4E76833022019
:102A2000890141F02001016103699B06FCD4122059
:102A3000FFF796BA10B5054C2046FEF70DFF4FF094
:102A4000A043E366024B236710BD00BF683302203A
:102A5000D03D000870B503780546012B50D12A4BB4
:102A6000C46E98421BD1294B0E2143205A6B42F071
:102A700080025A635A6D42F080025A655A6D5A6953
:102A800042F080025A615A6922F080025A615B6901
:102A900000F0E8FB1E4BE3601E4BC4F80038002337
:102AA000EE6EC4F8003EC02323604FF40413A3630A
:102AB0003369002BFCDA01230C203361FFF750FA55
:102AC0003369DB07FCD41220FFF74AFA3369002B85
:102AD000FCDA00262846A660FFF738FF6B68C4F8CA
:102AE0001068DB68C4F81468C4F81C684BB90A4B5A
:102AF000A3614FF0FF336361A36843F00103A36058
:102B000070BD064BF4E700BF683302200038024076
:102B10004014004003002002003C30C0083C30C09C
:102B2000F8B5C46E054600214FF000662046FFF759
:102B300077FF296F00234FF001128F684FF0FF30AD
:102B4000C4F83438C4F81C2804EB431201339F4204
:102B5000C2F80069C2F8006BC2F80809C2F8080B95
:102B6000F2D20B68EA6E6B67636210231361166919
:102B700016F01006FBD11220FFF7F2F9D4F8003856
:102B800023F4FE63C4F80038A36943F4402343F000
:102B90001003A3610923C4F81038C4F814380A4B91
:102BA000EB604FF0C043C4F8103B084BC4F8003B47
:102BB000C4F81069C4F800396B6F03F1100243F4D4
:102BC00080136A67A362F8BDAC3D00084080001026
:102BD000C26E90F86610D2F8003823F4FE6343EA20
:102BE0000113C2F8003870472DE9F84300EB810368
:102BF000C56E0C468046DA680FFA81F948011668FE
:102C000006F00306731E022B05EB41134FF0000183
:102C100094BFB604384EC3F8101B4FF0010104F105
:102C2000100398BF06F1805601FA03F3916998BF2B
:102C300006F5004600293AD0578A04F15801374377
:102C400049016F50D5F81C180B430021C5F81C38FA
:102C50002B180127C3F81019A7405369611E9BB3B5
:102C6000138A928B9B08012A88BF5343D8F874209B
:102C7000981842EA034301F140022146C8F8740063
:102C8000284605EB82025360FFF7CAFE08EB890075
:102C9000C3681B8A43EA845348341E4364012E519F
:102CA000D5F81C381F43C5F81C78BDE8F88305EB40
:102CB0004917D7F8001B21F40041C7F8001BD5F8CD
:102CC0001C1821EA0303C0E704F13F030B4A28461E
:102CD000214605EB83035A60FFF7A2FE05EB49107E
:102CE000D0F8003923F40043C0F80039D5F81C3877
:102CF00023EA0707D7E700BF0080001000040002A6
:102D0000026F12684267FFF721BE00005831C36EA0
:102D100049015B5813F4004004D013F4001F0CBFAA
:102D200002200120704700004831C36E49015B5802
:102D300013F4004004D013F4001F0CBF0220012044
:102D40007047000000EB8101CB68196A0B681360C3
:102D50004B6853607047000000EB810330B5DD68BD
:102D6000AA691368D36019B9402B84BF402313604C
:102D70006B8A1468C26E1C4402EB4110013C09B21C
:102D8000B4FBF3F46343033323F0030343EAC44384
:102D900043F0C043C0F8103B2B6803F00303012B42
:102DA0000ED1D2F8083802EB411013F4807FD0F82E
:102DB000003B14BF43F0805343F00053C0F8003B86
:102DC00002EB4112D2F8003B43F00443C2F8003B4F
:102DD00030BD00002DE9F041244D0446EE6E06EBB7
:102DE0004013D3F8087B3807C3F8087B0AD5D6F818
:102DF0001438190706D505EB840321462846DB68FD
:102E00005B689847FA071FD5D6F81438DB071BD53F
:102E100005EB8403D968CCB98B69488A5A68B2FB40
:102E2000F0F600FB16228AB91868DA6890420DD2D3
:102E3000121AC3E90024202383F311880B4821468A
:102E4000FFF78AFF84F31188BDE8F081012303FABC
:102E500004F26B8923EA02036B81CB68002BF3D069
:102E600021460248BDE8F041184700BF6833022000
:102E700000EB81034A0170B5DD68C36E6C6926689A
:102E8000E66056BB1A444FF40020C2F810092A68C5
:102E900002F00302012A0AB20ED1D3F8080803EBAC
:102EA000421410F4807FD4F8000914BF40F0805021
:102EB00040F00050C4F8000903EB4212D2F80009B8
:102EC00040F00440C2F800090122D3F8340802FAA5
:102ED00001F10143C3F8341870BD19B9402E84BF05
:102EE0004020206020681A442E8A8419013CB4FBDB
:102EF000F6F440EAC44040F00050C6E7F8B5044696
:102F00001E48C56E05EB4413D3F80869F107C3F8F2
:102F1000086917D5D5F81038DA0713D500EB840304
:102F2000D9684B691F68DA68974218D2D21B00270C
:102F30001A605F60202383F311882146FFF798FF12
:102F400087F31188330617D50123D5F83428A34019
:102F5000134211D02046BDE8F840FFF723BD0123FE
:102F600003FA04F2038923EA020303818B68002B2E
:102F7000E8D021469847E5E7F8BD00BF6833022056
:102F80002DE9F74FA24CE66E7569B3691D4015F443
:102F90008058756107D02046FEF7CAFC03B0BDE833
:102FA000F04FFFF74BBC002D12DAD6F8003E9F071A
:102FB00005D0D6F8003E23F00303C6F8003ED6F84D
:102FC0000438934823F00103C6F80438FEF7DAFC0E
:102FD000280505D58E48FFF7B9FC8D48FEF7C2FCE1
:102FE000A9040CD5D6F8083813F0060FF36823F4BB
:102FF00070530CBF43F4105343F4A053F3602A07FB
:1030000004D56368DB680BB181489847EB0200F197
:103010008A80AF0227D5D4F86C9000274FF0010AC0
:10302000DFF8ECB109EB4712D2F8003B03F4402380
:10303000B3F5802F11D1D2F8003B002B0DDA628955
:103040000AFA07F322EA0303638104EB8703DB68D0
:10305000DB6813B13946584698470137236FFFB2F2
:103060009B689F42DED9E80618D5E76E3A6AC2F33C
:103070000A1002F00F0302F4F012B2F5802F00F0F4
:103080009C80B2F5402F09D104EB8303002207F5A1
:103090008057DB681B6A904240F082802B03D6F891
:1030A00018481DD5E70302D50020FFF793FEA603BD
:1030B00002D50120FFF78EFE600302D50220FFF744
:1030C00089FE210302D50320FFF784FEE20202D528
:1030D0000420FFF77FFEA30202D50520FFF77AFE4A
:1030E0006F037FF55BAFE60702D50020FFF706FF11
:1030F000A50702D50120FFF701FF600702D50220D6
:10310000FFF7FCFE210702D50320FFF7F7FEE206DA
:1031100002D50420FFF7F2FEA3067FF53FAF05209E
:10312000FFF7ECFE3AE7E36E00274FF0010ADFF805
:10313000E0B00193236F5FFA87F99B6899453FF6EA
:1031400068AF019B03EB4913D3F8002902F4402236
:10315000B2F5802F22D1D3F80029002A1EDAD3F845
:10316000002942F09042C3F80029D3F80029002A30
:10317000FBDB4946E06EFFF753FC22890AFA09F3AC
:1031800022EA0303238104EB8903DB689B6813B104
:103190004946584698474846FFF704FC0137C9E7B7
:1031A000910701D1D7F80080072A02F101029CBFE4
:1031B00003F8018B4FEA18286DE7023307F58057B3
:1031C00004EB83025268D2F818C0DCF80820DCE96E
:1031D000001CA1EB0C0C002188420AD104EB8304F3
:1031E00063689B699A6802449A605A6802445A600C
:1031F00054E711F0030F01D1D7F800808C4501F19D
:10320000010184BF02F8018B4FEA1828E4E700BFF0
:1032100068330220C36E03EB4111D1F8003B43F445
:103220000013C1F8003B7047C36E03EB4111D1F8A6
:10323000003943F40013C1F800397047C36E03EB43
:103240004111D1F8003B23F40013C1F8003B704753
:10325000C36E03EB4111D1F8003923F40013C1F818
:1032600000397047090100F16043012203F5614311
:10327000C9B283F8001300F01F039A4043099B0072
:1032800003F1604303F56143C3F880211A6070477E
:1032900030B50433039C0172002104FB0325C16097
:1032A000C0E90653049B0363059BC0E90000C0E925
:1032B0000422C0E90842C0E90A11436330BD00009E
:1032C0000022416AC260C0E90411C0E90A226FF01D
:1032D0000101FEF7B5BE0000D0E90432934201D1EE
:1032E000C2680AB9181D7047002070470369196049
:1032F0000021C2680132C260C269134482699342EC
:10330000036124BF436A0361FEF78EBE38B50446ED
:103310000D46E3683BB162690020131D1268A36289
:103320001344E36207E0237A33B929462046FEF7C7
:103330006BFE0028EDDA38BD6FF00100FBE70000FE
:10334000C368C269013BC360436913448269934205
:10335000436124BF436A436100238362036B03B16B
:103360001847704770B52023044683F31188866A96
:103370003EB9FFF7CBFF054618B186F31188284602
:1033800070BDA36AE26A13F8015B9342A36202D3A1
:103390002046FFF7D5FF002383F31188EFE70000F5
:1033A0002DE9F84F04460E46174698464FF020097F
:1033B00089F311880025AA46D4F828B0BBF1000F84
:1033C00009D141462046FFF7A1FF20B18BF31188B8
:1033D0002846BDE8F88FD4E90A12A7EB050B521A6C
:1033E000934528BF9346BBF1400F1BD9334601F1EB
:1033F000400251F8040B914243F8040BF9D1A36A3F
:10340000403640354033A362D4E90A239A4202D3BE
:103410002046FFF795FF8AF31188BD42D8D289F381
:103420001188C9E730465A46FDF77EFCA36A5E4420
:103430005D445B44A362E7E710B5029C043301726C
:1034400004FB0321C460C0E906130023C0E90A336A
:10345000039B0363049BC0E90000C0E90422C0E9A8
:103460000842436310BD0000026A6FF00101C260B0
:10347000426AC0E904220022C0E90A22FEF7E0BD48
:10348000D0E904239A4201D1C26822B9184650F803
:10349000043B0B607047002070470000C3680021A8
:1034A000C2690133C3604369134482699342436133
:1034B00024BF436A4361FEF7B7BD000038B5044638
:1034C0000D46E3683BB1236900201A1DA262E26940
:1034D0001344E36207E0237A33B929462046FEF716
:1034E00093FD0028EDDA38BD6FF00100FBE7000026
:1034F00003691960C268013AC260C26913448269F3
:103500009342036124BF436A036100238362036B18
:1035100003B118477047000070B520230D460446DC
:10352000114683F31188866A2EB9FFF7C7FF10B1E1
:1035300086F3118870BDA36A1D70A36AE26A013325
:103540009342A36204D3E16920460439FFF7D0FF18
:10355000002080F31188EDE72DE9F84F04460D4671
:10356000904699464FF0200A8AF311880026B34608
:10357000A76A4FB949462046FFF7A0FF20B187F35D
:1035800011883046BDE8F88FD4E90A073A1AA8EB4B
:103590000607974228BF1746402F1BD905F1400365
:1035A00055F8042B9D4240F8042BF9D1A36A40360C
:1035B0004033A362D4E90A239A4204D3E169204646
:1035C0000439FFF795FF8BF311884645D9D28AF36A
:1035D0001188CDE729463A46FDF7A6FBA36A3D448C
:1035E0003E443B44A362E5E7D0E904239A4217D165
:1035F000C3689BB1836A8BB1043B9B1A0ED01360E6
:10360000C368013BC360C3691A4483699A4202617B
:1036100024BF436A03610023836201231846704775
:103620000023FBE700F094B84FF08043002258637A
:103630001A610222DA6070474FF080430022DA609C
:10364000704700004FF08043586370474FF080434D
:10365000586A70474B6843608B688360CB68C3606F
:103660000B6943614B6903628B6943620B680360BA
:103670007047000008B52C4B40F2FF712B481A69C7
:103680000A431A611A6922F4FF6222F007021A61E2
:103690001A691A6B0A431A631A6D0A431A65244A97
:1036A0001B6D1146FFF7D6FF00F5806002F11C018B
:1036B000FFF7D0FF00F5806002F13801FFF7CAFF85
:1036C00000F5806002F15401FFF7C4FF00F580604F
:1036D00002F17001FFF7BEFF00F5806002F18C017E
:1036E000FFF7B8FF00F5806002F1A801FFF7B2FF15
:1036F00000F5806002F1C401FFF7ACFF00F58060C7
:1037000002F1E001FFF7A6FF00F5806002F1FC0185
:10371000FFF7A0FF02F58C7100F58060FFF79AFFBC
:10372000BDE8084000F08AB80038024000000240BE
:10373000DC3D000808B500F003FAFEF7D5FBFFF703
:103740002FF8BDE80840FEF7F7BD00007047000005
:103750000F4B1A6C42F001021A641A6E42F0010219
:103760001A660C4A1B6E936843F0010393604FF096
:1037700080436B229A624FF0FF32DA6200229A6134
:103780005A63DA605A6001225A611A60704700BFBA
:1037900000380240002004E04FF0804208B5116973
:1037A000D3680B40D9B29B076FEA0101116107D5BD
:1037B000202383F31188FEF7B7FB002383F31188DE
:1037C00008BD00001B4B4FF0FF3000211A696FEA63
:1037D00042526FEA52521A611A69C2F30A021A611E
:1037E0001A695A6958615A6959615A691A6A62F0C4
:1037F00080521A621A6A02F080521A621A6A5A6A6F
:1038000058625A6A59625A6A0B4A106840F48070CA
:103810001060186F00F44070B0F5007F03D04FF4D3
:10382000803018671967536823F40073536000F001
:103830005FB900BF0038024000700040364B4FF4C3
:103840004041364A1A64364A11601A6842F0010251
:103850001A601A689207FCD59A6822F003029A60EF
:103860002D4B9A6812F00C02FBD1196801F0F90196
:1038700019609A601A6842F480321A601A689003DC
:10388000FCD55A6F42F001025A67234B5A6F9107D9
:10389000FCD5244A5A601A6842F080721A60204BA4
:1038A0005A685204FCD51A6842F480321A605A6889
:1038B000D003FCD51A6842F400321A60184A5368E3
:1038C0009903FCD5144B1A689201FCD5164A9A60EC
:1038D00040F20112C3F88C200022C3F8902040F27D
:1038E0000733124A1360136803F00F03072BFAD152
:1038F000094B9A6842F002029A609A6802F00C0240
:10390000082AFAD15A6C42F480425A645A6E42F440
:1039100080425A665B6E7047003802400004001017
:1039200000700040086C400900948838003C024058
:10393000074A08B5536903F00103536123B1054AEF
:1039400013680BB150689847BDE80840FEF776BF92
:10395000003C0140F8330220074A08B5536903F0E0
:103960000203536123B1054A93680BB1D0689847AD
:10397000BDE80840FEF762BF003C0140F83302207A
:10398000074A08B5536903F00403536123B1054A9C
:1039900013690BB150699847BDE80840FEF74EBF68
:1039A000003C0140F8330220074A08B5536903F090
:1039B0000803536123B1054A93690BB1D069984755
:1039C000BDE80840FEF73ABF003C0140F833022052
:1039D000074A08B5536903F01003536123B1054A40
:1039E000136A0BB1506A9847BDE80840FEF726BF3E
:1039F000003C0140F8330220164B10B55C6904F41A
:103A000078725A61A30604D5134A936A0BB1D06A3F
:103A10009847600604D5104A136B0BB1506B98475A
:103A2000210604D50C4A936B0BB1D06B9847E20585
:103A300004D5094A136C0BB1506C9847A30504D503
:103A4000054A936C0BB1D06C9847BDE81040FEF767
:103A5000F5BE00BF003C0140F8330220194B10B501
:103A60005C6904F47C425A61620504D5164A136D00
:103A70000BB1506D9847230504D5134A936D0BB1D4
:103A8000D06D9847E00404D50F4A136E0BB1506E09
:103A90009847A10404D50C4A936E0BB1D06E984799
:103AA000620404D5084A136F0BB1506F9847230482
:103AB00004D5054A936F0BB1D06F9847BDE810400D
:103AC000FEF7BCBE003C0140F833022008B50348B5
:103AD000FDF7DCFABDE80840FEF7B0BED4230220B3
:103AE00008B5FFF759FEBDE80840FEF7A7BE000085
:103AF000062108B50846FFF7B5FB06210720FFF7AA
:103B0000B1FB06210820FFF7ADFB06210920FFF7D6
:103B1000A9FB06210A20FFF7A5FB06211720FFF7C6
:103B2000A1FB06212820FFF79DFB07211C20FFF7A2
:103B300099FB0C215220BDE80840FFF793BB000021
:103B400008B5FFF73FFE00F00DF8FDF7B1FCFDF7FB
:103B500081FEFDF759FDFFF7F9FDBDE80840FFF7CD
:103B600061BD00000023054A19460133102BC2E94C
:103B7000001102F10802F8D1704700BFF8330220AB
:103B8000034611F8012B03F8012B002AF9D17047E5
:103B900053544D3332463F3F3F3F3F3F0053544D18
:103BA000333246375B347C355D780053544D3332C5
:103BB00046375B367C375D7800000000F82702202E
:103BC000D423022000960000000000000000000046
:103BD00000000000000000000000000000000000E5
:103BE0007914000865140008A11400088D14000859
:103BF0009914000885140008711400085D14000869
:103C0000AD140008000000008515000871150008BB
:103C1000AD15000899150008A515000891150008B4
:103C20007D15000869150008B9150008000000009E
:103C300001000000000000006D61696E00000000DE
:103C400069646C6500000000403C0008802602208A
:103C5000F827022001000000E51E00080000000017
:103C60004172647550696C6F740025424F41524433
:103C7000252D424C002553455249414C250000005A
:103C80000200000000000000A11700080D18000845
:103C900040004000A0300220B030022002000000AE
:103CA00000000000030000000000000051180008A0
:103CB0000000000010000000C030022000000000E2
:103CC0000100000000000000683302200101020032
:103CD000D5220008E521000881220008652200089D
:103CE00043000000E83C000809024300020100C054
:103CF0003209040000010202010005240010010540
:103D000024010001042402020524060001070582A3
:103D1000030800FF09040100020A00000007050172
:103D20000240000007058102400000001200000070
:103D3000343D0008120110010200004009124157F1
:103D400000020102030100000403090425424F415F
:103D5000524425004D6174656B463736352D5769E1
:103D60006E672D626473686F74003031323334359E
:103D70003637383941424344454600000080000050
:103D800000800000008000000080000000000200B1
:103D90000000040000000400000004000000040013
:103DA0000000040000000400000004000000000007
:103DB00099190008511C0008FD1C00084000400033
:103DC000E0330220E033022001000000F033022043
:103DD0008000000040010000050000000000802A73
:103DE00000000000AAAAAAAA00000024FFFF000009
:103DF0000000000000A00A00000000010000000018
:103E0000AAAAAAAA00000001FFFF0000000000000B
:103E1000000000000001000000000000AAAAAAAAF9
:103E200000010000FFFF0000000000000000000093
:103E30000040100000000000AAAAAAAA004000004A
:103E4000FFFB0000000000000000000000814200B5
:103E500000000000AAAAAAAA00404100EFFF00004B
:103E600000000080080000000000000000000000CA
:103E7000AAAAAAAA00000000FFFF0000000000009C
:103E8000000000000000000000000000AAAAAAAA8A
:103E900000000000FFFF0000000000000000000024
:103EA0000000000000000000AAAAAAAA000000006A
:103EB000FFFF000000000000000000000000000004
:103EC00000000000AAAAAAAA00000000FFFF00004C
:103ED00000000000000000000000000000000000E2
:103EE00000000000000000000000000000000000D2
:103EF00000000000000000000000000000000000C2
:103F000000000000000000000000000000000000B1
:103F10008F0000000000000000801E000000000074
:103F2000FF00000000000000903B00083F00000080
:103F3000490400009D3B00083F00000051040000C0
:103F4000AB3B00083F0000000096000000000800A6
:103F5000960000000008000004000000483D000832
:103F60000000000000000000000000000000000051
:083F7000000000000000000049
:00000001FF
