:020000040800F2
:1000000000070020F5040008492C0008012C000816
:10001000292C0008012C0008212C0008F7040008F6
:10002000F7040008F7040008F70400082D3C000856
:10003000F7040008F7040008F7040008F7040008B4
:10004000F7040008F7040008F7040008F7040008A4
:10005000F7040008F70400089D4F0008C54F00088A
:10006000ED4F0008155000083D500008F704000847
:10007000F7040008F7040008F7040008F704000874
:10008000F7040008F7040008F7040008F704000864
:10009000F7040008E12B0008F12B00086550000868
:1000A000F7040008F7040008F7040008F704000844
:1000B0004D510008F7040008F7040008F704000891
:1000C000F7040008F7040008F7040008F704000824
:1000D000F7040008F704000839510008F704000885
:1000E000C9500008F7040008F7040008F7040008E6
:1000F000F7040008F7040008F7040008F7040008F4
:10010000F7040008F7040008F7040008F7040008E3
:10011000F7040008F7040008F7040008F7040008D3
:10012000F7040008F7040008F7040008F7040008C3
:10013000F7040008F7040008F7040008F7040008B3
:10014000F7040008F7040008F7040008F7040008A3
:10015000F7040008F7040008F7040008F704000893
:10016000F7040008F7040008F7040008F704000883
:10017000F7040008F7040008F7040008F704000873
:10018000F7040008F7040008F7040008F704000863
:10019000F7040008F7040008F7040008F704000853
:1001A000F7040008F7040008F7040008F704000843
:1001B000F7040008F7040008F7040008F704000833
:1001C000F7040008F7040008F7040008F704000823
:1001D000F7040008F7040008F7040008F704000813
:1001E0007D16000800000000000000000000000074
:1001F00053B94AB9002908BF00281CBF4FF0FF318E
:100200004FF0FF3000F074B9ADF1080C6DE904CE89
:1002100000F006F8DDF804E0DDE9022304B07047E1
:100220002DE9F047089D04468E46002B4DD18A42A9
:10023000944669D9B2FA82F252B101FA02F3C2F1DC
:10024000200120FA01F10CFA02FC41EA030E94406D
:100250004FEA1C48210CBEFBF8F61FFA8CF708FB8E
:1002600016E341EA034306FB07F199420AD91CEB66
:10027000030306F1FF3080F01F81994240F21C8198
:10028000023E63445B1AA4B2B3FBF8F008FB1033E0
:1002900044EA034400FB07F7A7420AD91CEB040415
:1002A00000F1FF3380F00A81A74240F207816444E5
:1002B000023840EA0640E41B00261DB1D44000236A
:1002C000C5E900433146BDE8F0878B4209D9002DCE
:1002D00000F0EF800026C5E9000130463146BDE858
:1002E000F087B3FA83F6002E4AD18B4202D38242C2
:1002F00000F2F980841A61EB030301209E46002D71
:10030000E0D0C5E9004EDDE702B9FFDEB2FA82F2C5
:10031000002A40F09280A1EB0C014FEA1C471FFA23
:100320008CFE0126200CB1FBF7F307FB131140EA0A
:1003300001410EFB03F0884208D91CEB010103F1D7
:10034000FF3802D2884200F2CB804346091AA4B299
:10035000B1FBF7F007FB101144EA01440EFB00FE6D
:10036000A64508D91CEB040400F1FF3102D2A645D2
:1003700000F2BB800846A4EB0E0440EA03409CE771
:10038000C6F12007B34022FA07FC4CEA030C20FA1E
:1003900007F401FA06F31C43F9404FEA1C4900FA3E
:1003A00006F3B1FBF9F8200C1FFA8CFE09FB1811BB
:1003B00040EA014108FB0EF0884202FA06F20BD92E
:1003C0001CEB010108F1FF3A80F08880884240F27E
:1003D0008580A8F102086144091AA4B2B1FBF9F0C2
:1003E00009FB101144EA014100FB0EFE8E4508D9BD
:1003F0001CEB010100F1FF346CD28E456AD9023842
:10040000614440EA0840A0FB0294A1EB0E01A14226
:10041000C846A64656D353D05DB1B3EB080261EB94
:100420000E0101FA07F722FA06F3F1401F43C5E96E
:10043000007100263146BDE8F087C2F12003D840A4
:100440000CFA02FC21FA03F3914001434FEA1C47E6
:100450001FFA8CFEB3FBF7F007FB10360B0C43EAD8
:10046000064300FB0EF69E4204FA02F408D91CEB88
:10047000030300F1FF382FD29E422DD90238634486
:100480009B1B89B2B3FBF7F607FB163341EA034126
:1004900006FB0EF38B4208D91CEB010106F1FF3875
:1004A00016D28B4214D9023E6144C91A46EA00466C
:1004B00038E72E46284605E70646E3E61846F8E6FE
:1004C0004B45A9D2B9EB020864EB0C0E0138A3E747
:1004D0004646EAE7204694E74046D1E7D0467BE728
:1004E000023B614432E7304609E76444023842E7A0
:1004F000704700BF02E000F000F8FEE772B6374830
:1005000080F30888364880F3098836483649086001
:1005100040F20000CCF200004EF63471CEF2000141
:100520000860BFF34F8FBFF36F8F40F20000C0F23F
:10053000F0004EF68851CEF200010860BFF34F8FF5
:10054000BFF36F8F4FF00000E1EE100A4EF63C71E2
:10055000CEF200010860062080F31488BFF36F8F8D
:1005600004F04CFB04F0DEFB4FF055301F491B4AF2
:1005700091423CBF41F8040BFAE71D49184A9142E9
:100580003CBF41F8040BFAE71A491B4A1B4B9A423D
:100590003EBF51F8040B42F8040BF8E7002018495D
:1005A000184A91423CBF41F8040BFAE704F02AFBD9
:1005B00004F0FEFB144C154DAC4203DA54F8041B56
:1005C0008847F9E700F042F8114C124DAC4203DACB
:1005D00054F8041B8847F9E704F012BB0007002019
:1005E000002300200000000808ED00E000010020CA
:1005F0000007002058540008002300208C2300200E
:1006000090230020704E0020E0010008E401000863
:10061000E4010008E40100082DE9F04F2DED108AF7
:10062000C1F80CD0C3689D46BDEC108ABDE8F08FC0
:10063000002383F311882846A047002003F05AFFC7
:10064000FEE703F0BDFE00DFFEE70000F8B504F0B2
:1006500077FA074604F0C8FA0546B8BB204B9F421C
:1006600034D001339F4234D01E4B27F0FF029A4210
:1006700032D1F8B200F04EFE2E4642F2107400F075
:100680004FFE08B10024264601F0A6FA20B103204F
:1006900000F07CF80024264635B1134B9F4203D06E
:1006A00004F09AFA00242646002004F053FA0EB112
:1006B00000F082F801F05AF900F056FE01F04CF813
:1006C000204600F0D7F800F077F8F9E72E4600242E
:1006D000D5E704460126D2E706464FF47A74CEE702
:1006E000010007B0000008B0263A09B008B500F0D4
:1006F000FFFFA0F120035842584108BD07B541F261
:100700001203022101A8ADF8043001F00FF803B084
:100710005DF804FB38B5302383F31188174803686C
:100720000BB103F0A5FF164A144800234FF47A7169
:1007300003F094FF002383F31188124C236813B154
:100740002368013B2360636813B16368013B636006
:100750000D4D2B7833B963687BB9022001F094F812
:10076000322363602B78032B07D163682BB90220F7
:1007700001F08AF84FF47A73636038BD902300204B
:1007800015070008B0240020A8230020084B18708B
:1007900003280CD8DFE800F008050208022001F069
:1007A0006BB8022001F060B8024B00225A6070471B
:1007B000A8230020B024002038B501F00DFA30B194
:1007C000254B03221A70254B00225A6038BD244B5A
:1007D000244A19680131F9D004339342F9D1224CEB
:1007E0001F4DD4F80428AA42F0D3204B9B6803F194
:1007F000006303F5F0439A42E8D204F0BFF904F035
:10080000D1F9002000F0C2FF0220FFF7BFFF184B14
:100810009A6D00229A65996F9A67996FD96DDA651A
:10082000D96FDA67D96F196E1A66D3F88010C3F8DA
:100830008020D3F8803072B64FF0E0233021C3F827
:10084000085DD4F80038D4F8042881F311889D4657
:1008500083F308881047B9E7A8230020B0240020BC
:1008600000780008207800080070000800230020AD
:10087000001002402DE9F04F93B0AC4B00902022C5
:10088000FF210AA89D6801F01BF8A94A1378A3B9B3
:10089000A848012103601170302383F31188036895
:1008A0000BB103F0E5FEA44AA24800234FF47A718D
:1008B00003F0D4FE002383F31188009B13B19F4BF8
:1008C000009A1A609E4A009C1378032B1EBF0023D7
:1008D00013709A4A4FF0000A18BF5360D346564629
:1008E000D146012000F0C8FF24B1944B1B68002BB7
:1008F00000F01582002000F0FBFE0390039B002B0C
:1009000001DA00F079FD039B002BEDDB012000F004
:10091000ABFF039B213B162BE3D801A252F823F037
:100920007D090008A5090008390A0008E308000845
:10093000E3080008E3080008C30A0008930C000855
:10094000AD0B00080F0C0008370C00085D0C000808
:10095000E30800086F0C0008E3080008E10C000839
:100960001D0A0008E3080008250D00088909000891
:100970001D0A0008E30800080F0C00080220FFF71A
:10098000B5FE002840F0F581009B0221BAF1000F6E
:1009900008BF1C4605A841F21233ADF8143000F030
:1009A000C5FE9EE74FF47A7000F0A2FE071EEBDB57
:1009B0000220FFF79BFE0028E6D0013F052F00F242
:1009C000DA81DFE807F0030A0D10133605230593DB
:1009D000042105A800F0AAFE17E054480421F9E715
:1009E00058480421F6E758480421F3E74FF01C0863
:1009F000404600F0CDFE08F104080590042105A84A
:100A000000F094FEB8F12C0FF2D1012000FA07F7A4
:100A100047EA0B0B5FFA8BFB4FF0000900F09CFFDD
:100A200026B10BF00B030B2B08BF0024FFF766FE6B
:100A300057E746480421CDE7002EA5D00BF00B0365
:100A40000B2BA1D10220FFF751FE074600289BD0B7
:100A5000012000F09BFE0220FFF798FE00265FFABF
:100A600086F8404600F0A4FE044690B100214046BE
:100A700000F0AEFE01360028F1D1BA46044641F23C
:100A80001213022105A8ADF814303E4600F04EFEC8
:100A900027E70120FFF77AFE2546244B9B68AB42EF
:100AA00007D9284600F074FE013040F06781043514
:100AB000F3E7234B00251D70204BBA465D603E4690
:100AC000ACE7002E3FF460AF0BF00B030B2B7FF471
:100AD0005BAF0220FFF75AFE322000F009FEB0F1B2
:100AE0000008FFF651AF18F003077FF44DAF0F4A2F
:100AF000926808EB050393423FF646AFB8F5807F56
:100B00003FF742AF124B0193B84523DD4FF47A70A3
:100B100000F0EEFD0390039A002AFFF635AF019B2B
:100B2000039A03F8012B0137EDE700BF00230020F3
:100B3000AC2400209023002015070008B0240020DA
:100B4000A823002004230020082300200C230020D9
:100B5000AC230020C820FFF7C9FD074600283FF45A
:100B600013AF1F2D11D8C5F1200242450AAB25F065
:100B7000030028BF424683490192184400F08EFECC
:100B8000019A8048FF2100F09BFE4FEAA8037D49AF
:100B90000193C8F38702284600F09AFE0646002813
:100BA0003FF46DAF019B05EB830537E70220FFF7AC
:100BB0009DFD00283FF4E8AE00F01CFE00283FF445
:100BC000E3AE0027B846704B9B68BB4218D91F2F75
:100BD00011D80A9B01330ED027F0030312AA134445
:100BE00053F8203C05934046042205A900F0DEFF9F
:100BF00004378046E7E7384600F0CAFD0590F2E783
:100C0000CDF81480042105A800F090FD06E700232C
:100C1000642104A8049300F07FFD00287FF4B4AEA3
:100C20000220FFF763FD00283FF4AEAE049800F009
:100C3000D7FD0590E6E70023642104A8049300F0A3
:100C40006BFD00287FF4A0AE0220FFF74FFD0028C7
:100C50003FF49AAE049800F0C5FDEAE70220FFF7E2
:100C600045FD00283FF490AE00F0D4FDE1E70220FE
:100C7000FFF73CFD00283FF487AE05A9142000F0E3
:100C8000CFFD04210746049004A800F04FFD39462B
:100C9000B9E7322000F02CFD071EFFF675AEBB074A
:100CA0007FF472AE384A926807EB090393423FF62D
:100CB0006BAE0220FFF71AFD00283FF465AE27F067
:100CC00003074F44B9453FF4A9AE484600F060FD24
:100CD0000421059005A800F029FD09F10409F1E7B8
:100CE0004FF47A70FFF702FD00283FF44DAE00F09C
:100CF00081FD002844D00A9B01330BD008220AA9A9
:100D0000002000F0E5FD00283AD02022FF210AA8AB
:100D100000F0D6FDFFF7F2FC1C4803F0F1FB13B026
:100D2000BDE8F08F002E3FF42FAE0BF00B030B2B22
:100D30007FF42AAE0023642105A8059300F0ECFCA3
:100D4000074600287FF420AE0220FFF7CFFC804644
:100D500000283FF419AEFFF7D1FC41F2883003F0D0
:100D6000CFFB059800F00EFE464600F0F5FD3C4630
:100D7000B7E5064652E64FF0000905E6BA467EE6BC
:100D800037467CE6AC23002000230020A08601002B
:100D9000094A136849F2690099B21B0C00FB013340
:100DA0001360064B186844F2506182B2000C01FBDC
:100DB0000200186080B27047142300201023002026
:100DC00010B500211022044600F07AFD034B03CB3E
:100DD000206061601868A06010BD00BF9075FF1FA3
:100DE0002DE9F041ADF54E7D0DF134086CAC40F2CB
:100DF000751207460D460EA80021C8F8001000F035
:100E00005FFD4FF4C4720021204600F059FD01F04F
:100E100023FF254B4FF47A72B0FBF2F0186093E891
:100E20000700012384E807000DF5E9702382FFF72E
:100E3000C7FF46F204231D49238406A804F022FAC2
:100E4000182384F832310DF2E3266B440DF1300C97
:100E50001A4603CA624530607160134606F10806FF
:100E6000F6D141460122204600F0A6FD002303935F
:100E7000AB7E029305F11903019380B20123CDE902
:100E800004800093E97E06A3D3E90023384602F0EC
:100E9000A3FA0DF54E7DBDE8F08100BFAFF30080F1
:100EA0009E6AC421818A46EEB8240020945200082C
:100EB0002DE9F043224DBBB001F0CEFEAB6840F20D
:100EC000ED22C31A934232D906AFA8602B462822DE
:100ED0000021384602F030FC05F10E0000F0E8FC7D
:100EE000002604465FFA80F905F10E08F3B2F1001E
:100EF000994501F1280107D908EB06030822384675
:100F000002F01AFC0136F1E708230122CDE9023292
:100F100005340C4B0193A4B230230093CDE9047443
:100F200005A3D3E90023297B074802F055FA3BB01B
:100F3000BDE8F083AFF3008078F6339F93CACD8D80
:100F4000B0490020BD490020D0340020F0B58B8A84
:100F5000013B9BB2C92BC9B006460C4647D8274D6A
:100F60002F7B27BB05F10C03009308223B46394633
:100F7000204602F0A5FA7B1CFAB2D9001F46A38ACC
:100F8000013B9A4205DA0E322A44009200230822DD
:100F9000EEE700230022C5E900230023AB6085F8BB
:100FA000D730C5F8D8302B7B0BB9E37E2B73812269
:100FB000002106AD27A800F083FC0122294627A8BE
:100FC00000F0C8FD00230393A37E029304F11903EC
:100FD00080B201932823CDE90450E17E009330468E
:100FE00004A3D3E9002302F0F7F9FFF761FF49B04A
:100FF000F0BD00BF26417272DF25D7B7B04900208F
:1010000070B50D4614461E4602F042F950B9022E44
:1010100010D1012C0ED112A3D3E90023C5E900237E
:10102000012007E0282C10D005D8012C09D0052C70
:101030000FD0002070BD302CFBD10BA3D3E90023CF
:10104000ECE70BA3D3E90023E8E70BA3D3E90023E4
:10105000E4E70BA3D3E90023E0E700BFAFF3008090
:10106000401DA12026812A0B78F6339F93CACD8D8F
:101070009E6AC421818A46EE26417272DF25D7B767
:10108000F017304A39059E562DE9F04F8DB002AF6A
:1010900080460D4602F0FCF8044600285CD12B7E09
:1010A000022B1BD1EB8A012B18D101F0D5FD06468E
:1010B000FFF76EFE03464FF4C870DFF81C92B3FBD7
:1010C000F0F206F5167602FB103316FA83F3C9F830
:1010D0000030EB7E33B97B4B00221A702C37BD46B3
:1010E000BDE8F08FAB8AE6B2013BB34204F10104E4
:1010F0000CD907F108031E44E100009600230822E2
:1011000001F0F801284602F0DBF9EBE707F11800DF
:10111000FFF756FE324607F1180107F1080004F008
:101120007FF80028D7D10F2E08D8664B1E70D9F84B
:101130000030A3F51673C9F80030CFE7FB1DF87136
:101140000146009307220346284602F0B9F9F979CF
:10115000404602F095F8C1E7EB8A282B26D010D83C
:10116000012B1ED0052BB9D1BFF34F8F5649574BDA
:10117000CA6802F4E0621343CB60BFF34F8F00BF35
:10118000FDE7302BAAD16B7E514C0133627BDBB281
:101190009342E94603D1EA7E237B9A420BD0CD46A7
:1011A0009CE729464046FFF71BFE97E72946404645
:1011B000FFF7CCFE92E74FF0000807F11803A7F8FD
:1011C00018801022009341460123284602F078F946
:1011D000AE8A023EB6B2F31C9B109B000733DB08BD
:1011E000A9EBC3039D460DF1080A1FFA88F34FEAE5
:1011F000C8019E4201F110010AD90AEB08030093CD
:1012000008220023284602F05BF908F10108ECE708
:1012100094F8D70000F0CCFAD4F8D810054619B9E4
:1012200094F8D70000F0D4FAD4F8D83033449D4273
:1012300005D294F8D7000021013000F0C9FA4FEA36
:10124000960B4FF000081FFA88F18B45D4E9003265
:1012500009D90AEB880103EB8800012200F038FB72
:1012600008F10108EFE7F31842F10002C4E9003287
:10127000D4F8D83094F8D70006EB0308C4F8D88027
:1012800000F096FA804509D394F8D730D4F8D80006
:101290000133401B84F8D730C4F8D800FF2E0D4D21
:1012A00009D80023237300F0A5FA00F095FC2881EB
:1012B00008B9FFF781FA23689B0A01332B810023C9
:1012C000A3606CE7C934002000ED00E00400FA05DB
:1012D000B0490020B8240020CC34002010B50A4BBF
:1012E0000A4A1A6003F5805393F848203AB95C6CB7
:1012F0002CB1204600F0EEFC204603F079FFBDE85B
:101300001040034800F0E6BC00350020EC52000815
:1013100030450020014B1870704700BFC4240020E6
:1013200010B54FF000540C4B22689A4211D10B4B70
:10133000627D1A700A48237D03730A49C9220E3060
:1013400000F0ACFAE0220021204600F0B9FA0120BA
:1013500010BD0020FCE700BF9AAD44C5C4240020A6
:10136000B04900201600002037B500F035FC194DBB
:101370001949288102236B7100220123174801F0CB
:101380006FF800230193164B164900931648174B2C
:101390004FF4805201F04CFF154B197811B11248EF
:1013A00001F06EFF01F058FC0446FFF7F1FC4FF42A
:1013B000C873B0FBF3F202FB130304F5167010FAC6
:1013C00083F00C4B186003F00FFC08B10F232B8146
:1013D00003B030BDB824002040420F00003500208B
:1013E00001100008C8240020D03400208910000813
:1013F000C4240020CC3400202DE9F04F2DED028BC9
:1014000095A7D7E900670FF25829D9E900898C4CD4
:1014100095B0DFF854A2DFF854B2204602F008F885
:10142000034650B30025CDE911551095ADF84C5049
:10143000027B8DF84C209968406811AA03C21B6892
:1014400043F00043109301F009FC10EB0A0241F154
:101450000003009510A9584600F0DAFDA842794A29
:1014600005DD204601F0E8FF764A1570D5E71378D0
:10147000072B00F2B980013313700DAD9FED6E8B19
:101480000023DFF8E8B10C93ADF83C300D936B60AE
:1014900000230DF125028DED008B4FF0010A09A903
:1014A00058468DF825308DF824A001F03DFB9DF8BD
:1014B00024200023002A40F09B80204601F0E8FE13
:1014C0000546002847D1DFF8A8B101F0C5FBDBF8DD
:1014D000003098423FD301F0BFFB0790FFF758FC64
:1014E000079A4FF4C87302F51672B0FBF3F101FBD3
:1014F000130312FA83F3CBF80030DFF878B19BF8CE
:1015000000100791002914BF2B46534610A88DF8F0
:101510003030FFF755FC0799C1F11002D2B2062A0C
:1015200010AB28BF062219440DF13100079200F0DC
:10153000B5F9079A0CAB0393182302930132424B7F
:10154000D2B2CDE900A304923B463246204601F0D8
:10155000E5FE8BF8005001F07FFB3C4A3C4D1368E0
:10156000C31AB3F57A7F32D3106001F077FB0246DD
:101570000B46204601F06AFF204601F089FE30B399
:101580002B7BDFF8F4A0002B14BF032302238AF87F
:10159000053001F061FB0DF1400B4FF47A7301222D
:1015A000B0FBF3F05946CAF80000504600F0AAFA22
:1015B00018230293274B019380B240F25513CDE9D3
:1015C00003B0009342464B46204601F0A7FE2B7B1A
:1015D0002BB1FFF76DFC2B7B002B7FF41AAF15B0FE
:1015E000BDEC028BBDE8F08F204601F025FF44E7FB
:1015F0004FF0904110A84A6982F010024A611946E2
:10160000102200F05DF90DF126030AAA0CA9584634
:1016100000F0F0FD95E8030011AB83E803009DF8AE
:101620003C308DF84C300C9B109310A9DDE90A2357
:10163000204602F0DFF82BE7000000000000000069
:10164000D0340020954A0020C8340020904A002061
:10165000B0490020944A0020401DA12026812A0B79
:10166000F1C6A7C1D068080F40420F000035002026
:10167000CC340020C9340020B824002008B5054827
:1016800000F05CFEBDE80840034A0449002003F076
:10169000A9BD00BF00350020E84A0020DD12000887
:1016A00070B5104B1B780133DBB2012B0C4612D8FE
:1016B0000D4B1D6829684FF47A730E6AA2FB033242
:1016C000014622462846B047844204D1074B0022F7
:1016D0001A70012070BD4FF4FA7002F011FF002063
:1016E000F8E700BF182300201C230020DC4A00205C
:1016F00007B50023024601210DF107008DF80730E0
:10170000FFF7CEFF20B19DF8070003B05DF804FBA2
:101710004FF0FF30F9E700000A4608B50421FFF753
:10172000BFFF80F00100C0B2404208BD30B4074B9B
:101730000A461978064B53F821402368DD69054BAA
:101740000146AC46204630BC604700BFDC4A002062
:101750001C230020A086010070B503F079F8094E23
:10176000094D3080002428683388834208D903F06B
:101770006BF82B6804440133B4F5F04F2B60F2D3BF
:1017800070BD00BFDE4A0020984A002003F026B951
:1017900000F1006000F5E040D0F80008704700005C
:1017A00000F10060920000F5F04003F097B80000EF
:1017B000054B1A68054B1B889B1A834202D91044BB
:1017C00003F042B800207047984A0020DE4A00200B
:1017D000024B1B68184403F051B800BF984A002020
:1017E0000020704700F10050A0F51040D0F890059F
:1017F00070470000064991F8243033B10023086A8D
:1018000081F824300822FFF7CBBF0120704700BFCA
:101810009C4A0020014B1868704700BF002004E07C
:1018200030B50F4B0F4C1B682288C3F30B030138F4
:10183000934208440BD164680A46013C8242134635
:101840000BD214F9015F2DB102F8015BF6E781427A
:101850000B4602D22C2203F8012B581A30BD00BFD0
:10186000002004E020230020022802BF4FF0904314
:1018700010229A6170470000022802BF4FF0904387
:101880004FF480129A617047022801BF4FF09042D6
:10189000536983F0100353617047000010B50023B3
:1018A000934203D0CC5CC4540133F9E710BD00006F
:1018B00003460246D01A12F9011B0029FAD17047DB
:1018C00002440346934202D003F8011BFAE7704733
:1018D0002DE9F8431F4D144695F824200746884605
:1018E00052BBDFF870909CB395F824302BB92022BE
:1018F000FF2148462F62FFF7E3FF95F82400C0F16F
:101900000802A24228BF2246D6B24146920005EB09
:101910008000FFF7C3FF95F82430A41B1E44F6B2E5
:10192000082E17449044E4B285F82460DBD1FFF719
:1019300061FF0028D7D108E02B6A03EB82038342C2
:10194000CFD0FFF757FF0028CBD10020BDE8F883A8
:101950000120FBE79C4A0020024B1A78024B1A70C8
:10196000704700BFDC4A00201823002003494FF4D1
:1019700061430B60024B186802F088BCC44A002027
:101980001C230020094B10B51822044600211846DC
:10199000FFF796FF064A074B127804600146BDE840
:1019A000104053F8220002F071BC00BFC44A00206E
:1019B000DC4A00201C2300202DE9F0470D46044698
:1019C00000219046284640F27912FFF779FF23461E
:1019D00020220021284601F0AFFE231D02222021F3
:1019E000284601F0A9FE631D03222221284601F0AA
:1019F000A3FEA31D03222521284601F09DFE04F12C
:101A0000080310222821284601F096FE04F1100355
:101A100008223821284601F08FFE04F11103082224
:101A20004021284601F088FE04F1120308224821D3
:101A3000284601F081FE04F114032022502128469B
:101A400001F07AFE04F1180340227021284601F0CB
:101A500073FE04F120030822B021284601F06CFE39
:101A600004F121030822B821284601F065FE04F1A3
:101A70002207C0263B46314608222846083601F098
:101A80005BFEB6F5A07F07F10107F3D104F1320345
:101A900008223146284601F04FFE002704F1330AA0
:101AA00094F832304FEAC7099F4209F5A47615D35E
:101AB000B8F1000F08D1314604F599730722284682
:101AC00001F03AFE09F24F16274694F832213B1BEB
:101AD00093420CD3F01DC008BDE8F0870AEB070362
:101AE00008223146284601F027FE0137D8E707F2E1
:101AF000331331460822284601F01EFE083601370E
:101B0000E3E7000013B504460846002101602346C0
:101B1000C0F803102022019001F00EFE0198231D51
:101B20000222202101F008FE0198631D03222221D8
:101B300001F002FE0198A31D0322252101F0FCFD06
:101B4000019804F108031022282101F0F5FD072077
:101B500002B010BDF8B50E4605461446002181229C
:101B60003046FFF7ADFE2B4608220021304601F03B
:101B7000E3FD7CB96B1C07220821304601F0DCFD37
:101B80000F2401236A785F1C013B934204D3E01DBC
:101B9000C008F8BD0824F4E7EB19214608223046B6
:101BA00001F0CAFD08343B46ECE7000030B5094DB2
:101BB0000A4491420DD011F8013B5840082340F3EC
:101BC0000004013B2C4013F0FF0384EA5000F6D1DF
:101BD000EFE730BD2083B8EDF7B5384A106851689B
:101BE0006B4603C36A4636493648082303F028FB90
:101BF0000446002833D10A25334A106851686B46E1
:101C000003C36A4631492F48082303F019FB0446F1
:101C1000002849D00369B3F5F12F45D8B0F8661014
:101C200040F2624291423FD1294A024402F15C01F2
:101C30008B4239D35C3B234900209E1AFFF7B6FF45
:101C40003246074604F164010020FFF7AFFFA368A6
:101C50009F4229D1E368984208BF002524E0036928
:101C6000B3F5F12F27D8418B40F26242914220D147
:101C7000174A024402F110018B4218D3103B11495C
:101C800000209D1AFFF792FF2A46064604F118012C
:101C90000020FFF78BFFA3689E4202D1E3689842C1
:101CA00001D00D25A8E70025284603B0F0BD10257A
:101CB000A2E70C25A0E70B259EE700BFBC52000859
:101CC000DC87070000780008C552000890870700ED
:101CD0000888FFF710B5037C044613B9006803F0C9
:101CE00097FA204610BD00000023BFF35B8FC3604E
:101CF000BFF35B8FBFF35B8F8360BFF35B8F704776
:101D0000BFF35B8F0068BFF35B8F704770B505460C
:101D10000C30FFF7F5FF05F1080604463046FFF7E3
:101D2000EFFFA04206D930466D68FFF7E9FF254472
:101D3000281A70BD3046FFF7E3FF201AF9E70000CC
:101D400070B50546406898B105F10800FFF7D8FF67
:101D500005F10C0604463046FFF7D2FF84423046B8
:101D600094BF6D680025FFF7CBFF013C2C44201A7F
:101D700070BD000038B50C460546FFF7C7FFA0420E
:101D800010D305F10800FFF7BBFF04446868B4FBFB
:101D9000F0F100FB1144BFF35B8F0120AC60BFF397
:101DA0005B8F38BD0020FCE72DE9F0411446074663
:101DB0000D46FFF7C5FF844228BF0446D4B1B8469C
:101DC00058F80C6B4046FFF79BFF304428604046B4
:101DD0007E68FFF795FF331A9C4203D86C600120A0
:101DE000BDE8F0816B60A41B3B68AB602044E860F9
:101DF0000220F5E72046F3E738B50C460546FFF725
:101E00009FFFA04210D305F10C00FFF779FF0444B7
:101E10006868B4FBF0F100FB1144BFF35B8F012055
:101E2000EC60BFF35B8F38BD0020FCE72DE9FF417C
:101E3000884669460746FFF7B7FF6C4606B204EBD3
:101E4000C6060025B44209D06268206808EB050187
:101E5000FFF724FD636808341D44F3E7294638463C
:101E6000FFF7CAFF284604B0BDE8F081F8B5054683
:101E70000C300F46FFF744FF05F1080604463046D4
:101E8000FFF73EFFA042304688BF6C68FFF738FF7F
:101E9000201A386020B130462C68FFF731FF20440B
:101EA000F8BD000073B5144606460D46FFF72EFF39
:101EB000844228BF04460190DCB101A93046FFF7F7
:101EC000D5FF019B33B93268C5E90233C5E9002467
:101ED00001200CE09C4238BF0194286001986860A2
:101EE0008442F5D93368AB60241AEC60022002B05A
:101EF00070BD2046FBE700002DE9FF410F46694613
:101F0000FFF7D0FF6C4600B204EBC0050026AC42E0
:101F100009D0D4F8048054F8081BB8194246FFF7DA
:101F2000BDFC4644F3E7304604B0BDE8F081000054
:101F300038B50546FFF7E0FF044601462846FFF79F
:101F400019FF204638BD0000302383F3118862B6A4
:101F500070470000002383F3118862B670470000C9
:101F6000012070477047000010B4134602681468DF
:101F70000022A4465DF8044B6047000000F5805045
:101F800090F859047047000000F5805090F8520412
:101F90007047000000F5805090F958047047000029
:101FA0005020704700F5805208B5FFF7CDFFD2F8FA
:101FB0009834D2F894041844D2F890341844D2F8E3
:101FC00078341844D2F888341844D2F88434184449
:101FD000FFF7C0FF08BD000038B5C26A936923F05F
:101FE00001039361044600F037FE0546E36A9B69EE
:101FF000DB0706D500F030FE431BFA2BF6D9002094
:1020000004E004F58054012084F8520438BD000037
:102010002DE9F04F0C4600F5805185B01F4691F830
:102020005234BDF83890054690469BB1D1F87434CF
:102030000133C1F8743423689A0006D4237B082B3B
:102040000BD9627B0AB10F2B07D9D1F87834013351
:10205000C1F878344FF0FF300FE0FFF775FFEB6AFF
:10206000D3F8C42012F4001A0AD0D1F87C3401331A
:10207000C1F87C34FFF76EFF002005B0BDE8F08F9B
:10208000D3F8C46022686B6AC6F301464FF0480B70
:10209000002A1BFB063BB4BF42F080429204CBF8FF
:1020A000002023685B0044BF42F00052CBF80020C0
:1020B000227B330643EA0243CBF80430607B720193
:1020C00018B343F44013CBF80430D1F8A4340133EF
:1020D000C1F8A434AB1803F58353197B41F02001F8
:1020E0001973207B039200F015FE039A03308010D1
:1020F0005FFA8AF383420AF1010A0DDA04EB8301E5
:102100000BEB830349689960F2E7AB1803F583533F
:10211000197B60F34511E3E7EB6A0121B140C3F895
:10212000CC10AB1803F58253C3E9048705EB4613C3
:1021300003F582532146183304F10C0051F804CB07
:1021400043F804CB8142F9D1098819802A4441F22D
:1021500068032846D65002F5805209F0030392F82E
:102160006C1043F0100321F01F010B4382F86C3018
:10217000FFF7F0FE4246CDF800903B46214600F0C6
:102180008FFD012079E7000013B500F5805401911F
:10219000606CFFF7D5FD1F280AD90199606C2022D9
:1021A000FFF744FEA0F120035842584102B010BD91
:1021B0000020FBE708B500F58050FFF7C5FE406C36
:1021C000FFF792FDBDE80840FFF7C4BE00220260A1
:1021D000828142608260704710B500220023C0E90E
:1021E00000230023044603810C30FFF7EFFF204655
:1021F00010BD00002DE9F047074688B007F5805470
:1022000068469A468846FFF79FFE9146FFF7E4FF2F
:10221000606CFFF77BFD1F282CD9606C202269467B
:10222000FFF786FE202825D194F8523413B303AD6E
:10223000444605AB2E4603CE9E4220606160354683
:1022400004F10804F6D130682060B388A380DDE98A
:102250000023C9E90023BDF80830AAF80030FFF7D1
:1022600079FE4A4653464146384608B0BDE8F04735
:1022700000F004BDFFF76EFE002008B0BDE8F08757
:102280002DE9F84F00230646C0E90133284B46F8F4
:10229000303B00F5815405468846374610343846B1
:1022A0002037FFF799FFA742F9D105F580544FF485
:1022B000805326630026C4E90D366764012305F5C3
:1022C000835705F5A359E66384F8403084F8483015
:1022D000103709F110094FF0000A4FF0000B47E9E1
:1022E00008ABA7F11800FFF771FF203747F8286CFB
:1022F0004F45F4D184F85884A4F85A64A4F85C6477
:10230000A4F85E6484F86064A4F86264A4F8646469
:10231000A4F8666484F86864B8F1000F02D0054838
:1023200000F094FC044BEB622846BDE8F88F00BF38
:10233000EC520008D05200080064004010B5044B75
:10234000197804464A1C1A70FFF79AFF204610BD00
:10235000E54A00202DE9F04300295FD03048314B99
:10236000B3FBF1F381428CBF0A201120451EB3FB61
:10237000F0F700FB1730ECB220B1022D2846F5D85B
:10238000002037E07D1EB5F5806F33D2C4EBC40862
:1023900008F103034FEAE30EC3F3C703A4EB030CF6
:1023A0000EF101094FF47A705FFA8CF60EFB000E05
:1023B00059FA8CFCBEFBFCFCBCF5617F1CDC1FFAEF
:1023C0008CF4581C56FA80F047431648B0FBF7F7D8
:1023D000B942D5D1013BDBB20F2BD1D8711EC9B2A6
:1023E00007294FF0000005D81071148055805371F3
:1023F00091710120BDE8F08308F1FF334FEAE30C4F
:10240000C3F3C703E41A0CF1010EE6B20CFB0000A3
:102410005EFA84F4B0FBF4F4A4B2D2E70846E9E72C
:102420003F420F0000127A000B4B10B54FF454726C
:10243000044600211846FFF743FA084BA3614033D6
:10244000E361D8332362F0336362E36A60610022A0
:10245000C3F8C02010BD00BF00A4004070A400401D
:102460002DE9F04F00F58055994695F85834012B29
:1024700089B004468A46904604D90027384609B0F8
:10248000BDE8F08F904A52F8231009B942F82300B2
:102490008E49C4F80CA00B7884F8109093B9FFF71C
:1024A00053FD8B4B9A6D42F000729A659A6B42F025
:1024B00000729A639A6B22F000729A6301230B7088
:1024C000FFF748FD95F8513473B903211520FFF744
:1024D0003BFD01F025FD0321162001F021FD012324
:1024E00085F85134FFF736FDFFF72EFDE26A936958
:1024F00023F01003936100F0AFFB0746E36A9E6987
:1025000016F0080607D000F0A7FBC31BFA2BF5D97D
:10251000FFF720FDB1E79A6942F001029A6100F0ED
:102520009BFB0746E36A9A69D00705D400F094FB49
:10253000C31BFA2BF6D9EBE79A6942F002029A61C3
:10254000E36A00275F65FFF705FD686CFFF7CCFBCA
:1025500004F5825B0BF1100B202200216846FFF787
:10256000AFF902A8FFF732FE06976A460BEB0603A7
:102570000DF1180E9446BCE80300F445186059604C
:10258000624603F10803F5D1DCF80000186020363C
:102590009CF804201A71B6F5806FDDD1002304F594
:1025A000A25285F8503485F853341A3251462046E9
:1025B000FFF7D0FE074690B9E26A936923F0010362
:1025C000936100F049FB0546E36A9B69D9077FF5F3
:1025D00054AF00F041FB431BFA2BF5D94DE795F8BA
:1025E0005F6495F85E24C5F86CA4360246EA42663C
:1025F00095F86024E36A1643B5F85C2446EA02467F
:10260000DE61B8F1000F29D004F5A3520232414631
:102610002046FFF79FFE90B9E26A936923F0010319
:10262000936100F019FB0546E36A9B69DA077FF5C1
:1026300024AF00F011FB431BFA2BF5D91DE795F8E9
:10264000683495F86714C5F870841B0143EA0123C8
:10265000B5F86414E26A43EA0143D3602046FFF709
:10266000E3FE002385F85934E36A6FF040421A65AF
:10267000E36A184A5A65E36A44229A65E36A0722C4
:10268000C3F8DC20E36A0322DA65E26A9369B9F1F0
:10269000030F43F4407393613FF4F0AEE26A936931
:1026A00023F00103936100F0D7FA0646E36A9B69C1
:1026B000DB0705D500F0D0FA831BFA2BF6D9DCE650
:1026C000012385F85234D9E6E04A0020E44A00208C
:1026D000001002409B0008002DE9F04F054689B02C
:1026E00090469946002741F2680A00F58056EB6A49
:1026F000D3F8D430FB40D8074AD505EB47125244F3
:102700004FEA471B1379190742D4D6F880340133B6
:10271000C6F8803413799A0648BFD6F8A83405EB7A
:102720000B0248BF0133524448BFC6F8A83413799E
:1027300043F008031371DB0722D596F85334FBB13D
:1027400005F58254183468465C44FFF745FD03AB39
:1027500004F1080C206861681A4603C20834644515
:102760001346F7D120681060A2889A800123ADF843
:1027700008302B68CDE90089DB6B6946284698470D
:10278000D6F8543423B1D6F89C340133C6F89C34BF
:102790000137202FABD109B0BDE8F08F2DE9F04F04
:1027A0008DB004460F4600F059FA82468946002F44
:1027B00056D1E36AD3F89020920141BF04F58051CD
:1027C000D1F894240132C1F89424D3F8902016074C
:1027D00003D100200DB0BDE8F08FD3F89050E6692A
:1027E000C5F30125482303FB0566E8464046FFF78D
:1027F000EDFC326851004ABF22F06043C2F38A43C5
:1028000043F00043920048BF43F080430093736855
:1028100013F400131FBF04F5805201238DF80D300F
:10282000D2F8AC340EBF8DF80D300133C2F8AC34A1
:10283000F38803F00F038DF80C304FF0000B9DF878
:102840000C0000F067FA5FFA8BF3984220D9F21877
:102850000CA90B44127A03F82C2C0BF1010BEEE7B8
:10286000012FB6D1E36AD3F89820950141BF04F552
:102870008051D1F894240132C1F89424D3F89820DF
:102880001007A6D0D3F89850266AC5F30125A9E70A
:10289000EFB9E36AC3F8945004A8FFF79DFC98E8E9
:1028A0000F0007AD07C52B800023ADF81830236853
:1028B0002046CDE904A9DB6B04A9984704F58054B0
:1028C00058B1D4F88C340133C4F88C3482E7012F2A
:1028D00004BFE36AC3F89C50DEE7D4F890340133B8
:1028E000C4F89034012075E7F8B505460F4600F5A9
:1028F0008054012639462846FFF750FF10B184F86E
:102900005364F7E7D4F8543423B1D4F89C3401333A
:10291000C4F89C34F8BD0000F0B5C36A1A6C12F418
:102920007F0F2BD000F580541B6CC4F8A03441F20B
:102930006805002347194FF0010C00EB43122A44AD
:102940005E01117911F0020F15D0490713D4B9595E
:10295000C66AD6F8C8E00CFA01F111EA0E0F0AD0E7
:10296000C6F8D010117941F004011171D4F888240F
:102970000132C4F888240133202BDED1F0BD0000E1
:1029800010B5254C254B226802B338B31A6D1206D8
:102990000ED580221A6500F061F950EA01020B465B
:1029A00002D0013861F1000302462068FFF794FE6F
:1029B0001A4A136D1B032AD523684FF4002103F52F
:1029C00080531165012283F8592420E001221A6501
:1029D00008221A654FF480621A6510BD196DC80788
:1029E00002D4196D890705D5032119651046002108
:1029F000FFF77AFF094B1A6D100702D41A6DD10642
:102A000005D518221A6520680121FFF76DFF20689F
:102A1000BDE81040FFF780BFE04A0020006400409E
:102A200008B5FFF791FAFFF777FFBDE80840FFF719
:102A300091BA0000C36AD3F8C40080F40010C0F358
:102A40004050704700F5805008B5FFF77DFA406CA4
:102A5000FFF75CF9FFF77EFA43090CBF0120002065
:102A600008BD000000F5805393F8592462B1C16A93
:102A70008A6922F001028A61D3F898240132C3F8EE
:102A80009824002283F85924704700002DE9F74369
:102A900000F5825198461031FFF756FA002541F2B1
:102AA000680E4FF0010900F5805C00EB451474449A
:102AB00023795E071CD4DB061AD5C36A8E69D3F866
:102AC000C87009FA06F63E4212D04F6801970F68A7
:102AD0009742019F77EB08070AD2C3F8D0602379A9
:102AE00043F004032371DCF884340133CCF88434DC
:102AF0000135202D01F12001D7D103B0BDE8F0430D
:102B0000FFF728BAF8B51E46002313700F46054696
:102B10001446FFF797FF80F0010038701EB1284679
:102B2000FFF788FF2070F8BD2DE9F04F85B099467A
:102B3000DDE90EA30D4602931378019391F800B0DE
:102B40008046164600F08AF82B7804460F4613B9E3
:102B50003378002B42D022463B464046FFF796FF93
:102B6000FFF75EFFFFF77EFF4B4632462946FFF731
:102B7000C9FF2B7833B1BBF1000F03D0012005B0A2
:102B8000BDE8F08F337813B1019B002BF6D108F527
:102B900080530393029B544577EB03031ED2039BA0
:102BA000D3F85404D0B10368AAEB0401DB6889B2FE
:102BB00098474B46324629464046FFF7A3FF2B78FD
:102BC00013B1BBF1000FD9D1337813B1019B002BA6
:102BD000D4D100F043F804460F46DBE70020CEE7EF
:102BE00008B50020FFF7CCFEBDE8084001F052B860
:102BF00008B50120FFF7C4FEBDE8084001F04AB85F
:102C000000B59BB0EFF3098168226846FEF746FEE7
:102C1000EFF30583014B9B6BFEE700BF00ED00E087
:102C200008B5FFF7EDFF000000B59BB0EFF3098199
:102C300068226846FEF732FEEFF30583014B5B6BBB
:102C4000FEE700BF00ED00E0FEE700000FB408B5AE
:102C5000029801F0EBFBFEE701F00EBF01F0E6BECB
:102C600001F0E4BE13B56C4684E80600031D94E849
:102C7000030083E80500012002B010BD73B585682C
:102C8000019155B11B885B0707D4D0E900369B6BD7
:102C90009847019AC1B23046A847012002B070BDE2
:102CA000F0B5866889B005460C465EB1BDF838308F
:102CB0005B070AD4D0E900379B6B98472246C1B224
:102CC0003846B047012009B0F0BD00220023CDE90D
:102CD00000230023ADF808300A4603AB01F10806D3
:102CE000106851681C4603C40832B2422346F7D12B
:102CF000106820609288A280FFF7B2FF0423ADF82D
:102D000008302B68CDE90001DB6B694628469847FF
:102D1000D8E70000082817D909280CD00A280CD0B9
:102D20000B280CD00C280CD00D280CD00E2814BF6A
:102D30004020302070470C2070471020704714202E
:102D40007047182070472020704700002DE9F0419F
:102D5000456A15B94162BDE8F0814B6823F06047D0
:102D6000C3F38A464FEAD37EC3F3807816EA23067C
:102D700038BF3E46AC462B465A68BEEBD27F22F0A7
:102D800060440AD0002A18DAA40CB44217D19D423C
:102D90000FD10D60DEE71346EEE7A74207D102F040
:102DA0008044C2F3807242450BD054B1EFE708D2A1
:102DB000EDE7CCF800100B60CDE7B44201D0B4428F
:102DC000E5D81A689C46002AE5D11960C3E70000DF
:102DD0002DE9F047089D01F007044FEAD508224489
:102DE00005F0070500EBD1004FF47F49944201D173
:102DF000BDE8F08704F0070705F0070A57453E468F
:102E000038BF5646C6F10806111B8E4228BF0E4633
:102E1000E10808EBD50E415C13F80EC0B94029FA61
:102E200006F721FA0AF1FFB28CEA010147FA0AF724
:102E300039408CEA010C03F80EC034443544D5E720
:102E400080EA0120082341F2210201B2400000295A
:102E500080B203F1FF33B8BF504013F0FF03F4D149
:102E60007047000038B50C468D18A54200D138BD1A
:102E700014F8011BFFF7E4FFF7E7000042684AB1CE
:102E8000136843604389818901339BB2994243812E
:102E900038BF83811046704770B588B02022044641
:102EA0000D4668460021FEF70BFD20460495FFF70E
:102EB000E5FF024658B16B46054608AE1C4603CCFA
:102EC000B44228606960234605F10805F6D1104632
:102ED00008B070BD082817D909280CD00A280CD0D2
:102EE0000B280CD00C280CD00D280CD00E2814BFA9
:102EF0004020302070470C2070471020704714206D
:102F0000704718207047202070470000082817D904
:102F10000C280CD910280CD914280CD918280CD935
:102F200020280CD930288CBF0F200E207047092094
:102F300070470A2070470B2070470C2070470D2007
:102F4000704700002DE9F843078C072F04461ED96F
:102F5000D0E9029800254FF6FF73C5F12006A5F1D0
:102F6000200029FA05F108FA06F628FA00F03143A4
:102F70000143C9B21846FFF763FF0835402D0346E9
:102F8000EBD1E1693A46BDE8F843FFF76BBF4FF676
:102F9000FF70BDE8F883000010B54B6823B9CA8AFA
:102FA00063F30902CA8210BD04691A681C600361D8
:102FB000C38A013BC3824A60EFE700002DE9F84F66
:102FC0001D46CB8A0F46C3F3090105298146924667
:102FD0000B4630D00020AAB207F11A049EB2042E8C
:102FE0001FFA80F80FD8904503F1010306D3FB8A3E
:102FF0000A4462F30903FB8201201AE01AF8006018
:10300000E6540130EAE79045F1D2A1F1050B1C230B
:103010007C68BBFBF3F203FB12BB1FFA8BF6002CA0
:1030200045D14846FFF72AFF044638B978606FF06B
:103030000200BDE8F88F4FF00008E6E700260660C2
:103040007860ADB24FF0000B454510D90AEB08038C
:10305000221D13F8011B9155B1B208F101081B297B
:103060001FFA88F82BD0454506F10106F1D8FB8AF6
:10307000C3F30902154465F30903BCE7013292B2B8
:103080001C462368002BF9D16B1F0B441C21B3FB9A
:10309000F1F301339BB29A42D3D2BBF1000FD0D1EE
:1030A0004846FFF7EBFE20B9C4F800B0BFE70122A5
:1030B000E7E7C0F800B05E4620600446C1E745453A
:1030C000D5D94846FFF7DAFE08B92060AFE7C0F867
:1030D00000B0002620600446B6E700002DE9F04F5E
:1030E0002DED028B1C4683B05B6901920746884632
:1030F000002B00F09A80238C2BB1E269002A00F0AB
:103100009480072B35D807F10C00FFF7B7FE054672
:1031100038B96FF00205284603B0BDEC028BBDE85C
:10312000F08F14220021FEF7CBFB228CE16905F120
:103130000800FEF7B3FB208C013080B2FFF7E6FEFB
:10314000FFF7C8FE013880B220840130287463691B
:10315000228C1B782A4403F01F0363F03F0348F0DE
:1031600000411372384669602946FFF7EFFD0125DB
:10317000D1E700F10C034FF0000908EE103A4FF0D0
:10318000800A4E464D4618EE100AFFF777FE83463A
:103190000028BED014220021FEF792FB002E3AD167
:1031A000019BABF8083002220BF1080E1FFA82FCDB
:1031B0000CF10100BCF1060F218C80B201D88E42C7
:1031C0002BD3FFF7A3FEFFF785FE62691278013863
:1031D00002F01F028E4208BF4FF0400A42EA491235
:1031E0001BFA80F14AEA020A013048F0004281F8F5
:1031F00008A08BF81000CBF8042059463846FFF79A
:10320000A5FD238C0135B3422DB289F001094FF0A1
:10321000000AB8D17FE70022C6E7E169895D0EF8B0
:1032200002100136B6B20132C0E76FF0010572E755
:10323000F8B515460E463022002104461F46FEF71B
:103240003FFB069B6360B5F5001F079BA76034BF7B
:103250006A094FF6FF72A36297B2E66104F11000AB
:1032600000239A4206D800230360A782E3822383C7
:10327000E360F8BD0660013330462036F1E7000018
:1032800003781BB94BB2002BC8BF01707047000018
:1032900000787047F8B50C46C969074611B9238C08
:1032A000002B37D1257E1F2D34D8387828BB228CAF
:1032B000072A2CD8268A36F003032BD14FF6FF704D
:1032C000FFF7D0FD20F001003102400441EA056122
:1032D000400C41EA40254FF6FF7223462946384606
:1032E000FFF7FCFE002807DD626913780133DBB2CB
:1032F0001F2B88BF00231370F8BD218A2D0645EAD5
:10330000012505432046FFF71DFE0246E5E76FF065
:103310000300F1E76FF00100EEE7000070B58AB03E
:10332000044616460021282268461D46FEF7C8FAC4
:10333000BDF83830ADF810300F9B05939DF8403044
:103340008DF81830119B07936946BDF84830ADF8E9
:1033500020302046CDE90265FFF79CFF0AB070BD22
:103360002DE9F041D36905460C4616460BB9138C7E
:103370005BBB377E1F2F28D895F80080B8F1000F6F
:1033800026D03046FFF7DEFD3378210241EAC33113
:1033900041EA0801338A41EA076141EA03410246F2
:1033A000334641F080012846FFF798FE00280ADDE9
:1033B0003378012B07D1726913780133DBB21F2BED
:1033C00088BF00231370BDE8F0816FF00100FAE7B9
:1033D0006FF00300F7E70000F0B58BB004460D4630
:1033E00017460021282268461E46FEF769FA9DF816
:1033F0004C305A1E534253418DF800309DF84030F6
:10340000ADF81030119B05939DF848308DF81830B9
:10341000149B07936A46BDF85430ADF82030294616
:103420002046CDE90276FFF79BFF0BB0F0BD000010
:10343000406A00B104307047436A1A684262026908
:103440001A600361C38A013BC38270472DE9F041D2
:10345000D0F82080194E14461D464146002709B970
:10346000BDE8F081D1E90223A21A65EB030396427D
:1034700077EB03031ED2036A8B420DD1FFF78CFD5D
:10348000036A1B68036203690B60C38A0161016AF6
:10349000013BC3828846E2E7FFF77EFD0B68C8F870
:1034A000003003690B60C38A0161013BC382D8F815
:1034B0000010D4E788460968D1E700BF80841E0069
:1034C0002DE9F04F8BB00D46DDF8509014469B4629
:1034D0008046002800F01981B9F1000F00F0158135
:1034E000531E3F2B00F21181012A03D1BBF1000FC3
:1034F00040F00B810023CDE90833B8F81430B5EB68
:10350000C30F4FEAC30703D300200BB0BDE8F08F11
:103510002B199F42D8F80C303ABF7F1BFFB22746C9
:103520001BB9D8F81030002B7AD0272D4ED8C5F112
:103530002806B7424FF000032CBFF6B23E46009378
:103540002946D8F8080008AB3246FFF741FCA7EB44
:10355000060A35445FFA8AFAB8F8143003F10053CA
:10356000053BDB000493D8F80C3003932821039B20
:1035700013B1BAF1000F2CD1D8F8100040B1BAF154
:10358000000F05D0009608AB5246691AFFF720FCE1
:1035900038B2002FB8D066070AD00AAB03EBD401CB
:1035A000624211F8083C02F00702134101F8083C9E
:1035B000082C3CD9102C40F2B580202C40F2B7806A
:1035C000BBF1000F00F09C80082334E0BA460026CF
:1035D000C2E7049BE02B28BFE02306930B44AB42D9
:1035E000059314D95A1B03980096924534BF52464E
:1035F000D2B2691A08AB04300792FFF7E9FB079AC9
:103600001644AAEB020A1544F6B25FFA8AFA049B42
:10361000069A05999B1A0493039B1B680393A6E7DC
:103620000093D8F8080008AB3A462946AEE7BBF14C
:10363000000F13D00123B4EBC30F6CD0082C12D8A9
:103640009DF82030621E23FA02F2D50706D54FF00E
:10365000FF3202FA04F423438DF820309DF8203025
:1036600089F8003051E7102C12D8BDF82030621EC6
:1036700023FA02F2D10706D54FF0FF3202FA04F422
:103680002343ADF82030BDF82030A9F800303CE7E6
:10369000202C0FD80899631E21FA03F3DA0705D509
:1036A0004FF0FF3202FA04F40C430894089BC9F867
:1036B00000302AE7402C2BD0DDE90865611EC4F1FB
:1036C0002102A4F1210326FA01F105FA02F225FAFA
:1036D00003F311431943CB0712D50122A4F12003B0
:1036E000C4F1200102FA03F322FA01F1A24052428E
:1036F00043EA010363EB430332432B43CDE9082341
:10370000DDE90823C9E90023FFE66FF00100FCE6CC
:103710006FF00800F9E6082CA0D9102CB3D9202CA2
:10372000EED8C3E7BBF1000FADD0022383E7BBF1B6
:10373000000FBBD004237EE730B5012A144638BF02
:103740000124402C85B028BF40240025012ACDE962
:10375000025518D81B788DF8083063070AD004ABDF
:1037600003EBD405624215F8083C02F007029340CF
:1037700005F8083C009103462246002102A8FFF705
:1037800027FB05B030BD082AE4D9102A03D81B88CE
:10379000ADF80830E1E7202A8DBFD3E900231B688C
:1037A0000293CDE90223D8E710B5CB681BB98B6033
:1037B0000B618B8210BD04691A681C600361C38AA7
:1037C000013BC382CA60F0E703064CBFC0F3C030C0
:1037D0000220704708B50246FFF7F6FF022806D11F
:1037E0005306C2F30F2001D100F0030008BDC2F35D
:1037F0000740FBE72DE9F04F93B0CDE903230A68BA
:1038000004461046FFF7E0FF022814BFC2F3062665
:103810000026002A0D46824680F2F28112F0C0494D
:1038200040F0EE81097B002900F0EA81022803D0F4
:103830002378B34240F0E781C2F304630693104655
:1038400002F07F030593FFF7C5FF059B29444FEA6C
:10385000834848EA0A4848EA4668CE7800230022AE
:10386000CDE90823F309834648EA0008029367D0AC
:10387000059B009302466768534608A92046B8474F
:10388000002800F0C381276A4FB9414604F10C00BB
:10389000FFF702FB074690B96FF0020054E03B6966
:1038A00098450DD03F68002FF9D1414604F10C0036
:1038B000FFF7F2FA07460028EED0236A3B60276242
:1038C00097F817C006F01F08CCF3840CACEB080087
:1038D0001FFA80FE0028B8BF0EF12000A8EB0C03F1
:1038E0001FFA83FED7E90221B8BF00B2002B07936D
:1038F000BEBF0EF120031BB2079352EA010338D07A
:10390000039BDFF824E39A1A049B4FF0000C63EB4F
:10391000010196457CEB01032BD36B7B97F81AE0F2
:10392000734519D1029B002B78D0012821DC7868DF
:10393000F8B9DFF8F0C2944570EB010316D337E015
:10394000276A27B96FF00C0013B0BDE8F08F3B6910
:103950009845B5D03F68F4E7B24890427CEB01034C
:1039600001D30020F0E7029B002BFAD0079B0F2B1E
:1039700017DCFA7DB30002F0030203F07C0313436B
:10398000FB7539462046FFF707FB6B7BBB76029B36
:103990003BB9FB7DC3F38402013262F38603FB75FE
:1039A000D0E76A7BBB7E9A42DBD1029B002B35D0ED
:1039B000B309022B32D0039BBB60049BFB60142233
:1039C00000210DA8FDF77CFF039B0A93049B0B933A
:1039D0002B1D0C932B7BADF83EB0013BDBB2ADF859
:1039E0003C30069B8DF84230059B8DF8433094F8AF
:1039F0002C308DF840A083F001038DF844308DF811
:103A00004180A3680AA920469847FB7DC3F384033D
:103A1000013303F01F039B02FB82A2E7FB7DC6F389
:103A20004012B2EBD31F40F0F480C3F3840343454C
:103A300040F0F280029A2B7BB609002A4DD0F207A3
:103A40005DD4032B40F2EB80039BBB60049BFB60C7
:103A50002B7BAE1D033BDBB23246394604F10C0032
:103A6000FFF7ACFA00280CDA39462046FFF794FA43
:103A7000FB7DC3F38403013303F01F039B02FB822E
:103A80000AE7DDE90884AB883B834FF6FF73C9F191
:103A90002000A9F1200228FA09F104FA00F00143FC
:103AA00024FA02F211431846C9B2FFF7C9F909F125
:103AB0000809B9F1400F0346E9D1B8822A7B033ADD
:103AC000D2B23146FFF7CEF9FB7DB882DA43C2F3BA
:103AD000C01262F3C713FB7543E786B92E1D013B85
:103AE000DBB23246394604F10C00FFF767FA0028D2
:103AF000BADB2A7BB88A013AD2B23146E2E7F98AC8
:103B0000C1F30901013B0429DAB25BD8281D002367
:103B100007F11B069A4208D910F801CB06F801C03C
:103B2000013101330529DBB2F4D103990A910499DB
:103B30000B91934207F11B010C9138BF0433796854
:103B40000D9134BF55FA83F300230E93FB8AADF831
:103B50003EB0C3F309031A44069B8DF84230059B1F
:103B60008DF8433094F82C30ADF83C2083F00103FD
:103B70008DF8443000238DF840A08DF841807B60A3
:103B80002A7BB88A013A291DFFF76CF93B8BB88272
:103B9000834203D1A3680AA92046984720460AA970
:103BA000FFF702FEFB7DBA8AC3F38403013303F0FF
:103BB0001F039B02FB823B8B9A420CBF00206FF0DD
:103BC0001000C1E67B68002BAFD0052001E01C305F
:103BD00033461E68002EFAD1091A081D2E1D1844FE
:103BE00001EB090CBCF11B0F5FFA89F39DD89A42D7
:103BF0009BD916F8013B00F8013B09F10109EFE7F9
:103C00006FF00900A0E66FF00A009DE66FF00B0070
:103C10009AE66FF00D0097E66FF00E0094E66FF0F5
:103C20000F0091E640420F0080841E00EFF30983ED
:103C300005494A6B22F001024A63683383F309881D
:103C4000002383F31188704700EF00E0302080F3F9
:103C5000118862B60C4B0D4AD96821F4E061090461
:103C6000090C0A43DA60D3F8FC20094942F080725B
:103C7000C3F8FC200A6842F001020A602022DA77C9
:103C800083F82200704700BF00ED00E00003FA0552
:103C9000001000E010B5302383F311880E4B5B68F1
:103CA00013F4006314D0F1EE103AEFF30984683C8A
:103CB0004FF08073E361094BDB6B236684F3098863
:103CC00000F072FB10B1064BA36110BD054BFBE782
:103CD00083F31188F9E700BF00ED00E000EF00E09A
:103CE0004306000846060008026843681143016065
:103CF00003B1184770470000024A136843F0C0033D
:103D0000136070470044004013B50D4C204600F08E
:103D1000B1FA04F114000B4900940023202200F0B2
:103D20006FF9094B09490094202204F1380000F092
:103D3000E9F9074A074BC4E9172302B010BD00BFD9
:103D4000EC4A0020584B0020F93C0008784B00203A
:103D500000440040007A030A30B5037C214C00295E
:103D600018BF0C46012B0CD11F4B984209D11F4B99
:103D70009A6D42F400329A659A6F42F400329A6763
:103D80009B6F2268036EC16D846603EB5203B3FB25
:103D9000F2F36268150442BF23F0070503F007033E
:103DA00043EA4503CB60A36843F040034B60E368FC
:103DB00043F001038B6042F4967343F001030B6000
:103DC0004FF0FF330B62510505D512F0102205D0DC
:103DD000B2F1805F04D080F8643030BD7F23FAE711
:103DE0003F23F8E72C530008EC4A00200010024063
:103DF0002DE9F047C66D3768F4693462210705463E
:103E000019D014F0080118BF4FF48071E20748BFC1
:103E100041F02001A30748BF41F04001600748BFBF
:103E200041F08001302383F31188281DFFF75CFFE8
:103E3000002383F31188E2050AD5302383F3118828
:103E40004FF48061281DFFF74FFF002383F3118893
:103E50004FF030094FF0000A14F0200838D13B062B
:103E600016D54FF0300905F1380A200610D589F330
:103E70001188504600F07AF9002836DA0821281D0A
:103E8000FFF732FF27F080033360002383F31188AC
:103E9000790614D5620612D5302383F31188D5E94B
:103EA00013239A4208D12B6C33B11021281D27F01F
:103EB0004007FFF719FF3760002383F31188E306FB
:103EC00018D5AA6E1369ABB1BDE8F0475069184721
:103ED00089F31188736A95F864102846194000F038
:103EE000E3F98AF31188F469B6E7B06288F31188C0
:103EF000F469BAE7BDE8F0874FF0E0230022586884
:103F00004FF0FF31930003F1604303F56143013249
:103F10009042C3F88010C3F88011F3D270470000BC
:103F200000F1604303F561430901C9B283F800134E
:103F3000012200F01F039A4043099B0003F16043F4
:103F400003F56143C3F880211A607047F8B5154640
:103F500082680669AA420B46816938BF8568761A6D
:103F6000B54204460BD218462A46FDF797FCA369D2
:103F70002B44A361A3685B1BA3602846F8BD0CD942
:103F800018463246FDF78AFCAF1BE1683A463044DA
:103F9000FDF784FCE3683B44EBE718462A46FDF74F
:103FA0007DFCE368E5E7000083689342F7B51546BA
:103FB000044638BF8568D0E90460361AB5420BD292
:103FC0002A46FDF76BFC63692B446361A3682846AE
:103FD0005B1BA36003B0F0BD0DD932460191FDF724
:103FE0005DFC0199E068AF1B3A463144FDF756FC91
:103FF000E3683B44E9E72A46FDF750FCE368E4E761
:1040000010B50A440024C361029B8460C0E900002B
:10401000C0E90511C1600261036210BD08B5D0E9B5
:104020000532934201D1826882B98268013282608E
:104030005A1C42611970D0E904329A4224BFC36805
:104040004361002100F078FA002008BD4FF0FF30F6
:10405000FBE7000070B5302304460E4683F3118859
:10406000A568A5B1A368A269013BA360531CA36125
:1040700015782269934224BFE368A361E3690BB119
:1040800020469847002383F31188284607E03146ED
:10409000204600F041FA0028E2DA85F3118870BD6D
:1040A0002DE9F74F04460E4617469846D0F81C9067
:1040B0004FF0300A8AF311884FF0000B154665B1B6
:1040C0002A4631462046FFF741FF034660B9414684
:1040D000204600F021FA0028F1D0002383F3118854
:1040E000781B03B0BDE8F08FB9F1000F03D0019049
:1040F0002046C847019B8BF31188ED1A1E448AF3B2
:104100001188DCE7C0E90511C160C3611144009B5F
:104110008260C0E90000016103627047F8B504469F
:104120000D461646302383F31188A768A7B1A3680C
:10413000013BA36063695A1C62611D70D4E90432BB
:104140009A4224BFE3686361E3690BB12046984754
:10415000002080F3118807E03146204600F0DCF9AA
:104160000028E2DA87F31188F8BD0000D0E90523C2
:104170009A4210B501D182687AB9826801328260B0
:104180005A1C82611C7803699A4224BFC368836108
:10419000002100F0D1F9204610BD4FF0FF30FBE7C1
:1041A0002DE9F74F04460E4617469846D0F81C9066
:1041B0004FF0300A8AF311884FF0000B154665B1B5
:1041C0002A4631462046FFF7EFFE034660B94146D6
:1041D000204600F0A1F90028F1D0002383F31188D4
:1041E000781B03B0BDE8F08FB9F1000F03D0019048
:1041F0002046C847019B8BF31188ED1A1E448AF3B1
:104200001188DCE7026843681143016003B1184775
:10421000704700001430FFF743BF00004FF0FF333A
:104220001430FFF73DBF00003830FFF7B9BF000082
:104230004FF0FF333830FFF7B3BF00001430FFF703
:1042400009BF00004FF0FF311430FFF703BF00003B
:104250003830FFF763BF00004FF0FF323830FFF710
:104260005DBF0000012914BF6FF0130000207047EC
:10427000FFF74ABD044B03600023C0E902334360EB
:1042800001230374704700BF4453000810B5302366
:10429000044683F31188FFF75FFD02232374002097
:1042A00080F3118810BD000038B5C36904460D467F
:1042B0001BB904210844FFF7A5FF294604F11400A7
:1042C000FFF7ACFE002806DA201D4FF40061BDE8C0
:1042D0003840FFF797BF38BD002303758268036934
:1042E0001B6899689142FBD25A6803604260106073
:1042F0005860704700230375826803691B689968DA
:104300009142FBD85A680360426010605860704761
:1043100008B50846302383F311880B7D032B05D0A5
:10432000042B0DD02BB983F3118808BD8B690022B3
:104330001A604FF0FF338361FFF7CEFF0023F2E7EF
:10434000D1E9003213605A60F3E70000FFF7C4BF01
:10435000054BD9680875186802681A605360012215
:104360000275D860FCF758B9984B002030B50C4B5B
:10437000DD684B1C87B004460FD02B46094A6846BF
:1043800000F06CF92046FFF7E3FF009B13B168468D
:1043900000F06EF9A86907B030BDFFF7D9FFF9E763
:1043A000984B002011430008044B1A68DB689068A2
:1043B0009B68984294BF002001207047984B0020D2
:1043C000084B10B51C68D86822681A605360012237
:1043D0002275DC60FFF78EFF01462046BDE81040E5
:1043E000FCF71AB9984B0020044B1A68DB689268F6
:1043F0009B689A4201D9FFF7E3BF7047984B0020B2
:1044000038B5074C0749084801230025237065602B
:1044100000F030FC0223237085F3118838BD00BF03
:10442000C04D002070530008984B002008B572B6AC
:10443000044B186500F0E6FA00F09EFB024B0322E5
:104440001A70FEE7984B0020C04D002000F046B9DE
:10445000EFF3118020B9EFF30583302282F3118846
:104460007047000010B530B9EFF30584C4F30804B9
:1044700014B180F3118810BDFFF7B6FF84F31188E3
:10448000F9E700008B60022308618B8208467047C1
:104490008368A3F1840243F8142C026943F8442C86
:1044A000426943F8402C094A43F8242CC26843F877
:1044B000182C022203F80C2C002203F80B2C044ABF
:1044C00043F8102CA3F12000704700BF310600080C
:1044D000984B002008B5FFF7DBFFBDE80840FFF769
:1044E00035BF0000024BDB6898610F20FFF730BF3B
:1044F000984B0020302383F31188FFF7F3BF0000AF
:1045000008B50146302383F311880820FFF72EFFFA
:10451000002383F3118808BD064BDB6839B142687C
:1045200018605A60136043600420FFF71FBF4FF00C
:10453000FF307047984B00200368984206D01A68F5
:104540000260506099611846FFF700BF7047000095
:1045500010B503689C68A2420CD85C688A600B6046
:104560004C602160596099688A1A9A604FF0FF3355
:10457000836010BD1B68121BECE700000A2938BFDE
:104580000A2170B504460D460A26601900F06CFB3E
:1045900000F058FB041BA54203D8751C2E460446A8
:1045A000F3E70A2E04D9BDE87040012000F0A2BB59
:1045B00070BD0000F8B5144B0D46D96103F1100130
:1045C00041600A2A1969826038BF0A220160486086
:1045D0001861A818144600F039FB0A2700F032FBD6
:1045E000431BA342064606D37C1C281900F03CFB63
:1045F00027463546F2E70A2F04D9BDE8F8400120E6
:1046000000F078BBF8BD00BF984B0020F8B5064617
:104610000D4600F017FB0F4A134653F8107F9F42D8
:1046200006D12A4601463046BDE8F840FFF7C2BF32
:10463000D169BB68441A2C1928BF2C46A34202D961
:104640002946FFF79BFF224631460348BDE8F84064
:10465000FFF77EBF984B0020A84B002010B4C0E9A4
:10466000032300235DF8044B4361FFF7CFBF000035
:1046700010B5194C236998420DD0D0E900328168F9
:1046800013605A609A680A449A60002303604FF0EE
:10469000FF33A36110BD2346026843F8102F536017
:1046A0000022026022699A4203D1BDE8104000F066
:1046B000D5BA936881680B44936000F0C3FA22690D
:1046C000E1699268441AA242E4D91144BDE810405D
:1046D000091AFFF753BF00BF984B00202DE9F047A0
:1046E000DFF8BC8008F110072C4ED8F8105000F00D
:1046F000A9FAD8F81C40AA68031B9A423ED8144471
:10470000D5E900324FF00009C8F81C4013605A6028
:10471000C5F80090D8F81030B34201D100F09EFAED
:1047200089F31188D5E9033128469847302383F36C
:1047300011886B69002BD8D000F084FA6A69A0EB6D
:1047400004094A4582460DD2022000F0D3FA002225
:10475000D8F81030B34208D151462846BDE8F0479A
:10476000FFF728BF121A2244F2E712EB090938BFFB
:104770004A4629463846FFF7EBFEB5E7D8F8103031
:10478000B34208D01444211AC8F81C00A960BDE83F
:10479000F047FFF7F3BEBDE8F08700BFA84B00204D
:1047A000984B002000207047FEE700007047000093
:1047B0004FF0FF3070470000BFF34F8F024A13697C
:1047C000DB03FCD4704700BF0020024008B5094B52
:1047D0001B7873B9FFF7F0FF074B5A69002ABFBF78
:1047E000064A9A6002F188329A601A6822F480625E
:1047F0001A6008BDD84D0020002002402301674503
:1048000008B50B4B1B7893B9FFF7D6FF094B5A69D4
:1048100042F000425A611A6842F480521A601A68E3
:1048200022F480521A601A6842F480621A6008BD4D
:10483000D84D002000200240FF289ABF00F58030AC
:10484000C0020020704700004FF400607047000075
:104850004FF4807070470000FF2808B50BD8FFF7B1
:10486000EBFF00F500630268013204D1043083429B
:10487000F9D1012008BD0020FCE70000FF2838B571
:10488000044626D8FFF7E4FDFFF796FFFFF79EFFEB
:10489000114BF3221A6102225A615A6942EAC40298
:1048A0005A615A6942F480325A6105462046FFF740
:1048B00083FF4FF40061FFF7BFFF00F059F928466E
:1048C000FFF79EFFFFF7CEFD2046BDE83840FFF71B
:1048D000C3BF002038BD00BF0020024040EA0203F1
:1048E00013F007032DE9F04705460C46164606D09F
:1048F000344B40F231321A600020BDE8F087811855
:10490000314A91420CD92F4A40F236311160F3E717
:104910002B1D1B686268934208D1083E0835083495
:10492000072E19D92A6823689A42F1D0FFF790FD23
:10493000FFF74CFFFFF740FF04F10801234C4FF055
:1049400001084FF00009012EA1F1080708D8FFF770
:1049500057FFFFF787FD01E0002EE7D10120CCE7EC
:10496000C4F81480AA4651F8083C4AF8043B51F8B0
:10497000043C6B60FFF720FF236943F001032361D0
:10498000C4F814902A6851F8083C9A420ED00D4B96
:1049900040F25E321A600E4B1D600E4B1E600E4BD5
:1049A0001F60FFF72DFFFFF75DFDA5E7DAF800A018
:1049B00051F8043C9A4501F10801E8D1083E083558
:1049C000C1E700BFD44D00200000080800200240CD
:1049D000C84D0020D04D0020CC4D0020084908B51E
:1049E0000B7828B11BB9FFF7F1FE01230B7008BD4E
:1049F000002BFCD0BDE808400870FFF701BF00BFE6
:104A0000D84D002008B54FF4C0314FF0005000F0F1
:104A1000B1F8BDE808404FF480414FF0805000F0FD
:104A2000A9B80000084600F0F3BB000070B582B0E2
:104A3000FFF70EFD0E4E054600F004F93268904275
:104A400037BF0C4A0B49516814682EBFD1E90041A9
:104A5000013151600419034641F1000128460191DA
:104A60003360FFF7FFFC0199204602B070BD00BF24
:104A7000DC4D0020E04D002070B582B0FFF7E8FC6F
:104A8000104E054600F0DEF83268904237BF0E4AFD
:104A90000D49516814682EBFD1E9004101315160C0
:104AA000041941F100010346284601913360FFF7E4
:104AB000D9FC01994FF47A7200232046FBF798FB4A
:104AC00002B070BDDC4D0020E04D00200244D2B2A7
:104AD000904200D17047431C800000F1804000F5F7
:104AE0001450006841F8040BD8B2F1E7124B10B52E
:104AF000D3F89040240409D4D3F89040C3F89040F0
:104B0000D3F8904044F40044C3F890400B4C236821
:104B1000024443F480732360D2B2904200D110BDAE
:104B2000431C800000F1804000F5145051F8044B04
:104B30000460D8B2F1E700BF0010024000700040EE
:104B400007B5012201A90020FFF7C0FF019803B0BB
:104B50005DF804FB13B50446FFF7F2FFA04205D051
:104B6000012201A900200194FFF7C0FF02B010BD8F
:104B7000704700007047000070470000074B45F287
:104B800055521A6002225A6040F6FF729A604CF643
:104B9000CC421A60024B01221A707047003000406C
:104BA000EC4D0020034B1B781BB1034B4AF6AA22A5
:104BB0001A607047EC4D002000300040054B1A6829
:104BC00032B902F1804202F50432D2F894201A6020
:104BD000704700BFE84D0020024B4FF40002C3F8BD
:104BE000942070470010024008B5FFF7E7FF024B22
:104BF0001868C0F3407008BDE84D00207047000001
:104C0000FEE700000A4B0B480B4A90420BD30B4BBC
:104C1000DA1C121AC11E22F003028B4238BF002296
:104C20000021FCF74DBE53F8041B40F8041BECE7D1
:104C3000E4540008704E0020704E0020704E00209A
:104C400000F0C2B84FF08043586A70474FF080437D
:104C5000002258631A610222DA6070474FF08043E5
:104C60000022DA60704700004FF0804358637047BD
:104C7000FEE7000070B51B4B01630025044686B0BB
:104C8000586085620E46FEF7E1FF04F11003C4E9A7
:104C900004334FF0FF33C4E90635C4E90044A5608E
:104CA000E562FFF7CFFF2B460246C4E9082304F173
:104CB00034010D4A256580232046FFF7E3FB0123DD
:104CC000E0600A4A0375009272680192B268CDE909
:104CD0000223074B6846CDE90435FFF7FBFB06B01E
:104CE00070BD00BFC04D00207C53000881530008F8
:104CF000714C0008024AD36A1843D062704700BF63
:104D0000984B00204B6843608B688360CB68C3601E
:104D10000B6943614B6903628B6943620B680360F3
:104D20007047000008B5204BDA6A42F07F02DA6271
:104D3000DA6A22F07F02DA62DA6ADA6C42F07F0223
:104D4000DA64DA6E42F07F02DA66184ADB6E1146E8
:104D50004FF09040FFF7D6FF02F11C0100F5806094
:104D6000FFF7D0FF02F1380100F58060FFF7CAFFBE
:104D700002F1540100F58060FFF7C4FF02F17001F9
:104D800000F58060FFF7BEFF02F18C0100F5806046
:104D9000FFF7B8FF02F1A80100F58060FFF7B2FF4E
:104DA000BDE8084000F050B80010024088530008E9
:104DB00008B500F0FBF9FFF723FBBDE80840FFF75B
:104DC000FDBE0000704700000F4B9A6D42F00102DB
:104DD0009A659A6F42F001029A670C4A9B6F93683A
:104DE00043F0010393604FF08043A7229A624FF093
:104DF000FF32DA6200229A615A63DA605A60012255
:104E00005A611A60704700BF00100240002004E0A1
:104E10004FF0804208B51169D3680B40D9B2C9433D
:104E20009B07116107D5302383F31188FFF70EFB31
:104E3000002383F3118808BD08B5FFF75DF8BDE8CE
:104E4000084000F08BB900004E4B4FF0FF319A6ADA
:104E500099629A6A00229A62986AD86A60F07F0022
:104E6000D862D86A00F07F00D862D86A186B1963DC
:104E7000186B1A63186B986B9963986B9A63986BAD
:104E8000D86BD963D86BDA63D86B186C1964196C5A
:104E90001A64196C196E41F001011966D3F880107B
:104EA00021F00101C3F88010D3F88010996D41F012
:104EB00080519965996F21F080519967996F3249B6
:104EC0004FF400408860CA600A624A628A62CA621D
:104ED0000A634A638A63CA630A644A648A64CA6466
:104EE0000A654A654A604FF48072C1F880204FF429
:104EF00040720A604A6912F48062FBD1D3F89010C4
:104F000011F4407F1EBF4FF48031C3F89010C3F8F6
:104F10009020D3F8982042F00102C3F89820D3F8EB
:104F200098209207FBD51A6842F480321A601A68FA
:104F30009003FCD5D3F8902022F00322C3F89020F0
:104F4000124ADA601A6842F080721A601A68910197
:104F5000FCD50F490F4800229A60C3F888100E490B
:104F6000C3F89C20016002684A401207FBD19A688E
:104F700042F003029A609A6802F00C020C2AFAD1FD
:104F8000704700BF0010024000700040032A61011A
:104F9000550100500020024004070400074A08B5EC
:104FA000536903F00103536123B1054A13680BB140
:104FB00050689847BDE80840FEF76CBE0004014009
:104FC000F04D0020074A08B5536903F0020353610E
:104FD00023B1054A93680BB1D0689847BDE80840F3
:104FE000FEF758BE00040140F04D0020074A08B506
:104FF000536903F00403536123B1054A13690BB1EC
:1050000050699847BDE80840FEF744BE00040140DF
:10501000F04D0020074A08B5536903F008035361B7
:1050200023B1054A93690BB1D0699847BDE80840A0
:10503000FEF730BE00040140F04D0020074A08B5DD
:10504000536903F01003536123B1054A136A0BB18E
:10505000506A9847BDE80840FEF71CBE00040140B6
:10506000F04D0020164B10B55C6904F478725A615B
:10507000A30604D5134A936A0BB1D06A9847600619
:1050800004D5104A136B0BB1506B9847210604D519
:105090000C4A936B0BB1D06B9847E20504D5094AD3
:1050A000136C0BB1506C9847A30504D5054A936C5B
:1050B0000BB1D06C9847BDE81040FEF7EBBD00BFC8
:1050C00000040140F04D0020194B10B55C6904F458
:1050D0007C425A61620504D5164A136D0BB1506DBE
:1050E0009847230504D5134A936D0BB1D06D9847AB
:1050F000E00404D50F4A136E0BB1506E9847A1041B
:1051000004D50C4A936E0BB1D06E9847620404D557
:10511000084A136F0BB1506F9847230404D5054A12
:10512000936F0BB1D06F9847BDE81040FEF7B2BD4A
:1051300000040140F04D002008B50348FEF758FE7A
:10514000BDE80840FEF7A6BDEC4A002008B5FFF711
:105150005FFEBDE80840FEF79DBD0000062108B5D2
:105160000846FEF7DDFE06210720FEF7D9FE0621E0
:105170000820FEF7D5FE06210920FEF7D1FE062104
:105180000A20FEF7CDFE06211720FEF7C9FE0621F4
:105190002820FEF7C5FE07211C20FEF7C1FEBDE852
:1051A00008400C212620FEF7BBBE000008B5FFF723
:1051B00043FE00F009F8FFF75BF8FFF703FEBDE8D8
:1051C0000840FFF73DBD00000023054A19460133A2
:1051D000102BC2E9001102F10802F8D1704700BF9C
:1051E000F04D00200B460146184600F003B80000C1
:1051F00000F00EB810B5054C13462CB10A46014616
:105200000220AFF3008010BD2046FCE70000000044
:10521000024B01461868FFF705BC00BF2823002099
:1052200010B501390244904201D1002005E0037815
:1052300011F8014FA34201D0181B10BD0130F2E755
:105240002DE9F041A3B1C91A17780144044603F1CE
:10525000FF3C8C42204601D9002009E00578BD4280
:1052600004F10104F5D10CEB0405D618A54201D1D7
:10527000BDE8F08115F8018D16F801EDF045F5D087
:10528000E7E70000034611F8012B03F8012B002A81
:10529000F9D170476F72672E6172647570696C6FB7
:1052A000742E6D526F2D4D313030343400000000BB
:1052B00053544D333247343F3F00000040A2E4F1E5
:1052C000646891060041A3E5F26569920700000059
:1052D0004261642043414E496661636520696E64A2
:1052E00065782E0000000000000000006124000826
:1052F000691F0008292B0008611F00081120000801
:10530000F5210008D91F0008A11F0008A51F0008EB
:105310007D1F0008651F0008B5210008891F0008CF
:10532000652C0008951F00088921000800960000E0
:10533000000000000000000000000000000000006D
:105340000000000000000000314200081D4200087B
:105350005942000845420008514200083D420008F9
:105360002942000815420008654200086330000029
:105370006C530008F04B0020C04D00206D61696E39
:105380000069646C650000000001812A00000000D3
:10539000AAAAAAAA00000124FFFF00000000000042
:1053A000009009008002000000000000EAABAAAAF9
:1053B00040010000FFFF0000007007000000000037
:1053C0000000000000000000AAAAAAAA0000000035
:1053D000FFFF0000000000000000000000000000CF
:1053E00000000000AAAAAAAA00000000FFFF000017
:1053F00000000000000000000000000000000000AD
:10540000AAAAAAAA00000000FFFF000000000000F6
:10541000000000000000000000000000AAAAAAAAE4
:1054200000000000FFFF000000000000000000007E
:105430000000000000000000AAAAAAAA00000000C4
:10544000FFFF00000000000000000000D4ADFF7F5F
:1054500001000000000000006204000000000000E5
:105460000088070000000000FE2A0100D2040000AE
:10547000FF000000EC4A002000000000B0520008CD
:105480002C230020000000000000000000000000AD
:10549000000000000000000000000000000000000C
:1054A00000000000000000000000000000000000FC
:1054B00000000000000000000000000000000000EC
:1054C00000000000000000000000000000000000DC
:1054D00000000000000000000000000000000000CC
:0454E00000000000C8
:00000001FF
